{
  "contractName": "collector",
  "abi": [
    {
      "inputs": [
        {
          "internalType": "contract IMASTERCHEF",
          "name": "_masterchefAddress",
          "type": "address"
        }
      ],
      "stateMutability": "nonpayable",
      "type": "constructor"
    },
    {
      "inputs": [],
      "name": "masterchef",
      "outputs": [
        {
          "internalType": "contract IMASTERCHEF",
          "name": "",
          "type": "address"
        }
      ],
      "stateMutability": "view",
      "type": "function"
    },
    {
      "inputs": [],
      "name": "collectAll",
      "outputs": [],
      "stateMutability": "nonpayable",
      "type": "function"
    }
  ],
  "bytecode": "0x608060405234801561001057600080fd5b506040516102213803806102218339818101604052602081101561003357600080fd5b5051600080546001600160a01b039092166001600160a01b03199092169190911790556101bc806100656000396000f3fe608060405234801561001057600080fd5b50600436106100365760003560e01c8063952c96fb1461003b578063fb1db27814610045575b600080fd5b610043610069565b005b61004d610177565b604080516001600160a01b039092168252519081900360200190f35b60008060009054906101000a90046001600160a01b03166001600160a01b031663081e3eda6040518163ffffffff1660e01b815260040160206040518083038186803b1580156100b857600080fd5b505afa1580156100cc573d6000803e3d6000fd5b505050506040513d60208110156100e257600080fd5b5051905060005b60018203811015610173578060081415610101576001015b600080546040805163274d68ad60e11b81526004810185905233602482015290516001600160a01b0390921692634e9ad15a9260448084019382900301818387803b15801561014f57600080fd5b505af1158015610163573d6000803e3d6000fd5b5050600190920191506100e99050565b5050565b6000546001600160a01b03168156fea26469706673582212205081e34ce3ea1aa507199a485820c0b575b5fe8dfc966f95b21db261deb0d84b64736f6c634300060c0033",
  "immutableReferences": {},
  "source": "// SPDX-License-Identifier: MIT\n\npragma solidity =0.6.12;\n\nimport \"./interfaces/IMasterchef.sol\";\n\ncontract collector{\n\tIMASTERCHEF public masterchef;\n\n\tconstructor(IMASTERCHEF _masterchefAddress) public{\n\t\tmasterchef = _masterchefAddress;\n\t}\n\tfunction collectAll() public{\n\n\t\tuint256 pools;\n\t\tpools = masterchef.poolLength();\n\n\t\tfor (uint256 i = 0; i < pools-1 ; i++) {\n\t\t\tif(i==8){\n\t\t\t\ti++;\n\t\t\t}\n          masterchef.extWithdraw(i, msg.sender);\n        }\n\n\t}\n}",
  "sourcePath": "/home/alex/dev/openswapv2/contracts/collector.sol",
  "compiler": {
    "name": "solc",
    "version": "0.6.12+commit.27d51765.Emscripten.clang"
  },
  "schemaVersion": "3.4.3",
  "updatedAt": "2021-10-13T18:29:26.305Z",
  "networkType": "ethereum",
  "devdoc": {
    "kind": "dev",
    "methods": {},
    "version": 1
  },
  "userdoc": {
    "kind": "user",
    "methods": {},
    "version": 1
  }
}