{
  "contractName": "MasterChef",
  "abi": [
    {
      "inputs": [
        {
          "internalType": "contract OpenSwapToken",
          "name": "_sushi",
          "type": "address"
        },
        {
          "internalType": "address",
          "name": "_devaddr",
          "type": "address"
        },
        {
          "internalType": "uint256",
          "name": "_sushiPerBlock",
          "type": "uint256"
        },
        {
          "internalType": "uint256",
          "name": "_sushiPerSecond",
          "type": "uint256"
        },
        {
          "internalType": "uint256",
          "name": "_startBlock",
          "type": "uint256"
        },
        {
          "internalType": "uint256",
          "name": "_bonusEndBlock",
          "type": "uint256"
        },
        {
          "internalType": "uint256",
          "name": "_currentBlocktime",
          "type": "uint256"
        },
        {
          "internalType": "uint256",
          "name": "_lastBlocktime",
          "type": "uint256"
        }
      ],
      "stateMutability": "nonpayable",
      "type": "constructor"
    },
    {
      "anonymous": false,
      "inputs": [
        {
          "indexed": true,
          "internalType": "address",
          "name": "user",
          "type": "address"
        },
        {
          "indexed": true,
          "internalType": "uint256",
          "name": "pid",
          "type": "uint256"
        },
        {
          "indexed": false,
          "internalType": "uint256",
          "name": "amount",
          "type": "uint256"
        }
      ],
      "name": "Deposit",
      "type": "event"
    },
    {
      "anonymous": false,
      "inputs": [
        {
          "indexed": false,
          "internalType": "uint8",
          "name": "currentAmount",
          "type": "uint8"
        }
      ],
      "name": "DevFundLowered",
      "type": "event"
    },
    {
      "anonymous": false,
      "inputs": [
        {
          "indexed": true,
          "internalType": "address",
          "name": "user",
          "type": "address"
        },
        {
          "indexed": true,
          "internalType": "uint256",
          "name": "pid",
          "type": "uint256"
        },
        {
          "indexed": false,
          "internalType": "uint256",
          "name": "amount",
          "type": "uint256"
        }
      ],
      "name": "EmergencyWithdraw",
      "type": "event"
    },
    {
      "anonymous": false,
      "inputs": [
        {
          "indexed": true,
          "internalType": "address",
          "name": "previousOwner",
          "type": "address"
        },
        {
          "indexed": true,
          "internalType": "address",
          "name": "newOwner",
          "type": "address"
        }
      ],
      "name": "OwnershipTransferred",
      "type": "event"
    },
    {
      "anonymous": false,
      "inputs": [
        {
          "indexed": false,
          "internalType": "uint256",
          "name": "OpenSwapPerBlock",
          "type": "uint256"
        },
        {
          "indexed": false,
          "internalType": "uint256",
          "name": "Blocktime",
          "type": "uint256"
        }
      ],
      "name": "RewardChange",
      "type": "event"
    },
    {
      "anonymous": false,
      "inputs": [
        {
          "indexed": true,
          "internalType": "address",
          "name": "user",
          "type": "address"
        },
        {
          "indexed": true,
          "internalType": "uint256",
          "name": "pid",
          "type": "uint256"
        },
        {
          "indexed": false,
          "internalType": "uint256",
          "name": "amount",
          "type": "uint256"
        }
      ],
      "name": "Withdraw",
      "type": "event"
    },
    {
      "inputs": [],
      "name": "BONUS_MULTIPLIER",
      "outputs": [
        {
          "internalType": "uint256",
          "name": "",
          "type": "uint256"
        }
      ],
      "stateMutability": "view",
      "type": "function"
    },
    {
      "inputs": [],
      "name": "OpenSwap",
      "outputs": [
        {
          "internalType": "contract OpenSwapToken",
          "name": "",
          "type": "address"
        }
      ],
      "stateMutability": "view",
      "type": "function"
    },
    {
      "inputs": [],
      "name": "OpenSwapPerBlock",
      "outputs": [
        {
          "internalType": "uint256",
          "name": "",
          "type": "uint256"
        }
      ],
      "stateMutability": "view",
      "type": "function"
    },
    {
      "inputs": [],
      "name": "OpenSwapPerSecond",
      "outputs": [
        {
          "internalType": "uint256",
          "name": "",
          "type": "uint256"
        }
      ],
      "stateMutability": "view",
      "type": "function"
    },
    {
      "inputs": [],
      "name": "bonusEndBlock",
      "outputs": [
        {
          "internalType": "uint256",
          "name": "",
          "type": "uint256"
        }
      ],
      "stateMutability": "view",
      "type": "function"
    },
    {
      "inputs": [],
      "name": "claimOwnership",
      "outputs": [],
      "stateMutability": "nonpayable",
      "type": "function"
    },
    {
      "inputs": [],
      "name": "currentBlocktime",
      "outputs": [
        {
          "internalType": "uint256",
          "name": "",
          "type": "uint256"
        }
      ],
      "stateMutability": "view",
      "type": "function"
    },
    {
      "inputs": [],
      "name": "devDivisor",
      "outputs": [
        {
          "internalType": "uint8",
          "name": "",
          "type": "uint8"
        }
      ],
      "stateMutability": "view",
      "type": "function"
    },
    {
      "inputs": [],
      "name": "devaddr",
      "outputs": [
        {
          "internalType": "address",
          "name": "",
          "type": "address"
        }
      ],
      "stateMutability": "view",
      "type": "function"
    },
    {
      "inputs": [
        {
          "internalType": "address",
          "name": "",
          "type": "address"
        }
      ],
      "name": "isUserRegisty",
      "outputs": [
        {
          "internalType": "bool",
          "name": "",
          "type": "bool"
        }
      ],
      "stateMutability": "view",
      "type": "function"
    },
    {
      "inputs": [],
      "name": "lastBlocktime",
      "outputs": [
        {
          "internalType": "uint256",
          "name": "",
          "type": "uint256"
        }
      ],
      "stateMutability": "view",
      "type": "function"
    },
    {
      "inputs": [],
      "name": "lpDepositor",
      "outputs": [
        {
          "internalType": "address",
          "name": "",
          "type": "address"
        }
      ],
      "stateMutability": "view",
      "type": "function"
    },
    {
      "inputs": [],
      "name": "owner",
      "outputs": [
        {
          "internalType": "address",
          "name": "",
          "type": "address"
        }
      ],
      "stateMutability": "view",
      "type": "function"
    },
    {
      "inputs": [],
      "name": "pendingOwner",
      "outputs": [
        {
          "internalType": "address",
          "name": "",
          "type": "address"
        }
      ],
      "stateMutability": "view",
      "type": "function"
    },
    {
      "inputs": [
        {
          "internalType": "contract IERC20",
          "name": "",
          "type": "address"
        }
      ],
      "name": "poolExistence",
      "outputs": [
        {
          "internalType": "bool",
          "name": "",
          "type": "bool"
        }
      ],
      "stateMutability": "view",
      "type": "function"
    },
    {
      "inputs": [
        {
          "internalType": "uint256",
          "name": "",
          "type": "uint256"
        }
      ],
      "name": "poolInfo",
      "outputs": [
        {
          "internalType": "contract IERC20",
          "name": "lpToken",
          "type": "address"
        },
        {
          "internalType": "uint256",
          "name": "allocPoint",
          "type": "uint256"
        },
        {
          "internalType": "uint256",
          "name": "lastRewardBlock",
          "type": "uint256"
        },
        {
          "internalType": "uint256",
          "name": "accOpenSwapPerShare",
          "type": "uint256"
        }
      ],
      "stateMutability": "view",
      "type": "function"
    },
    {
      "inputs": [],
      "name": "rewardCollector",
      "outputs": [
        {
          "internalType": "address",
          "name": "",
          "type": "address"
        }
      ],
      "stateMutability": "view",
      "type": "function"
    },
    {
      "inputs": [],
      "name": "startBlock",
      "outputs": [
        {
          "internalType": "uint256",
          "name": "",
          "type": "uint256"
        }
      ],
      "stateMutability": "view",
      "type": "function"
    },
    {
      "inputs": [],
      "name": "totalAllocPoint",
      "outputs": [
        {
          "internalType": "uint256",
          "name": "",
          "type": "uint256"
        }
      ],
      "stateMutability": "view",
      "type": "function"
    },
    {
      "inputs": [
        {
          "internalType": "address",
          "name": "newOwner",
          "type": "address"
        },
        {
          "internalType": "bool",
          "name": "direct",
          "type": "bool"
        },
        {
          "internalType": "bool",
          "name": "renounce",
          "type": "bool"
        }
      ],
      "name": "transferOwnership",
      "outputs": [],
      "stateMutability": "nonpayable",
      "type": "function"
    },
    {
      "inputs": [
        {
          "internalType": "uint256",
          "name": "",
          "type": "uint256"
        },
        {
          "internalType": "address",
          "name": "",
          "type": "address"
        }
      ],
      "name": "userInfo",
      "outputs": [
        {
          "internalType": "uint256",
          "name": "amount",
          "type": "uint256"
        },
        {
          "internalType": "uint256",
          "name": "rewardDebt",
          "type": "uint256"
        }
      ],
      "stateMutability": "view",
      "type": "function"
    },
    {
      "inputs": [],
      "name": "poolLength",
      "outputs": [
        {
          "internalType": "uint256",
          "name": "",
          "type": "uint256"
        }
      ],
      "stateMutability": "view",
      "type": "function"
    },
    {
      "inputs": [],
      "name": "updateBlockIssuanceWithBlocktime",
      "outputs": [],
      "stateMutability": "nonpayable",
      "type": "function"
    },
    {
      "inputs": [
        {
          "internalType": "uint256",
          "name": "_currentBlocktime",
          "type": "uint256"
        }
      ],
      "name": "changeBlocktime",
      "outputs": [],
      "stateMutability": "nonpayable",
      "type": "function"
    },
    {
      "inputs": [
        {
          "internalType": "uint256",
          "name": "_allocPoint",
          "type": "uint256"
        },
        {
          "internalType": "contract IERC20",
          "name": "_lpToken",
          "type": "address"
        },
        {
          "internalType": "bool",
          "name": "_withUpdate",
          "type": "bool"
        }
      ],
      "name": "add",
      "outputs": [],
      "stateMutability": "nonpayable",
      "type": "function"
    },
    {
      "inputs": [
        {
          "internalType": "uint256",
          "name": "_pid",
          "type": "uint256"
        },
        {
          "internalType": "uint256",
          "name": "_allocPoint",
          "type": "uint256"
        },
        {
          "internalType": "bool",
          "name": "_withUpdate",
          "type": "bool"
        }
      ],
      "name": "set",
      "outputs": [],
      "stateMutability": "nonpayable",
      "type": "function"
    },
    {
      "inputs": [
        {
          "internalType": "uint256",
          "name": "_from",
          "type": "uint256"
        },
        {
          "internalType": "uint256",
          "name": "_to",
          "type": "uint256"
        }
      ],
      "name": "getMultiplier",
      "outputs": [
        {
          "internalType": "uint256",
          "name": "",
          "type": "uint256"
        }
      ],
      "stateMutability": "view",
      "type": "function"
    },
    {
      "inputs": [
        {
          "internalType": "uint256",
          "name": "_pid",
          "type": "uint256"
        },
        {
          "internalType": "address",
          "name": "_user",
          "type": "address"
        }
      ],
      "name": "pendingOpenSwap",
      "outputs": [
        {
          "internalType": "uint256",
          "name": "",
          "type": "uint256"
        }
      ],
      "stateMutability": "view",
      "type": "function"
    },
    {
      "inputs": [
        {
          "internalType": "uint256",
          "name": "_pid",
          "type": "uint256"
        },
        {
          "internalType": "address",
          "name": "_user",
          "type": "address"
        }
      ],
      "name": "amountStaked",
      "outputs": [
        {
          "internalType": "uint256",
          "name": "",
          "type": "uint256"
        }
      ],
      "stateMutability": "view",
      "type": "function"
    },
    {
      "inputs": [],
      "name": "massUpdatePools",
      "outputs": [],
      "stateMutability": "nonpayable",
      "type": "function"
    },
    {
      "inputs": [
        {
          "internalType": "uint256",
          "name": "_pid",
          "type": "uint256"
        }
      ],
      "name": "updatePool",
      "outputs": [],
      "stateMutability": "nonpayable",
      "type": "function"
    },
    {
      "inputs": [
        {
          "internalType": "uint256",
          "name": "_pid",
          "type": "uint256"
        },
        {
          "internalType": "uint256",
          "name": "_amount",
          "type": "uint256"
        }
      ],
      "name": "deposit",
      "outputs": [],
      "stateMutability": "nonpayable",
      "type": "function"
    },
    {
      "inputs": [
        {
          "internalType": "uint256",
          "name": "_pid",
          "type": "uint256"
        },
        {
          "internalType": "uint256",
          "name": "_amount",
          "type": "uint256"
        },
        {
          "internalType": "address",
          "name": "_user",
          "type": "address"
        }
      ],
      "name": "extDeposit",
      "outputs": [],
      "stateMutability": "nonpayable",
      "type": "function"
    },
    {
      "inputs": [
        {
          "internalType": "uint256",
          "name": "_pid",
          "type": "uint256"
        },
        {
          "internalType": "uint256",
          "name": "_amount",
          "type": "uint256"
        }
      ],
      "name": "withdraw",
      "outputs": [],
      "stateMutability": "nonpayable",
      "type": "function"
    },
    {
      "inputs": [
        {
          "internalType": "uint256",
          "name": "_pid",
          "type": "uint256"
        },
        {
          "internalType": "address",
          "name": "_user",
          "type": "address"
        }
      ],
      "name": "extWithdraw",
      "outputs": [],
      "stateMutability": "nonpayable",
      "type": "function"
    },
    {
      "inputs": [],
      "name": "collectAll",
      "outputs": [],
      "stateMutability": "nonpayable",
      "type": "function"
    },
    {
      "inputs": [
        {
          "internalType": "uint256",
          "name": "_pid",
          "type": "uint256"
        }
      ],
      "name": "emergencyWithdraw",
      "outputs": [],
      "stateMutability": "nonpayable",
      "type": "function"
    },
    {
      "inputs": [],
      "name": "lowerDevFund",
      "outputs": [],
      "stateMutability": "nonpayable",
      "type": "function"
    },
    {
      "inputs": [
        {
          "internalType": "address",
          "name": "_devaddr",
          "type": "address"
        }
      ],
      "name": "dev",
      "outputs": [],
      "stateMutability": "nonpayable",
      "type": "function"
    },
    {
      "inputs": [
        {
          "internalType": "address",
          "name": "_collectoraddr",
          "type": "address"
        }
      ],
      "name": "collector",
      "outputs": [],
      "stateMutability": "nonpayable",
      "type": "function"
    },
    {
      "inputs": [
        {
          "internalType": "address",
          "name": "_depositoraddr",
          "type": "address"
        }
      ],
      "name": "depositor",
      "outputs": [],
      "stateMutability": "nonpayable",
      "type": "function"
    }
  ],
  "bytecode": "0x60806040526004805460ff60a01b1916600160a31b1790556000600e5534801561002857600080fd5b50604051612b16380380612b16833981810160405261010081101561004c57600080fd5b50805160208201516040808401516060850151608086015160a087015160c088015160e090980151600080546001600160a01b03191633908117825596519899979895979496939592949391927f8be0079c531659141344cd1fd0a4f28419497f9722a3daafe3b4186f6b6457e0908290a36001600255600380546001600160a01b03998a166001600160a01b0319918216179091556004805498909916978116881790985560058054909816909617909655600893909355600991909155600791909155600f556011919091556010556129ea8061012c6000396000f3fe608060405234801561001057600080fd5b50600436106102535760003560e01c80636b61a19f11610146578063ad1d4a07116100c3578063d5688d8311610087578063d5688d8314610655578063e2bbb15814610672578063e30c397814610695578063e7525ceb1461069d578063ef69b4a8146106a5578063f9258075146106ad57610253565b8063ad1d4a07146105e5578063afffd5b7146105ed578063cab3c392146105f5578063cbd258b514610627578063d49e77cd1461064d57610253565b80638dbb1e3a1161010a5780638dbb1e3a1461052357806393f1a40b14610546578063952c96fb1461058b578063a1066bd414610593578063ab1bbd48146105bf57610253565b80636b61a19f146104b957806376aee295146104c15780638aa28550146104ed5780638d88a90e146104f55780638da5cb5b1461051b57610253565b8063441a3e70116101d45780635312ea8e116101985780635312ea8e146104595780635cce7b351461047657806361cf753b1461047e578063630b5ba11461048657806364482f791461048e57610253565b8063441a3e70146103dd57806348cd4cb1146104005780634e71e0c8146104085780634e9ad15a1461041057806351eb05a61461043c57610253565b80631aed65531161021b5780631aed6553146103235780631eaaa0451461032b5780632e7a3f1e1461035f578063387e971c146103995780633a40799e146103bf57610253565b806302f283be14610258578063078dfbe71461027c578063081e3eda146102b45780631526fe27146102ce57806317caf6f11461031b575b600080fd5b6102606106b5565b604080516001600160a01b039092168252519081900360200190f35b6102b26004803603606081101561029257600080fd5b506001600160a01b038135169060208101351515906040013515156106c4565b005b6102bc6107ee565b60408051918252519081900360200190f35b6102eb600480360360208110156102e457600080fd5b50356107f4565b604080516001600160a01b0390951685526020850193909352838301919091526060830152519081900360800190f35b6102bc610835565b6102bc61083b565b6102b26004803603606081101561034157600080fd5b508035906001600160a01b0360208201351690604001351515610841565b6103856004803603602081101561037557600080fd5b50356001600160a01b0316610b07565b604080519115158252519081900360200190f35b6102b2600480360360208110156103af57600080fd5b50356001600160a01b0316610b1c565b6103c7610bb2565b6040805160ff9092168252519081900360200190f35b6102b2600480360360408110156103f357600080fd5b5080359060200135610bc2565b6102bc610db1565b6102b2610db7565b6102b26004803603604081101561042657600080fd5b50803590602001356001600160a01b0316610e79565b6102b26004803603602081101561045257600080fd5b5035611093565b6102b26004803603602081101561046f57600080fd5b5035611305565b6102b261143a565b6102bc611531565b6102b2611537565b6102b2600480360360608110156104a457600080fd5b50803590602081013590604001351515611556565b6102bc611667565b6102bc600480360360408110156104d757600080fd5b50803590602001356001600160a01b031661166d565b6102bc61181c565b6102b26004803603602081101561050b57600080fd5b50356001600160a01b0316611821565b6102606118a2565b6102bc6004803603604081101561053957600080fd5b50803590602001356118b1565b6105726004803603604081101561055c57600080fd5b50803590602001356001600160a01b031661191d565b6040805192835260208301919091528051918290030190f35b6102b2611941565b6102bc600480360360408110156105a957600080fd5b50803590602001356001600160a01b0316611968565b6102b2600480360360208110156105d557600080fd5b50356001600160a01b03166119df565b610260611a75565b610260611a84565b6102b26004803603606081101561060b57600080fd5b50803590602081013590604001356001600160a01b0316611a93565b6103856004803603602081101561063d57600080fd5b50356001600160a01b0316611d65565b610260611d7a565b6102b26004803603602081101561066b57600080fd5b5035611d89565b6102b26004803603604081101561068857600080fd5b5080359060200135611e2c565b6102606120ab565b6102bc6120ba565b6102b26120c0565b6102bc6121cf565b6006546001600160a01b031681565b6000546001600160a01b03163314610711576040805162461bcd60e51b8152602060048201819052602482015260008051602061296b833981519152604482015290519081900360640190fd5b81156107cd576001600160a01b03831615158061072b5750805b610774576040805162461bcd60e51b81526020600482015260156024820152744f776e61626c653a207a65726f206164647265737360581b604482015290519081900360640190fd5b600080546040516001600160a01b03808716939216917f8be0079c531659141344cd1fd0a4f28419497f9722a3daafe3b4186f6b6457e091a3600080546001600160a01b0319166001600160a01b0385161790556107e9565b600180546001600160a01b0319166001600160a01b0385161790555b505050565b600a5490565b600a818154811061080157fe5b600091825260209091206004909102018054600182015460028301546003909301546001600160a01b039092169350919084565b600e5481565b60075481565b6000546001600160a01b0316331461088e576040805162461bcd60e51b8152602060048201819052602482015260008051602061296b833981519152604482015290519081900360640190fd5b816000816001600160a01b03166370a08231306040518263ffffffff1660e01b815260040180826001600160a01b0316815260200191505060206040518083038186803b1580156108de57600080fd5b505afa92505050801561090357506040513d60208110156108fe57600080fd5b505160015b61090f57506000610915565b50600190505b6001600160a01b0382166000908152600d602052604090205460ff161561096d5760405162461bcd60e51b81526004018080602001828103825260228152602001806129286022913960400191505060405180910390fd5b6001811515146109c4576040805162461bcd60e51b815260206004820152601d60248201527f43616e27742063616c6c2062616c616e63654f662e205265766572742e000000604482015290519081900360640190fd5b82156109d2576109d2611537565b6000600f5443116109e557600f546109e7565b435b600e549091506109f790876121d5565b600e556001600160a01b039485166000818152600d602090815260408083208054600160ff1990911681179091558151608081018352948552918401998a52830193845260608301818152600a8054928301815590925291517fc65a7bb8d6351c1cf70c95a316cc6a92839c986682d98bc35f958f4883f9d2a8600490930292830180546001600160a01b031916919098161790965595517fc65a7bb8d6351c1cf70c95a316cc6a92839c986682d98bc35f958f4883f9d2a9870155517fc65a7bb8d6351c1cf70c95a316cc6a92839c986682d98bc35f958f4883f9d2aa860155505090517fc65a7bb8d6351c1cf70c95a316cc6a92839c986682d98bc35f958f4883f9d2ab9092019190915550565b600c6020526000908152604090205460ff1681565b6006546001600160a01b0316331480610b3f57506004546001600160a01b031633145b610b90576040805162461bcd60e51b815260206004820152601f60248201527f7468652064657620736179733a2041636365737320756e4772616e7465642000604482015290519081900360640190fd5b600680546001600160a01b0319166001600160a01b0392909216919091179055565b600454600160a01b900460ff1681565b600a5482908110610c0c576040805162461bcd60e51b815260206004820152600f60248201526e12539590531251081413d3d3081251608a1b604482015290519081900360640190fd5b600280541415610c51576040805162461bcd60e51b815260206004820152601f602482015260008051602061289d833981519152604482015290519081900360640190fd5b600280819055506000600a8481548110610c6757fe5b60009182526020808320878452600b825260408085203386529092529220805460049092029092019250841115610cda576040805162461bcd60e51b81526020600482015260126024820152711dda5d1a191c985dce881b9bdd0819dbdbd960721b604482015290519081900360640190fd5b610ce385611093565b6000610d1d8260010154610d1764e8d4a51000610d118760030154876000015461223690919063ffffffff16565b9061228f565b906122f6565b9050610d293382612353565b8154610d3590866122f6565b8083556003840154610d529164e8d4a5100091610d119190612236565b60018301558254610d6d906001600160a01b03163387612526565b604080518681529051879133917ff279e6a1f5e320cca91135676d9cb6e44ca8a08c0b88342bcdb1144f6511b5689181900360200190a35050600160025550505050565b600f5481565b6001546001600160a01b0316338114610e17576040805162461bcd60e51b815260206004820181905260248201527f4f776e61626c653a2063616c6c657220213d2070656e64696e67206f776e6572604482015290519081900360640190fd5b600080546040516001600160a01b03808516939216917f8be0079c531659141344cd1fd0a4f28419497f9722a3daafe3b4186f6b6457e091a3600080546001600160a01b039092166001600160a01b0319928316179055600180549091169055565b6005546001600160a01b03163314610e9057600080fd5b600a5482908110610eda576040805162461bcd60e51b815260206004820152600f60248201526e12539590531251081413d3d3081251608a1b604482015290519081900360640190fd5b600280541415610f1f576040805162461bcd60e51b815260206004820152601f602482015260008051602061289d833981519152604482015290519081900360640190fd5b60028081905550600080600a8581548110610f3657fe5b60009182526020808320888452600b825260408085206001600160a01b038a1686529092529220805460049092029092019250831115610fb2576040805162461bcd60e51b81526020600482015260126024820152711dda5d1a191c985dce881b9bdd0819dbdbd960721b604482015290519081900360640190fd5b610fbb86611093565b6000610fe98260010154610d1764e8d4a51000610d118760030154876000015461223690919063ffffffff16565b90508015610ffb57610ffb3382612353565b831561102557815461100d90856122f6565b82558254611025906001600160a01b03163386612526565b600383015482546110409164e8d4a5100091610d1191612236565b600183015560408051858152905188916001600160a01b038916917ff279e6a1f5e320cca91135676d9cb6e44ca8a08c0b88342bcdb1144f6511b5689181900360200190a3505060016002555050505050565b600a54819081106110dd576040805162461bcd60e51b815260206004820152600f60248201526e12539590531251081413d3d3081251608a1b604482015290519081900360640190fd5b6000600a83815481106110ec57fe5b906000526020600020906004020190508060020154431161110d5750611301565b8054604080516370a0823160e01b815230600482015290516000926001600160a01b0316916370a08231916024808301926020929190829003018186803b15801561115757600080fd5b505afa15801561116b573d6000803e3d6000fd5b505050506040513d602081101561118157600080fd5b5051905080611197575043600290910155611301565b60006111a78360020154436118b1565b905060006111d4600e54610d1186600101546111ce6008548761223690919063ffffffff16565b90612236565b6003546004549192506001600160a01b03908116916340c10f1991166111fb84600a61228f565b6040518363ffffffff1660e01b815260040180836001600160a01b0316815260200182815260200192505050600060405180830381600087803b15801561124157600080fd5b505af1158015611255573d6000803e3d6000fd5b5050600354604080516340c10f1960e01b81523060048201526024810186905290516001600160a01b0390921693506340c10f19925060448082019260009290919082900301818387803b1580156112ac57600080fd5b505af11580156112c0573d6000803e3d6000fd5b505050506112ee6112e384610d1164e8d4a510008561223690919063ffffffff16565b6003860154906121d5565b6003850155505043600290920191909155505b5050565b600a548190811061134f576040805162461bcd60e51b815260206004820152600f60248201526e12539590531251081413d3d3081251608a1b604482015290519081900360640190fd5b600280541415611394576040805162461bcd60e51b815260206004820152601f602482015260008051602061289d833981519152604482015290519081900360640190fd5b600280819055506000600a83815481106113aa57fe5b60009182526020808320868452600b825260408085203380875293529093208054600490930290930180549094506113ef926001600160a01b03919091169190612526565b80546040805191825251859133917fbb757047c2b5f3974fe26b7c10f732e7bce710b0952a71082702781e62ae05959181900360200190a36000808255600191820155600255505050565b6000546001600160a01b03163314611487576040805162461bcd60e51b8152602060048201819052602482015260008051602061296b833981519152604482015290519081900360640190fd5b60115460105414156114ca5760405162461bcd60e51b81526004018080602001828103825260238152602001806129056023913960400191505060405180910390fd5b6114e76103e8610d1160095460115461223690919063ffffffff16565b6008819055601154601081905560408051928352602083019190915280517ff84fdc31bbfc176687fb0c295c02db5def2e1e50c89107ab0d4be860a3d1bdd99281900390910190a1565b60105481565b600a5460005b818110156113015761154e81611093565b60010161153d565b6000546001600160a01b031633146115a3576040805162461bcd60e51b8152602060048201819052602482015260008051602061296b833981519152604482015290519081900360640190fd5b600a54839081106115ed576040805162461bcd60e51b815260206004820152600f60248201526e12539590531251081413d3d3081251608a1b604482015290519081900360640190fd5b81156115fb576115fb611537565b61163883611632600a878154811061160f57fe5b906000526020600020906004020160010154600e546122f690919063ffffffff16565b906121d5565b600e8190555082600a858154811061164c57fe5b90600052602060002090600402016001018190555050505050565b60115481565b600a54600090839081106116ba576040805162461bcd60e51b815260206004820152600f60248201526e12539590531251081413d3d3081251608a1b604482015290519081900360640190fd5b6000600a85815481106116c957fe5b60009182526020808320888452600b825260408085206001600160a01b038a8116875290845281862060049586029093016003810154815484516370a0823160e01b81523098810198909852935191985093969395939492909116926370a08231926024808301939192829003018186803b15801561174757600080fd5b505afa15801561175b573d6000803e3d6000fd5b505050506040513d602081101561177157600080fd5b505160028501549091504311801561178857508015155b156117e857600061179d8560020154436118b1565b905060006117c4600e54610d1188600101546111ce6008548761223690919063ffffffff16565b90506117e36117dc84610d118464e8d4a51000612236565b85906121d5565b935050505b6118108360010154610d1764e8d4a51000610d1186886000015461223690919063ffffffff16565b98975050505050505050565b600181565b6004546001600160a01b03163314611880576040805162461bcd60e51b815260206004820152601e60248201527f7468652064657620736179733a2041636365737320756e4772616e7465640000604482015290519081900360640190fd5b600480546001600160a01b0319166001600160a01b0392909216919091179055565b6000546001600160a01b031681565b600060075482116118d2576118cb60016111ce84866122f6565b9050611917565b60075483106118e5576118cb82846122f6565b6118cb6118fd600754846122f690919063ffffffff16565b61163260016111ce876007546122f690919063ffffffff16565b92915050565b600b6020908152600092835260408084209091529082529020805460019091015482565b60005b600a54600019018110156119655761195d816000610bc2565b600101611944565b50565b600a54600090839081106119b5576040805162461bcd60e51b815260206004820152600f60248201526e12539590531251081413d3d3081251608a1b604482015290519081900360640190fd5b50506000918252600b602090815260408084206001600160a01b0393909316845291905290205490565b6005546001600160a01b0316331480611a0257506004546001600160a01b031633145b611a53576040805162461bcd60e51b815260206004820152601f60248201527f7468652064657620736179733a2041636365737320756e4772616e7465642000604482015290519081900360640190fd5b600580546001600160a01b0319166001600160a01b0392909216919091179055565b6003546001600160a01b031681565b6005546001600160a01b031681565b6006546001600160a01b03163314611aaa57600080fd5b600a5483908110611af4576040805162461bcd60e51b815260206004820152600f60248201526e12539590531251081413d3d3081251608a1b604482015290519081900360640190fd5b600280541415611b39576040805162461bcd60e51b815260206004820152601f602482015260008051602061289d833981519152604482015290519081900360640190fd5b600280819055506000600a8581548110611b4f57fe5b60009182526020808320888452600b825260408085206001600160a01b0389168652909252922060049091029091019150611b8986611093565b805415611bd2576000611bbe8260010154610d1764e8d4a51000610d118760030154876000015461223690919063ffffffff16565b90508015611bd057611bd08582612353565b505b8415611d01578154604080516370a0823160e01b815230600482015290516000926001600160a01b0316916370a08231916024808301926020929190829003018186803b158015611c2257600080fd5b505afa158015611c36573d6000803e3d6000fd5b505050506040513d6020811015611c4c57600080fd5b50518354909150611c68906001600160a01b0316333089612578565b8254604080516370a0823160e01b81523060048201529051600092611ced9285926001600160a01b03909216916370a0823191602480820192602092909190829003018186803b158015611cbb57600080fd5b505afa158015611ccf573d6000803e3d6000fd5b505050506040513d6020811015611ce557600080fd5b5051906122f6565b8354909150611cfc90826121d5565b835550505b60038201548154611d1c9164e8d4a5100091610d1191612236565b6001820155604080518681529051879133917f90890809c654f11d6e72a28fa60149770a0d11ec6c92319d6ceb2bb0a4ea1a159181900360200190a35050600160025550505050565b600d6020526000908152604090205460ff1681565b6004546001600160a01b031681565b6000546001600160a01b03163314611dd6576040805162461bcd60e51b8152602060048201819052602482015260008051602061296b833981519152604482015290519081900360640190fd5b806010541415611e175760405162461bcd60e51b81526004018080602001828103825260238152602001806129056023913960400191505060405180910390fd5b611e1f611537565b601181905561196561143a565b600a5482908110611e76576040805162461bcd60e51b815260206004820152600f60248201526e12539590531251081413d3d3081251608a1b604482015290519081900360640190fd5b600280541415611ebb576040805162461bcd60e51b815260206004820152601f602482015260008051602061289d833981519152604482015290519081900360640190fd5b600280819055506000600a8481548110611ed157fe5b60009182526020808320878452600b82526040808520338652909252922060049091029091019150611f0285611093565b805415611f4b576000611f378260010154610d1764e8d4a51000610d118760030154876000015461223690919063ffffffff16565b90508015611f4957611f493382612353565b505b8315612048578154604080516370a0823160e01b815230600482015290516000926001600160a01b0316916370a08231916024808301926020929190829003018186803b158015611f9b57600080fd5b505afa158015611faf573d6000803e3d6000fd5b505050506040513d6020811015611fc557600080fd5b50518354909150611fe1906001600160a01b0316333088612578565b8254604080516370a0823160e01b815230600482015290516000926120349285926001600160a01b03909216916370a0823191602480820192602092909190829003018186803b158015611cbb57600080fd5b835490915061204390826121d5565b835550505b600382015481546120639164e8d4a5100091610d1191612236565b6001820155604080518581529051869133917f90890809c654f11d6e72a28fa60149770a0d11ec6c92319d6ceb2bb0a4ea1a159181900360200190a350506001600255505050565b6001546001600160a01b031681565b60095481565b6000546001600160a01b0316331461210d576040805162461bcd60e51b8152602060048201819052602482015260008051602061296b833981519152604482015290519081900360640190fd5b60045460ff600160a01b90910481161061216e576040805162461bcd60e51b815260206004820152601860248201527f4d61782064657644697669736f722061636869657665642e0000000000000000604482015290519081900360640190fd5b6004805460ff600160a01b80830482166001018216810260ff60a01b199093169290921792839055604080519290930416815290517fee9c626a5ecbf59c6fa35d3ea1ada36622db84d50bcca6e2e2880627f38388739181900360200190a1565b60085481565b60008282018381101561222f576040805162461bcd60e51b815260206004820152601b60248201527f536166654d6174683a206164646974696f6e206f766572666c6f770000000000604482015290519081900360640190fd5b9392505050565b60008261224557506000611917565b8282028284828161225257fe5b041461222f5760405162461bcd60e51b815260040180806020018281038252602181526020018061294a6021913960400191505060405180910390fd5b60008082116122e5576040805162461bcd60e51b815260206004820152601a60248201527f536166654d6174683a206469766973696f6e206279207a65726f000000000000604482015290519081900360640190fd5b8183816122ee57fe5b049392505050565b60008282111561234d576040805162461bcd60e51b815260206004820152601e60248201527f536166654d6174683a207375627472616374696f6e206f766572666c6f770000604482015290519081900360640190fd5b50900390565b600354604080516370a0823160e01b815230600482015290516000926001600160a01b0316916370a08231916024808301926020929190829003018186803b15801561239e57600080fd5b505afa1580156123b2573d6000803e3d6000fd5b505050506040513d60208110156123c857600080fd5b5051905060008183111561245f576003546040805163a9059cbb60e01b81526001600160a01b038781166004830152602482018690529151919092169163a9059cbb9160448083019260209291908290030181600087803b15801561242c57600080fd5b505af1158015612440573d6000803e3d6000fd5b505050506040513d602081101561245657600080fd5b505190506124e4565b6003546040805163a9059cbb60e01b81526001600160a01b038781166004830152602482018790529151919092169163a9059cbb9160448083019260209291908290030181600087803b1580156124b557600080fd5b505af11580156124c9573d6000803e3d6000fd5b505050506040513d60208110156124df57600080fd5b505190505b806125205760405162461bcd60e51b81526004018080602001828103825260228152602001806128e36022913960400191505060405180910390fd5b50505050565b604080516001600160a01b038416602482015260448082018490528251808303909101815260649091019091526020810180516001600160e01b031663a9059cbb60e01b1790526107e99084906125ce565b604080516001600160a01b0380861660248301528416604482015260648082018490528251808303909101815260849091019091526020810180516001600160e01b03166323b872dd60e01b1790526125209085905b6060612623826040518060400160405280602081526020017f5361666545524332303a206c6f772d6c6576656c2063616c6c206661696c6564815250856001600160a01b031661267f9092919063ffffffff16565b8051909150156107e95780806020019051602081101561264257600080fd5b50516107e95760405162461bcd60e51b815260040180806020018281038252602a81526020018061298b602a913960400191505060405180910390fd5b606061268e8484600085612696565b949350505050565b6060824710156126d75760405162461bcd60e51b81526004018080602001828103825260268152602001806128bd6026913960400191505060405180910390fd5b6126e0856127f2565b612731576040805162461bcd60e51b815260206004820152601d60248201527f416464726573733a2063616c6c20746f206e6f6e2d636f6e7472616374000000604482015290519081900360640190fd5b60006060866001600160a01b031685876040518082805190602001908083835b602083106127705780518252601f199092019160209182019101612751565b6001836020036101000a03801982511681845116808217855250505050505090500191505060006040518083038185875af1925050503d80600081146127d2576040519150601f19603f3d011682016040523d82523d6000602084013e6127d7565b606091505b50915091506127e78282866127f8565b979650505050505050565b3b151590565b6060831561280757508161222f565b8251156128175782518084602001fd5b8160405162461bcd60e51b81526004018080602001828103825283818151815260200191508051906020019080838360005b83811015612861578181015183820152602001612849565b50505050905090810190601f16801561288e5780820380516001836020036101000a031916815260200191505b509250505060405180910390fdfe5265656e7472616e637947756172643a207265656e7472616e742063616c6c00416464726573733a20696e73756666696369656e742062616c616e636520666f722063616c6c73616665546f6b656e5472616e736665723a207472616e73666572206661696c65644f70656e53776170203a20426c6f636b74696d65206861736e2774206368616e67656443616e742061646420616e20616c7265616479206578697374696e67204661726d2e536166654d6174683a206d756c7469706c69636174696f6e206f766572666c6f774f776e61626c653a2063616c6c6572206973206e6f7420746865206f776e65725361666545524332303a204552433230206f7065726174696f6e20646964206e6f742073756363656564a2646970667358221220db3bc1ed6ea5c8ff0fd9fc816fa246c02cf13026260113156a0591f5576db1bd64736f6c634300060c0033",
  "immutableReferences": {},
  "source": "// SPDX-License-Identifier: MIT\n\npragma solidity 0.6.12;\n\nimport \"@openzeppelin/contracts/token/ERC20/IERC20.sol\";\nimport \"@openzeppelin/contracts/token/ERC20/SafeERC20.sol\";\nimport \"@openzeppelin/contracts/utils/EnumerableSet.sol\";\nimport \"@openzeppelin/contracts/utils/ReentrancyGuard.sol\";\n\nimport \"@openzeppelin/contracts/math/SafeMath.sol\";\nimport \"./Ownable.sol\";\nimport \"./OpenSwapToken.sol\";\n\n\n\n// MasterChef is the master of Sushi. He can make Sushi and he is a fair guy.\n//\n// Note that it's ownable and the owner wields tremendous power. The ownership\n// will be transferred to a governance smart contract once OpenSwap is sufficiently\n// distributed and the community can show to govern itself.\n//\n// Have fun reading it. Hopefully it's bug-free. God bless.\ncontract MasterChef is Ownable, ReentrancyGuard {\n    using SafeMath for uint256;\n    using SafeERC20 for IERC20;\n    // Info of each user.\n    struct UserInfo {\n        uint256 amount; // How many LP tokens the user has provided.\n        uint256 rewardDebt; // Reward debt. See explanation below.\n        //\n        // We do some fancy math here. Basically, any point in time, the amount of SUSHIs\n        // entitled to a user but is pending to be distributed is:\n        //\n        //   pending reward = (user.amount * pool.accOpenSwapPerShare) - user.rewardDebt\n        //\n        // Whenever a user deposits or withdraws LP tokens to a pool. Here's what happens:\n        //   1. The pool's `accOpenSwapPerShare` (and `lastRewardBlock`) gets updated.\n        //   2. User receives the pending reward sent to his/her address.\n        //   3. User's `amount` gets updated.\n        //   4. User's `rewardDebt` gets updated.\n    }\n    // Info of each pool.\n    struct PoolInfo {\n        IERC20 lpToken; // Address of LP token contract.\n        uint256 allocPoint; // How many allocation points assigned to this pool. SUSHIs to distribute per block.\n        uint256 lastRewardBlock; // Last block number that SUSHIs distribution occurs.\n        uint256 accOpenSwapPerShare; // Accumulated SUSHIs per share, times 1e12. See below.\n    }\n\n    // The OpenSwap TOKEN!\n    OpenSwapToken public OpenSwap;\n    // Dev address.\n    address public devaddr;\n    //Dev mint devisor, can only be increased, reducing percentage.\n    uint8 public devDivisor = 8; // 8 == 12.5% // 9 == 11% // 10 == 10%  // 11 == 9%\n    // Reward collector address for blocktime change\n    address public rewardCollector;\n    // LP Depositor address for blocktime change\n    address public lpDepositor;\n    // Block number when bonus OpenSwap period ends.\n    uint256 public bonusEndBlock;\n    // OpenSwap tokens created per block.\n    uint256 public OpenSwapPerBlock;\n    //Amount of sushis per Second\n    uint256 public OpenSwapPerSecond;\n    // Bonus muliplier for early OpenSwap makers.\n    uint256 public constant BONUS_MULTIPLIER = 1;\n    // Info of each pool.\n    PoolInfo[] public poolInfo;\n    // Info of each user that stakes LP tokens.\n    mapping(uint256 => mapping(address => UserInfo)) public userInfo;\n    // Mapping to know if the User has been added to the registry\n    mapping(address => bool) public isUserRegisty;\n    //Mapping to check if farm exists\n    mapping(IERC20 => bool) public poolExistence;\n    // Total allocation poitns. Must be the sum of all allocation points in all pools.\n    uint256 public totalAllocPoint = 0;\n    // The block number when OpenSwap mining starts.\n    uint256 public startBlock;\n    // Last Blocktime in Milliseconds\n    uint256 public lastBlocktime;\n    // Current Blocktime in Milliseconds\n    uint256 public currentBlocktime;\n\n    event DevFundLowered(uint8 currentAmount);\n    event Deposit(address indexed user, uint256 indexed pid, uint256 amount);\n    event RewardChange(uint256 OpenSwapPerBlock, uint256 Blocktime);\n    event Withdraw(address indexed user, uint256 indexed pid, uint256 amount);\n    event EmergencyWithdraw(\n        address indexed user,\n        uint256 indexed pid,\n        uint256 amount\n    );\n\n    modifier onlyCollector {\n      require(msg.sender == rewardCollector);\n      _;\n   }\n\n   modifier onlyDepositor {\n      require(msg.sender == lpDepositor);\n      _;\n   }\n\n   modifier validPID(uint256 _pid){\n    require(_pid < poolInfo.length, \"INVALID POOL ID\");\n    _;\n   }\n\n    modifier nonDuplicateAndValid(IERC20 _lpToken) {       \n        bool isToken = false; \n        try _lpToken.balanceOf(address(this)){\n            isToken = true;\n        } catch {\n            isToken = false;\n        }\n        require(poolExistence[_lpToken] == false, \"Cant add an already existing Farm.\");\n        require(isToken == true, \"Can't call balanceOf. Revert.\");\n        _;\n    }\n\n    constructor(\n        OpenSwapToken _sushi,\n        address _devaddr,\n        uint256 _sushiPerBlock,\n        uint256 _sushiPerSecond,\n        uint256 _startBlock,\n        uint256 _bonusEndBlock,\n        uint256 _currentBlocktime,\n        uint256 _lastBlocktime\n    ) public {\n        OpenSwap = _sushi;\n        devaddr = _devaddr;\n        rewardCollector = _devaddr;\n        OpenSwapPerBlock = _sushiPerBlock;\n        OpenSwapPerSecond = _sushiPerSecond;\n        bonusEndBlock = _bonusEndBlock;\n        startBlock = _startBlock;\n        currentBlocktime = _currentBlocktime;\n        lastBlocktime = _lastBlocktime;\n    }\n\n    function poolLength() external view returns (uint256) {\n        return poolInfo.length;\n    }\n    //Changes rewards per block in Case an eventual Change in Harmony BlockTime\n    function updateBlockIssuanceWithBlocktime()\n        public onlyOwner {\n        require(lastBlocktime != currentBlocktime , \"OpenSwap : Blocktime hasn't changed\");\n        OpenSwapPerBlock = currentBlocktime.mul(OpenSwapPerSecond).div(1000);\n        lastBlocktime = currentBlocktime;\n        emit RewardChange(OpenSwapPerBlock, currentBlocktime);\n    }\n\n    //Changes the Blocktime Parameter and updates the Rewards per Block\n    function changeBlocktime(uint _currentBlocktime)\n        public onlyOwner {\n        require(lastBlocktime != _currentBlocktime , \"OpenSwap : Blocktime hasn't changed\");\n        \n        massUpdatePools();\n\n        currentBlocktime = _currentBlocktime;\n        updateBlockIssuanceWithBlocktime();\n        \n    }\n\n    // Add a new lp to the pool. Can only be called by the owner.\n    // XXX DO NOT add the same LP token more than once. Rewards will be messed up if you do.\n    function add(\n        uint256 _allocPoint,\n        IERC20 _lpToken,\n        bool _withUpdate\n    ) public onlyOwner nonDuplicateAndValid(_lpToken) {\n        if (_withUpdate) {\n            massUpdatePools();\n        }\n        uint256 lastRewardBlock =\n            block.number > startBlock ? block.number : startBlock;\n        totalAllocPoint = totalAllocPoint.add(_allocPoint);\n        poolExistence[_lpToken] = true;\n        poolInfo.push(\n            PoolInfo({\n                lpToken: _lpToken,\n                allocPoint: _allocPoint,\n                lastRewardBlock: lastRewardBlock,\n                accOpenSwapPerShare: 1\n            })\n        );\n    }\n\n    // Update the given pool's OpenSwap allocation point. Can only be called by the owner.\n    function set(\n        uint256 _pid,\n        uint256 _allocPoint,\n        bool _withUpdate\n    ) public onlyOwner validPID(_pid){\n        if (_withUpdate) {\n            massUpdatePools();\n        }\n        totalAllocPoint = totalAllocPoint.sub(poolInfo[_pid].allocPoint).add(\n            _allocPoint\n        );\n        poolInfo[_pid].allocPoint = _allocPoint;\n    }\n\n\n    // Return reward multiplier over the given _from to _to block.\n    function getMultiplier(uint256 _from, uint256 _to)\n        public\n        view\n        returns (uint256)\n    {\n        if (_to <= bonusEndBlock) {\n            return _to.sub(_from).mul(BONUS_MULTIPLIER);\n        } else if (_from >= bonusEndBlock) {\n            return _to.sub(_from);\n        } else {\n            return\n                bonusEndBlock.sub(_from).mul(BONUS_MULTIPLIER).add(\n                    _to.sub(bonusEndBlock)\n                );\n        }\n    }\n\n    // View function to see pending SUSHIs on frontend.\n    function pendingOpenSwap(uint256 _pid, address _user)\n        external\n        view\n        validPID(_pid)\n        returns (uint256)\n        {\n        PoolInfo storage pool = poolInfo[_pid];\n        UserInfo storage user = userInfo[_pid][_user];\n        uint256 accOpenSwapPerShare = pool.accOpenSwapPerShare;\n        uint256 lpSupply = pool.lpToken.balanceOf(address(this));\n        if (block.number > pool.lastRewardBlock && lpSupply != 0) {\n            uint256 multiplier =\n                getMultiplier(pool.lastRewardBlock, block.number);\n            uint256 OpenSwapReward =\n                multiplier.mul(OpenSwapPerBlock).mul(pool.allocPoint).div(\n                    totalAllocPoint\n                );\n            accOpenSwapPerShare = accOpenSwapPerShare.add(\n                OpenSwapReward.mul(1e12).div(lpSupply)\n            );\n        }\n        return user.amount.mul(accOpenSwapPerShare).div(1e12).sub(user.rewardDebt);\n    }\n    function amountStaked(uint256 _pid, address _user)\n        external\n        view\n        validPID(_pid)\n        returns (uint256)\n    {\n        UserInfo storage user = userInfo[_pid][_user];\n        return user.amount;\n\n    }\n\n    // Update reward vairables for all pools. Be careful of gas spending!\n    function massUpdatePools() public {\n        uint256 length = poolInfo.length;\n        for (uint256 pid = 0; pid < length; ++pid) {\n            updatePool(pid);\n        }\n    }\n\n    // Update reward variables of the given pool to be up-to-date.\n    function updatePool(uint256 _pid) public validPID(_pid) {\n        PoolInfo storage pool = poolInfo[_pid];\n        if (block.number <= pool.lastRewardBlock) {\n            return;\n        }\n        uint256 lpSupply = pool.lpToken.balanceOf(address(this));\n        if (lpSupply == 0) {\n            pool.lastRewardBlock = block.number;\n            return;\n        }\n        uint256 multiplier = getMultiplier(pool.lastRewardBlock, block.number);\n        uint256 OpenSwapReward =\n            multiplier.mul(OpenSwapPerBlock).mul(pool.allocPoint).div(\n                totalAllocPoint\n            );\n        OpenSwap.mint(devaddr, OpenSwapReward.div(10));\n        OpenSwap.mint(address(this), OpenSwapReward);\n        pool.accOpenSwapPerShare = pool.accOpenSwapPerShare.add(\n            OpenSwapReward.mul(1e12).div(lpSupply)\n        );\n        pool.lastRewardBlock = block.number;\n    }\n\n    // Deposit LP tokens to MasterChef for OpenSwap allocation.\n    function deposit(uint256 _pid, uint256 _amount) public validPID(_pid) nonReentrant {\n        PoolInfo storage pool = poolInfo[_pid];\n        UserInfo storage user = userInfo[_pid][msg.sender];\n        updatePool(_pid);\n\n        if (user.amount > 0) {\n            uint256 pending = user.amount.mul(pool.accOpenSwapPerShare).div(1e12).sub(user.rewardDebt);\n            if (pending > 0) {\n                safeTokenTransfer(msg.sender, pending);\n            }\n        }\n\n        if (_amount > 0) {\n            uint256 balanceBefore = pool.lpToken.balanceOf(address(this));\n            pool.lpToken.safeTransferFrom(address(msg.sender), address(this), _amount);\n            uint256 finalAmount = pool.lpToken.balanceOf(address(this)).sub(balanceBefore);\n            user.amount = user.amount.add(finalAmount);\n        }\n        \n        user.rewardDebt = user.amount.mul(pool.accOpenSwapPerShare).div(1e12);\n        emit Deposit(msg.sender, _pid, _amount);\n    }\n\n    // ext deposit is to be called by a contract that must have the lp tokens. it will credit the account passed in as _user\n    // allows 1 click deposit and stake of LP.\n    // it also collects and send the user's farm rewards to his wallet.\n    // does NOT transfer _user LP tokens.\n    function extDeposit(uint256 _pid, uint256 _amount, address _user) public onlyDepositor validPID(_pid) nonReentrant {\n        PoolInfo storage pool = poolInfo[_pid];\n        UserInfo storage user = userInfo[_pid][_user];//gets the user info passed in as parameter\n        updatePool(_pid);\n\n        if (user.amount > 0) {\n            uint256 pending = user.amount.mul(pool.accOpenSwapPerShare).div(1e12).sub(user.rewardDebt);\n            if (pending > 0) {\n                safeTokenTransfer(_user, pending); //Send rewards to _user not msg.sender\n            }\n        }\n\n        if (_amount > 0) {\n            uint256 balanceBefore = pool.lpToken.balanceOf(address(this));\n\n            //does not take _user but msg.sender to take the LP tokens\n            pool.lpToken.safeTransferFrom(address(msg.sender), address(this), _amount);\n            uint256 finalAmount = pool.lpToken.balanceOf(address(this)).sub(balanceBefore);\n            user.amount = user.amount.add(finalAmount);\n        }\n        \n        user.rewardDebt = user.amount.mul(pool.accOpenSwapPerShare).div(1e12);\n        emit Deposit(msg.sender, _pid, _amount);\n    }\n\n    // Withdraw LP tokens from MasterChef.\n    function withdraw(uint256 _pid, uint256 _amount) public validPID(_pid) nonReentrant{\n        PoolInfo storage pool = poolInfo[_pid];\n        UserInfo storage user = userInfo[_pid][msg.sender];\n        require(user.amount >= _amount, \"withdraw: not good\");\n        updatePool(_pid);\n        uint256 pending =\n            user.amount.mul(pool.accOpenSwapPerShare).div(1e12).sub(\n                user.rewardDebt\n            );\n        safeTokenTransfer(msg.sender, pending);\n        user.amount = user.amount.sub(_amount);\n        user.rewardDebt = user.amount.mul(pool.accOpenSwapPerShare).div(1e12);\n        pool.lpToken.safeTransfer(address(msg.sender), _amount);\n        emit Withdraw(msg.sender, _pid, _amount);\n    }\n\n    //Withdraw users Openswap token by Collector address. Allows some flexibility to the dev.\n    //Does not withdraw LPs\n    function extWithdraw(uint256 _pid, address _user)\n    public onlyCollector validPID(_pid) nonReentrant{\n        uint256 _amount = 0; //HardCoded 0 Amount: Withdraw only Openswap tokens and not LP tokens\n        PoolInfo storage pool = poolInfo[_pid];\n        UserInfo storage user = userInfo[_pid][_user];\n        require(user.amount >= _amount, \"withdraw: not good\");\n        updatePool(_pid);\n        uint256 pending =\n            user.amount.mul(pool.accOpenSwapPerShare).div(1e12).sub(\n                user.rewardDebt\n            );\n\n        if (pending > 0) {\n            safeTokenTransfer(msg.sender, pending);\n        }\n        if (_amount > 0) {\n            user.amount = user.amount.sub(_amount);           \n            pool.lpToken.safeTransfer(address(msg.sender), _amount);\n        }\n\n        user.rewardDebt = user.amount.mul(pool.accOpenSwapPerShare).div(1e12);\n        emit Withdraw(_user, _pid, _amount);\n    }\n\n    function collectAll() public {\n        for (uint256 i = 0; i < poolInfo.length-1 ; i++) {\n          withdraw(i, 0);\n        }\n    }\n\n    // Withdraw without caring about rewards. EMERGENCY ONLY.\n    function emergencyWithdraw(uint256 _pid) public validPID(_pid) nonReentrant {\n        PoolInfo storage pool = poolInfo[_pid];\n        UserInfo storage user = userInfo[_pid][msg.sender];\n        pool.lpToken.safeTransfer(address(msg.sender), user.amount);\n        emit EmergencyWithdraw(msg.sender, _pid, user.amount);\n        user.amount = 0;\n        user.rewardDebt = 0;\n    }\n\n    // Safe OpenSwap transfer function, just in case if rounding error causes pool to not have enough SUSHIs.\n    function safeTokenTransfer(address _to, uint256 _amount) internal {\n        uint256 tokenBal = OpenSwap.balanceOf(address(this));\n        bool transferSuccess = false;\n        if (_amount > tokenBal) {\n            transferSuccess = OpenSwap.transfer(_to, tokenBal);\n        } else {\n            transferSuccess = OpenSwap.transfer(_to, _amount);\n        }\n        require(transferSuccess, \"safeTokenTransfer: transfer failed\");\n    }\n\n    function lowerDevFund() public onlyOwner{\n        require(devDivisor < 255, 'Max devDivisor achieved.'); // prevents overflow\n        devDivisor += 1;\n        emit DevFundLowered(devDivisor);\n    }\n\n    // Update dev address by the previous dev.\n    function dev(address _devaddr) public {\n        require(msg.sender == devaddr, \"the dev says: Access unGranted\");\n        devaddr = _devaddr;\n    }\n\n    function collector(address _collectoraddr) public {\n        require(msg.sender == rewardCollector || msg.sender == devaddr, \"the dev says: Access unGranted \");\n        rewardCollector = _collectoraddr;\n    }\n\n\n    function depositor(address _depositoraddr) public {\n        require(msg.sender == lpDepositor|| msg.sender == devaddr, \"the dev says: Access unGranted \");\n        lpDepositor = _depositoraddr;\n    }\n}\n",
  "sourcePath": "/home/alex/dev/openswapv2/contracts/MasterChef.sol",
  "compiler": {
    "name": "solc",
    "version": "0.6.12+commit.27d51765.Emscripten.clang"
  },
  "schemaVersion": "3.4.3",
  "updatedAt": "2021-10-15T09:49:55.921Z",
  "devdoc": {
    "kind": "dev",
    "methods": {},
    "version": 1
  },
  "userdoc": {
    "kind": "user",
    "methods": {},
    "version": 1
  }
}