{
  "contractName": "MasterChef",
  "abi": [
    {
      "inputs": [
        {
          "internalType": "contract OpenSwapToken",
          "name": "_sushi",
          "type": "address"
        },
        {
          "internalType": "address",
          "name": "_devaddr",
          "type": "address"
        },
        {
          "internalType": "uint256",
          "name": "_sushiPerBlock",
          "type": "uint256"
        },
        {
          "internalType": "uint256",
          "name": "_sushiPerSecond",
          "type": "uint256"
        },
        {
          "internalType": "uint256",
          "name": "_startBlock",
          "type": "uint256"
        },
        {
          "internalType": "uint256",
          "name": "_bonusEndBlock",
          "type": "uint256"
        },
        {
          "internalType": "uint256",
          "name": "_currentBlocktime",
          "type": "uint256"
        },
        {
          "internalType": "uint256",
          "name": "_lastBlocktime",
          "type": "uint256"
        }
      ],
      "stateMutability": "nonpayable",
      "type": "constructor"
    },
    {
      "anonymous": false,
      "inputs": [
        {
          "indexed": true,
          "internalType": "address",
          "name": "user",
          "type": "address"
        },
        {
          "indexed": true,
          "internalType": "uint256",
          "name": "pid",
          "type": "uint256"
        },
        {
          "indexed": false,
          "internalType": "uint256",
          "name": "amount",
          "type": "uint256"
        }
      ],
      "name": "Deposit",
      "type": "event"
    },
    {
      "anonymous": false,
      "inputs": [
        {
          "indexed": true,
          "internalType": "address",
          "name": "user",
          "type": "address"
        },
        {
          "indexed": true,
          "internalType": "uint256",
          "name": "pid",
          "type": "uint256"
        },
        {
          "indexed": false,
          "internalType": "uint256",
          "name": "amount",
          "type": "uint256"
        }
      ],
      "name": "EmergencyWithdraw",
      "type": "event"
    },
    {
      "anonymous": false,
      "inputs": [
        {
          "indexed": true,
          "internalType": "address",
          "name": "previousOwner",
          "type": "address"
        },
        {
          "indexed": true,
          "internalType": "address",
          "name": "newOwner",
          "type": "address"
        }
      ],
      "name": "OwnershipTransferred",
      "type": "event"
    },
    {
      "anonymous": false,
      "inputs": [
        {
          "indexed": false,
          "internalType": "uint256",
          "name": "OpenSwapPerBlock",
          "type": "uint256"
        },
        {
          "indexed": false,
          "internalType": "uint256",
          "name": "Blocktime",
          "type": "uint256"
        }
      ],
      "name": "RewardChange",
      "type": "event"
    },
    {
      "anonymous": false,
      "inputs": [
        {
          "indexed": true,
          "internalType": "address",
          "name": "user",
          "type": "address"
        },
        {
          "indexed": true,
          "internalType": "uint256",
          "name": "pid",
          "type": "uint256"
        },
        {
          "indexed": false,
          "internalType": "uint256",
          "name": "amount",
          "type": "uint256"
        }
      ],
      "name": "Withdraw",
      "type": "event"
    },
    {
      "inputs": [],
      "name": "BONUS_MULTIPLIER",
      "outputs": [
        {
          "internalType": "uint256",
          "name": "",
          "type": "uint256"
        }
      ],
      "stateMutability": "view",
      "type": "function",
      "constant": true
    },
    {
      "inputs": [],
      "name": "OpenSwap",
      "outputs": [
        {
          "internalType": "contract OpenSwapToken",
          "name": "",
          "type": "address"
        }
      ],
      "stateMutability": "view",
      "type": "function",
      "constant": true
    },
    {
      "inputs": [],
      "name": "OpenSwapPerBlock",
      "outputs": [
        {
          "internalType": "uint256",
          "name": "",
          "type": "uint256"
        }
      ],
      "stateMutability": "view",
      "type": "function",
      "constant": true
    },
    {
      "inputs": [],
      "name": "OpenSwapPerSecond",
      "outputs": [
        {
          "internalType": "uint256",
          "name": "",
          "type": "uint256"
        }
      ],
      "stateMutability": "view",
      "type": "function",
      "constant": true
    },
    {
      "inputs": [],
      "name": "bonusEndBlock",
      "outputs": [
        {
          "internalType": "uint256",
          "name": "",
          "type": "uint256"
        }
      ],
      "stateMutability": "view",
      "type": "function",
      "constant": true
    },
    {
      "inputs": [],
      "name": "claimOwnership",
      "outputs": [],
      "stateMutability": "nonpayable",
      "type": "function"
    },
    {
      "inputs": [],
      "name": "currentBlocktime",
      "outputs": [
        {
          "internalType": "uint256",
          "name": "",
          "type": "uint256"
        }
      ],
      "stateMutability": "view",
      "type": "function",
      "constant": true
    },
    {
      "inputs": [],
      "name": "devaddr",
      "outputs": [
        {
          "internalType": "address",
          "name": "",
          "type": "address"
        }
      ],
      "stateMutability": "view",
      "type": "function",
      "constant": true
    },
    {
      "inputs": [
        {
          "internalType": "address",
          "name": "",
          "type": "address"
        }
      ],
      "name": "isUserRegisty",
      "outputs": [
        {
          "internalType": "bool",
          "name": "",
          "type": "bool"
        }
      ],
      "stateMutability": "view",
      "type": "function",
      "constant": true
    },
    {
      "inputs": [],
      "name": "lastBlocktime",
      "outputs": [
        {
          "internalType": "uint256",
          "name": "",
          "type": "uint256"
        }
      ],
      "stateMutability": "view",
      "type": "function",
      "constant": true
    },
    {
      "inputs": [],
      "name": "lpDepositor",
      "outputs": [
        {
          "internalType": "address",
          "name": "",
          "type": "address"
        }
      ],
      "stateMutability": "view",
      "type": "function",
      "constant": true
    },
    {
      "inputs": [],
      "name": "owner",
      "outputs": [
        {
          "internalType": "address",
          "name": "",
          "type": "address"
        }
      ],
      "stateMutability": "view",
      "type": "function",
      "constant": true
    },
    {
      "inputs": [],
      "name": "pendingOwner",
      "outputs": [
        {
          "internalType": "address",
          "name": "",
          "type": "address"
        }
      ],
      "stateMutability": "view",
      "type": "function",
      "constant": true
    },
    {
      "inputs": [
        {
          "internalType": "contract IERC20",
          "name": "",
          "type": "address"
        }
      ],
      "name": "poolExistence",
      "outputs": [
        {
          "internalType": "bool",
          "name": "",
          "type": "bool"
        }
      ],
      "stateMutability": "view",
      "type": "function",
      "constant": true
    },
    {
      "inputs": [
        {
          "internalType": "uint256",
          "name": "",
          "type": "uint256"
        }
      ],
      "name": "poolInfo",
      "outputs": [
        {
          "internalType": "contract IERC20",
          "name": "lpToken",
          "type": "address"
        },
        {
          "internalType": "uint256",
          "name": "allocPoint",
          "type": "uint256"
        },
        {
          "internalType": "uint256",
          "name": "lastRewardBlock",
          "type": "uint256"
        },
        {
          "internalType": "uint256",
          "name": "accOpenSwapPerShare",
          "type": "uint256"
        }
      ],
      "stateMutability": "view",
      "type": "function",
      "constant": true
    },
    {
      "inputs": [],
      "name": "rewardCollector",
      "outputs": [
        {
          "internalType": "address",
          "name": "",
          "type": "address"
        }
      ],
      "stateMutability": "view",
      "type": "function",
      "constant": true
    },
    {
      "inputs": [],
      "name": "startBlock",
      "outputs": [
        {
          "internalType": "uint256",
          "name": "",
          "type": "uint256"
        }
      ],
      "stateMutability": "view",
      "type": "function",
      "constant": true
    },
    {
      "inputs": [],
      "name": "totalAllocPoint",
      "outputs": [
        {
          "internalType": "uint256",
          "name": "",
          "type": "uint256"
        }
      ],
      "stateMutability": "view",
      "type": "function",
      "constant": true
    },
    {
      "inputs": [
        {
          "internalType": "address",
          "name": "newOwner",
          "type": "address"
        },
        {
          "internalType": "bool",
          "name": "direct",
          "type": "bool"
        },
        {
          "internalType": "bool",
          "name": "renounce",
          "type": "bool"
        }
      ],
      "name": "transferOwnership",
      "outputs": [],
      "stateMutability": "nonpayable",
      "type": "function"
    },
    {
      "inputs": [
        {
          "internalType": "uint256",
          "name": "",
          "type": "uint256"
        },
        {
          "internalType": "address",
          "name": "",
          "type": "address"
        }
      ],
      "name": "userInfo",
      "outputs": [
        {
          "internalType": "uint256",
          "name": "amount",
          "type": "uint256"
        },
        {
          "internalType": "uint256",
          "name": "rewardDebt",
          "type": "uint256"
        }
      ],
      "stateMutability": "view",
      "type": "function",
      "constant": true
    },
    {
      "inputs": [
        {
          "internalType": "uint256",
          "name": "",
          "type": "uint256"
        }
      ],
      "name": "userRegistry",
      "outputs": [
        {
          "internalType": "address",
          "name": "",
          "type": "address"
        }
      ],
      "stateMutability": "view",
      "type": "function",
      "constant": true
    },
    {
      "inputs": [],
      "name": "poolLength",
      "outputs": [
        {
          "internalType": "uint256",
          "name": "",
          "type": "uint256"
        }
      ],
      "stateMutability": "view",
      "type": "function",
      "constant": true
    },
    {
      "inputs": [],
      "name": "updateBlockIssuanceWithBlocktime",
      "outputs": [],
      "stateMutability": "nonpayable",
      "type": "function"
    },
    {
      "inputs": [
        {
          "internalType": "uint256",
          "name": "_currentBlocktime",
          "type": "uint256"
        }
      ],
      "name": "changeBlocktime",
      "outputs": [],
      "stateMutability": "nonpayable",
      "type": "function"
    },
    {
      "inputs": [
        {
          "internalType": "uint256",
          "name": "_allocPoint",
          "type": "uint256"
        },
        {
          "internalType": "contract IERC20",
          "name": "_lpToken",
          "type": "address"
        },
        {
          "internalType": "bool",
          "name": "_withUpdate",
          "type": "bool"
        }
      ],
      "name": "add",
      "outputs": [],
      "stateMutability": "nonpayable",
      "type": "function"
    },
    {
      "inputs": [
        {
          "internalType": "uint256",
          "name": "_pid",
          "type": "uint256"
        },
        {
          "internalType": "uint256",
          "name": "_allocPoint",
          "type": "uint256"
        },
        {
          "internalType": "bool",
          "name": "_withUpdate",
          "type": "bool"
        }
      ],
      "name": "set",
      "outputs": [],
      "stateMutability": "nonpayable",
      "type": "function"
    },
    {
      "inputs": [
        {
          "internalType": "uint256",
          "name": "_from",
          "type": "uint256"
        },
        {
          "internalType": "uint256",
          "name": "_to",
          "type": "uint256"
        }
      ],
      "name": "getMultiplier",
      "outputs": [
        {
          "internalType": "uint256",
          "name": "",
          "type": "uint256"
        }
      ],
      "stateMutability": "view",
      "type": "function",
      "constant": true
    },
    {
      "inputs": [
        {
          "internalType": "uint256",
          "name": "_pid",
          "type": "uint256"
        },
        {
          "internalType": "address",
          "name": "_user",
          "type": "address"
        }
      ],
      "name": "pendingOpenSwap",
      "outputs": [
        {
          "internalType": "uint256",
          "name": "",
          "type": "uint256"
        }
      ],
      "stateMutability": "view",
      "type": "function",
      "constant": true
    },
    {
      "inputs": [
        {
          "internalType": "uint256",
          "name": "_pid",
          "type": "uint256"
        },
        {
          "internalType": "address",
          "name": "_user",
          "type": "address"
        }
      ],
      "name": "amountStaked",
      "outputs": [
        {
          "internalType": "uint256",
          "name": "",
          "type": "uint256"
        }
      ],
      "stateMutability": "view",
      "type": "function",
      "constant": true
    },
    {
      "inputs": [],
      "name": "massUpdatePools",
      "outputs": [],
      "stateMutability": "nonpayable",
      "type": "function"
    },
    {
      "inputs": [
        {
          "internalType": "uint256",
          "name": "_pid",
          "type": "uint256"
        }
      ],
      "name": "updatePool",
      "outputs": [],
      "stateMutability": "nonpayable",
      "type": "function"
    },
    {
      "inputs": [
        {
          "internalType": "uint256",
          "name": "_pid",
          "type": "uint256"
        },
        {
          "internalType": "uint256",
          "name": "_amount",
          "type": "uint256"
        }
      ],
      "name": "deposit",
      "outputs": [],
      "stateMutability": "nonpayable",
      "type": "function"
    },
    {
      "inputs": [
        {
          "internalType": "uint256",
          "name": "_pid",
          "type": "uint256"
        },
        {
          "internalType": "uint256",
          "name": "_amount",
          "type": "uint256"
        },
        {
          "internalType": "address",
          "name": "_user",
          "type": "address"
        }
      ],
      "name": "extDeposit",
      "outputs": [],
      "stateMutability": "nonpayable",
      "type": "function"
    },
    {
      "inputs": [
        {
          "internalType": "uint256",
          "name": "_pid",
          "type": "uint256"
        },
        {
          "internalType": "uint256",
          "name": "_amount",
          "type": "uint256"
        }
      ],
      "name": "withdraw",
      "outputs": [],
      "stateMutability": "nonpayable",
      "type": "function"
    },
    {
      "inputs": [
        {
          "internalType": "uint256",
          "name": "_pid",
          "type": "uint256"
        },
        {
          "internalType": "address",
          "name": "_user",
          "type": "address"
        }
      ],
      "name": "extWithdraw",
      "outputs": [],
      "stateMutability": "nonpayable",
      "type": "function"
    },
    {
      "inputs": [
        {
          "internalType": "uint256",
          "name": "_pid",
          "type": "uint256"
        }
      ],
      "name": "emergencyWithdraw",
      "outputs": [],
      "stateMutability": "nonpayable",
      "type": "function"
    },
    {
      "inputs": [
        {
          "internalType": "address",
          "name": "_devaddr",
          "type": "address"
        }
      ],
      "name": "dev",
      "outputs": [],
      "stateMutability": "nonpayable",
      "type": "function"
    },
    {
      "inputs": [
        {
          "internalType": "address",
          "name": "_collectoraddr",
          "type": "address"
        }
      ],
      "name": "collector",
      "outputs": [],
      "stateMutability": "nonpayable",
      "type": "function"
    }
  ],
  "bytecode": "0x60806040526000600f5534801561001557600080fd5b50604051612902380380612902833981810160405261010081101561003957600080fd5b50805160208201516040808401516060850151608086015160a087015160c088015160e090980151600080546001600160a01b03191633908117825596519899979895979496939592949391927f8be0079c531659141344cd1fd0a4f28419497f9722a3daafe3b4186f6b6457e0908290a36001600255600380546001600160a01b03998a166001600160a01b03199182161790915560048054989099169781168817909855600580549098169096179096556008939093556009919091556007919091556010556012919091556011556127e9806101196000396000f3fe608060405234801561001057600080fd5b50600436106102325760003560e01c806376aee29511610130578063afffd5b7116100b8578063d5688d831161007c578063d5688d8314610605578063e2bbb15814610622578063e30c397814610645578063e7525ceb1461064d578063f92580751461065557610232565b8063afffd5b714610580578063bddaef9c14610588578063cab3c392146105a5578063cbd258b5146105d7578063d49e77cd146105fd57610232565b80638dbb1e3a116100ff5780638dbb1e3a146104be57806393f1a40b146104e1578063a1066bd414610526578063ab1bbd4814610552578063ad1d4a071461057857610232565b806376aee2951461045c5780638aa28550146104885780638d88a90e146104905780638da5cb5b146104b657610232565b806348cd4cb1116101be5780635cce7b35116101825780635cce7b351461041157806361cf753b14610419578063630b5ba11461042157806364482f79146104295780636b61a19f1461045457610232565b806348cd4cb11461039b5780634e71e0c8146103a35780634e9ad15a146103ab57806351eb05a6146103d75780635312ea8e146103f457610232565b806317caf6f11161020557806317caf6f1146102fa5780631aed6553146103025780631eaaa0451461030a5780632e7a3f1e1461033e578063441a3e701461037857610232565b806302f283be14610237578063078dfbe71461025b578063081e3eda146102935780631526fe27146102ad575b600080fd5b61023f61065d565b604080516001600160a01b039092168252519081900360200190f35b6102916004803603606081101561027157600080fd5b506001600160a01b0381351690602081013515159060400135151561066c565b005b61029b610796565b60408051918252519081900360200190f35b6102ca600480360360208110156102c357600080fd5b503561079c565b604080516001600160a01b0390951685526020850193909352838301919091526060830152519081900360800190f35b61029b6107dd565b61029b6107e3565b6102916004803603606081101561032057600080fd5b508035906001600160a01b03602082013516906040013515156107e9565b6103646004803603602081101561035457600080fd5b50356001600160a01b0316610ac5565b604080519115158252519081900360200190f35b6102916004803603604081101561038e57600080fd5b5080359060200135610ada565b61029b610ccb565b610291610cd1565b610291600480360360408110156103c157600080fd5b50803590602001356001600160a01b0316610d93565b610291600480360360208110156103ed57600080fd5b5035610faf565b6102916004803603602081101561040a57600080fd5b5035611222565b610291611359565b61029b611450565b610291611456565b6102916004803603606081101561043f57600080fd5b50803590602081013590604001351515611479565b61029b61158c565b61029b6004803603604081101561047257600080fd5b50803590602001356001600160a01b0316611592565b61029b611743565b610291600480360360208110156104a657600080fd5b50356001600160a01b0316611748565b61023f6117c9565b61029b600480360360408110156104d457600080fd5b50803590602001356117d8565b61050d600480360360408110156104f757600080fd5b50803590602001356001600160a01b0316611844565b6040805192835260208301919091528051918290030190f35b61029b6004803603604081101561053c57600080fd5b50803590602001356001600160a01b0316611868565b6102916004803603602081101561056857600080fd5b50356001600160a01b03166118e1565b61023f611977565b61023f611986565b61023f6004803603602081101561059e57600080fd5b5035611995565b610291600480360360608110156105bb57600080fd5b50803590602081013590604001356001600160a01b03166119bc565b610364600480360360208110156105ed57600080fd5b50356001600160a01b0316611c90565b61023f611ca5565b6102916004803603602081101561061b57600080fd5b5035611cb4565b6102916004803603604081101561063857600080fd5b5080359060200135611d5a565b61023f611fdb565b61029b611fea565b61029b611ff0565b6006546001600160a01b031681565b6000546001600160a01b031633146106b9576040805162461bcd60e51b8152602060048201819052602482015260008051602061276a833981519152604482015290519081900360640190fd5b8115610775576001600160a01b0383161515806106d35750805b61071c576040805162461bcd60e51b81526020600482015260156024820152744f776e61626c653a207a65726f206164647265737360581b604482015290519081900360640190fd5b600080546040516001600160a01b03808716939216917f8be0079c531659141344cd1fd0a4f28419497f9722a3daafe3b4186f6b6457e091a3600080546001600160a01b0319166001600160a01b038516179055610791565b600180546001600160a01b0319166001600160a01b0385161790555b505050565b600a5490565b600a81815481106107a957fe5b600091825260209091206004909102018054600182015460028301546003909301546001600160a01b039092169350919084565b600f5481565b60075481565b6000546001600160a01b03163314610836576040805162461bcd60e51b8152602060048201819052602482015260008051602061276a833981519152604482015290519081900360640190fd5b816000816001600160a01b03166370a08231306040518263ffffffff1660e01b815260040180826001600160a01b0316815260200191505060206040518083038186803b15801561088657600080fd5b505afa9250505080156108ab57506040513d60208110156108a657600080fd5b505160015b6108b7575060006108bd565b50600190505b6001600160a01b0382166000908152600d602052604090205460ff161561092b576040805162461bcd60e51b815260206004820152601960248201527f6e6f6e4475706c6963617465643a206475706c69636174656400000000000000604482015290519081900360640190fd5b600181151514610982576040805162461bcd60e51b815260206004820152601d60248201527f43616e27742063616c6c2062616c616e63654f662e205265766572742e000000604482015290519081900360640190fd5b821561099057610990611456565b600060105443116109a3576010546109a5565b435b600f549091506109b59087611ff6565b600f556001600160a01b039485166000818152600d602090815260408083208054600160ff1990911681179091558151608081018352948552918401998a52830193845260608301818152600a8054928301815590925291517fc65a7bb8d6351c1cf70c95a316cc6a92839c986682d98bc35f958f4883f9d2a8600490930292830180546001600160a01b031916919098161790965595517fc65a7bb8d6351c1cf70c95a316cc6a92839c986682d98bc35f958f4883f9d2a9870155517fc65a7bb8d6351c1cf70c95a316cc6a92839c986682d98bc35f958f4883f9d2aa860155505090517fc65a7bb8d6351c1cf70c95a316cc6a92839c986682d98bc35f958f4883f9d2ab9092019190915550565b600c6020526000908152604090205460ff1681565b600a548290808210610b25576040805162461bcd60e51b815260206004820152600f60248201526e12539590531251081413d3d3081251608a1b604482015290519081900360640190fd5b600280541415610b6a576040805162461bcd60e51b815260206004820152601f60248201526000805160206126be833981519152604482015290519081900360640190fd5b600280819055506000600a8581548110610b8057fe5b60009182526020808320888452600b825260408085203386529092529220805460049092029092019250851115610bf3576040805162461bcd60e51b81526020600482015260126024820152711dda5d1a191c985dce881b9bdd0819dbdbd960721b604482015290519081900360640190fd5b610bfc86610faf565b6000610c368260010154610c3064e8d4a51000610c2a8760030154876000015461205790919063ffffffff16565b906120b0565b90612117565b9050610c423382612174565b8154610c4e9087612117565b8083556003840154610c6b9164e8d4a5100091610c2a9190612057565b60018301558254610c86906001600160a01b03163388612347565b604080518781529051889133917ff279e6a1f5e320cca91135676d9cb6e44ca8a08c0b88342bcdb1144f6511b5689181900360200190a3505060016002555050505050565b60105481565b6001546001600160a01b0316338114610d31576040805162461bcd60e51b815260206004820181905260248201527f4f776e61626c653a2063616c6c657220213d2070656e64696e67206f776e6572604482015290519081900360640190fd5b600080546040516001600160a01b03808516939216917f8be0079c531659141344cd1fd0a4f28419497f9722a3daafe3b4186f6b6457e091a3600080546001600160a01b039092166001600160a01b0319928316179055600180549091169055565b6005546001600160a01b03163314610daa57600080fd5b600a548290808210610df5576040805162461bcd60e51b815260206004820152600f60248201526e12539590531251081413d3d3081251608a1b604482015290519081900360640190fd5b600280541415610e3a576040805162461bcd60e51b815260206004820152601f60248201526000805160206126be833981519152604482015290519081900360640190fd5b60028081905550600080600a8681548110610e5157fe5b60009182526020808320898452600b825260408085206001600160a01b038b1686529092529220805460049092029092019250831115610ecd576040805162461bcd60e51b81526020600482015260126024820152711dda5d1a191c985dce881b9bdd0819dbdbd960721b604482015290519081900360640190fd5b610ed687610faf565b6000610f048260010154610c3064e8d4a51000610c2a8760030154876000015461205790919063ffffffff16565b90508015610f1657610f163382612174565b8315610f40578154610f289085612117565b82558254610f40906001600160a01b03163386612347565b60038301548254610f5b9164e8d4a5100091610c2a91612057565b600183015560408051858152905189916001600160a01b038a16917ff279e6a1f5e320cca91135676d9cb6e44ca8a08c0b88342bcdb1144f6511b5689181900360200190a350506001600255505050505050565b600a548190808210610ffa576040805162461bcd60e51b815260206004820152600f60248201526e12539590531251081413d3d3081251608a1b604482015290519081900360640190fd5b6000600a848154811061100957fe5b906000526020600020906004020190508060020154431161102a5750610791565b8054604080516370a0823160e01b815230600482015290516000926001600160a01b0316916370a08231916024808301926020929190829003018186803b15801561107457600080fd5b505afa158015611088573d6000803e3d6000fd5b505050506040513d602081101561109e57600080fd5b50519050806110b4575043600290910155610791565b60006110c48360020154436117d8565b905060006110f1600f54610c2a86600101546110eb6008548761205790919063ffffffff16565b90612057565b6003546004549192506001600160a01b03908116916340c10f19911661111884600a6120b0565b6040518363ffffffff1660e01b815260040180836001600160a01b0316815260200182815260200192505050600060405180830381600087803b15801561115e57600080fd5b505af1158015611172573d6000803e3d6000fd5b5050600354604080516340c10f1960e01b81523060048201526024810186905290516001600160a01b0390921693506340c10f19925060448082019260009290919082900301818387803b1580156111c957600080fd5b505af11580156111dd573d6000803e3d6000fd5b5050505061120b61120084610c2a64e8d4a510008561205790919063ffffffff16565b600386015490611ff6565b600385015550504360029092019190915550505050565b600a54819080821061126d576040805162461bcd60e51b815260206004820152600f60248201526e12539590531251081413d3d3081251608a1b604482015290519081900360640190fd5b6002805414156112b2576040805162461bcd60e51b815260206004820152601f60248201526000805160206126be833981519152604482015290519081900360640190fd5b600280819055506000600a84815481106112c857fe5b60009182526020808320878452600b8252604080852033808752935290932080546004909302909301805490945061130d926001600160a01b03919091169190612347565b80546040805191825251869133917fbb757047c2b5f3974fe26b7c10f732e7bce710b0952a71082702781e62ae05959181900360200190a3600080825560019182015560025550505050565b6000546001600160a01b031633146113a6576040805162461bcd60e51b8152602060048201819052602482015260008051602061276a833981519152604482015290519081900360640190fd5b60125460115414156113e95760405162461bcd60e51b81526004018080602001828103825260238152602001806127266023913960400191505060405180910390fd5b6114066103e8610c2a60095460125461205790919063ffffffff16565b6008819055601254601181905560408051928352602083019190915280517ff84fdc31bbfc176687fb0c295c02db5def2e1e50c89107ab0d4be860a3d1bdd99281900390910190a1565b60115481565b600a5460005b818110156114755761146d81610faf565b60010161145c565b5050565b6000546001600160a01b031633146114c6576040805162461bcd60e51b8152602060048201819052602482015260008051602061276a833981519152604482015290519081900360640190fd5b600a548390808210611511576040805162461bcd60e51b815260206004820152600f60248201526e12539590531251081413d3d3081251608a1b604482015290519081900360640190fd5b821561151f5761151f611456565b61155c84611556600a888154811061153357fe5b906000526020600020906004020160010154600f5461211790919063ffffffff16565b90611ff6565b600f8190555083600a868154811061157057fe5b9060005260206000209060040201600101819055505050505050565b60125481565b600a5460009083908082106115e0576040805162461bcd60e51b815260206004820152600f60248201526e12539590531251081413d3d3081251608a1b604482015290519081900360640190fd5b6000600a86815481106115ef57fe5b60009182526020808320898452600b825260408085206001600160a01b038b8116875290845281862060049586029093016003810154815484516370a0823160e01b81523098810198909852935191985093969395939492909116926370a08231926024808301939192829003018186803b15801561166d57600080fd5b505afa158015611681573d6000803e3d6000fd5b505050506040513d602081101561169757600080fd5b50516002850154909150431180156116ae57508015155b1561170e5760006116c38560020154436117d8565b905060006116ea600f54610c2a88600101546110eb6008548761205790919063ffffffff16565b905061170961170284610c2a8464e8d4a51000612057565b8590611ff6565b935050505b6117368360010154610c3064e8d4a51000610c2a86886000015461205790919063ffffffff16565b9998505050505050505050565b600d81565b6004546001600160a01b031633146117a7576040805162461bcd60e51b815260206004820152601e60248201527f7468652064657620736179733a2041636365737320756e4772616e7465640000604482015290519081900360640190fd5b600480546001600160a01b0319166001600160a01b0392909216919091179055565b6000546001600160a01b031681565b600060075482116117f9576117f2600d6110eb8486612117565b905061183e565b600754831061180c576117f28284612117565b6117f26118246007548461211790919063ffffffff16565b611556600d6110eb8760075461211790919063ffffffff16565b92915050565b600b6020908152600092835260408084209091529082529020805460019091015482565b600a5460009083908082106118b6576040805162461bcd60e51b815260206004820152600f60248201526e12539590531251081413d3d3081251608a1b604482015290519081900360640190fd5b5050506000918252600b602090815260408084206001600160a01b0393909316845291905290205490565b6005546001600160a01b031633148061190457506004546001600160a01b031633145b611955576040805162461bcd60e51b815260206004820152601f60248201527f7468652064657620736179733a2041636365737320756e4772616e7465642000604482015290519081900360640190fd5b600580546001600160a01b0319166001600160a01b0392909216919091179055565b6003546001600160a01b031681565b6005546001600160a01b031681565b600e81815481106119a257fe5b6000918252602090912001546001600160a01b0316905081565b6006546001600160a01b031633146119d357600080fd5b600a548390808210611a1e576040805162461bcd60e51b815260206004820152600f60248201526e12539590531251081413d3d3081251608a1b604482015290519081900360640190fd5b600280541415611a63576040805162461bcd60e51b815260206004820152601f60248201526000805160206126be833981519152604482015290519081900360640190fd5b600280819055506000600a8681548110611a7957fe5b60009182526020808320898452600b825260408085206001600160a01b038a168652909252922060049091029091019150611ab387610faf565b805415611afc576000611ae88260010154610c3064e8d4a51000610c2a8760030154876000015461205790919063ffffffff16565b90508015611afa57611afa8682612174565b505b8515611c2b578154604080516370a0823160e01b815230600482015290516000926001600160a01b0316916370a08231916024808301926020929190829003018186803b158015611b4c57600080fd5b505afa158015611b60573d6000803e3d6000fd5b505050506040513d6020811015611b7657600080fd5b50518354909150611b92906001600160a01b031633308a612399565b8254604080516370a0823160e01b81523060048201529051600092611c179285926001600160a01b03909216916370a0823191602480820192602092909190829003018186803b158015611be557600080fd5b505afa158015611bf9573d6000803e3d6000fd5b505050506040513d6020811015611c0f57600080fd5b505190612117565b8354909150611c269082611ff6565b835550505b60038201548154611c469164e8d4a5100091610c2a91612057565b6001820155604080518781529051889133917f90890809c654f11d6e72a28fa60149770a0d11ec6c92319d6ceb2bb0a4ea1a159181900360200190a3505060016002555050505050565b600d6020526000908152604090205460ff1681565b6004546001600160a01b031681565b6000546001600160a01b03163314611d01576040805162461bcd60e51b8152602060048201819052602482015260008051602061276a833981519152604482015290519081900360640190fd5b806011541415611d425760405162461bcd60e51b81526004018080602001828103825260238152602001806127266023913960400191505060405180910390fd5b611d4a611456565b6012819055611d57611359565b50565b600a548290808210611da5576040805162461bcd60e51b815260206004820152600f60248201526e12539590531251081413d3d3081251608a1b604482015290519081900360640190fd5b600280541415611dea576040805162461bcd60e51b815260206004820152601f60248201526000805160206126be833981519152604482015290519081900360640190fd5b600280819055506000600a8581548110611e0057fe5b60009182526020808320888452600b82526040808520338652909252922060049091029091019150611e3186610faf565b805415611e7a576000611e668260010154610c3064e8d4a51000610c2a8760030154876000015461205790919063ffffffff16565b90508015611e7857611e783382612174565b505b8415611f77578154604080516370a0823160e01b815230600482015290516000926001600160a01b0316916370a08231916024808301926020929190829003018186803b158015611eca57600080fd5b505afa158015611ede573d6000803e3d6000fd5b505050506040513d6020811015611ef457600080fd5b50518354909150611f10906001600160a01b0316333089612399565b8254604080516370a0823160e01b81523060048201529051600092611f639285926001600160a01b03909216916370a0823191602480820192602092909190829003018186803b158015611be557600080fd5b8354909150611f729082611ff6565b835550505b60038201548154611f929164e8d4a5100091610c2a91612057565b6001820155604080518681529051879133917f90890809c654f11d6e72a28fa60149770a0d11ec6c92319d6ceb2bb0a4ea1a159181900360200190a35050600160025550505050565b6001546001600160a01b031681565b60095481565b60085481565b600082820183811015612050576040805162461bcd60e51b815260206004820152601b60248201527f536166654d6174683a206164646974696f6e206f766572666c6f770000000000604482015290519081900360640190fd5b9392505050565b6000826120665750600061183e565b8282028284828161207357fe5b04146120505760405162461bcd60e51b81526004018080602001828103825260218152602001806127496021913960400191505060405180910390fd5b6000808211612106576040805162461bcd60e51b815260206004820152601a60248201527f536166654d6174683a206469766973696f6e206279207a65726f000000000000604482015290519081900360640190fd5b81838161210f57fe5b049392505050565b60008282111561216e576040805162461bcd60e51b815260206004820152601e60248201527f536166654d6174683a207375627472616374696f6e206f766572666c6f770000604482015290519081900360640190fd5b50900390565b600354604080516370a0823160e01b815230600482015290516000926001600160a01b0316916370a08231916024808301926020929190829003018186803b1580156121bf57600080fd5b505afa1580156121d3573d6000803e3d6000fd5b505050506040513d60208110156121e957600080fd5b50519050600081831115612280576003546040805163a9059cbb60e01b81526001600160a01b038781166004830152602482018690529151919092169163a9059cbb9160448083019260209291908290030181600087803b15801561224d57600080fd5b505af1158015612261573d6000803e3d6000fd5b505050506040513d602081101561227757600080fd5b50519050612305565b6003546040805163a9059cbb60e01b81526001600160a01b038781166004830152602482018790529151919092169163a9059cbb9160448083019260209291908290030181600087803b1580156122d657600080fd5b505af11580156122ea573d6000803e3d6000fd5b505050506040513d602081101561230057600080fd5b505190505b806123415760405162461bcd60e51b81526004018080602001828103825260228152602001806127046022913960400191505060405180910390fd5b50505050565b604080516001600160a01b038416602482015260448082018490528251808303909101815260649091019091526020810180516001600160e01b031663a9059cbb60e01b1790526107919084906123ef565b604080516001600160a01b0380861660248301528416604482015260648082018490528251808303909101815260849091019091526020810180516001600160e01b03166323b872dd60e01b1790526123419085905b6060612444826040518060400160405280602081526020017f5361666545524332303a206c6f772d6c6576656c2063616c6c206661696c6564815250856001600160a01b03166124a09092919063ffffffff16565b8051909150156107915780806020019051602081101561246357600080fd5b50516107915760405162461bcd60e51b815260040180806020018281038252602a81526020018061278a602a913960400191505060405180910390fd5b60606124af84846000856124b7565b949350505050565b6060824710156124f85760405162461bcd60e51b81526004018080602001828103825260268152602001806126de6026913960400191505060405180910390fd5b61250185612613565b612552576040805162461bcd60e51b815260206004820152601d60248201527f416464726573733a2063616c6c20746f206e6f6e2d636f6e7472616374000000604482015290519081900360640190fd5b60006060866001600160a01b031685876040518082805190602001908083835b602083106125915780518252601f199092019160209182019101612572565b6001836020036101000a03801982511681845116808217855250505050505090500191505060006040518083038185875af1925050503d80600081146125f3576040519150601f19603f3d011682016040523d82523d6000602084013e6125f8565b606091505b5091509150612608828286612619565b979650505050505050565b3b151590565b60608315612628575081612050565b8251156126385782518084602001fd5b8160405162461bcd60e51b81526004018080602001828103825283818151815260200191508051906020019080838360005b8381101561268257818101518382015260200161266a565b50505050905090810190601f1680156126af5780820380516001836020036101000a031916815260200191505b509250505060405180910390fdfe5265656e7472616e637947756172643a207265656e7472616e742063616c6c00416464726573733a20696e73756666696369656e742062616c616e636520666f722063616c6c73616665546f6b656e5472616e736665723a207472616e73666572206661696c65644f70656e53776170203a20426c6f636b74696d65206861736e2774206368616e676564536166654d6174683a206d756c7469706c69636174696f6e206f766572666c6f774f776e61626c653a2063616c6c6572206973206e6f7420746865206f776e65725361666545524332303a204552433230206f7065726174696f6e20646964206e6f742073756363656564a26469706673582212201d0677fb08bdc42323dd26c519e746ddc0a1c007b76f377364e63bd15a24d84864736f6c634300060c0033",
  "immutableReferences": {},
  "source": "// SPDX-License-Identifier: MIT\n\npragma solidity 0.6.12;\n\nimport \"@openzeppelin/contracts/token/ERC20/IERC20.sol\";\nimport \"@openzeppelin/contracts/token/ERC20/SafeERC20.sol\";\nimport \"@openzeppelin/contracts/utils/EnumerableSet.sol\";\nimport \"@openzeppelin/contracts/utils/ReentrancyGuard.sol\";\n\nimport \"@openzeppelin/contracts/math/SafeMath.sol\";\nimport \"./Ownable.sol\";\nimport \"./OpenSwapToken.sol\";\n\n\n\n// MasterChef is the master of Sushi. He can make Sushi and he is a fair guy.\n//\n// Note that it's ownable and the owner wields tremendous power. The ownership\n// will be transferred to a governance smart contract once OpenSwap is sufficiently\n// distributed and the community can show to govern itself.\n//\n// Have fun reading it. Hopefully it's bug-free. God bless.\ncontract MasterChef is Ownable, ReentrancyGuard {\n    using SafeMath for uint256;\n    using SafeERC20 for IERC20;\n    // Info of each user.\n    struct UserInfo {\n        uint256 amount; // How many LP tokens the user has provided.\n        uint256 rewardDebt; // Reward debt. See explanation below.\n        //\n        // We do some fancy math here. Basically, any point in time, the amount of SUSHIs\n        // entitled to a user but is pending to be distributed is:\n        //\n        //   pending reward = (user.amount * pool.accOpenSwapPerShare) - user.rewardDebt\n        //\n        // Whenever a user deposits or withdraws LP tokens to a pool. Here's what happens:\n        //   1. The pool's `accOpenSwapPerShare` (and `lastRewardBlock`) gets updated.\n        //   2. User receives the pending reward sent to his/her address.\n        //   3. User's `amount` gets updated.\n        //   4. User's `rewardDebt` gets updated.\n    }\n    // Info of each pool.\n    struct PoolInfo {\n        IERC20 lpToken; // Address of LP token contract.\n        uint256 allocPoint; // How many allocation points assigned to this pool. SUSHIs to distribute per block.\n        uint256 lastRewardBlock; // Last block number that SUSHIs distribution occurs.\n        uint256 accOpenSwapPerShare; // Accumulated SUSHIs per share, times 1e12. See below.\n    }\n    // The OpenSwap TOKEN!\n    OpenSwapToken public OpenSwap;\n    // Dev address.\n    address public devaddr;\n    // Reward collector address for blocktime change\n    address public rewardCollector;\n    // LP Depositor address for blocktime change\n    address public lpDepositor;\n    // Block number when bonus OpenSwap period ends.\n    uint256 public bonusEndBlock;\n    // OpenSwap tokens created per block.\n    uint256 public OpenSwapPerBlock;\n    //Amount of sushis per Second\n    uint256 public OpenSwapPerSecond;\n    // Bonus muliplier for early OpenSwap makers.\n    uint256 public constant BONUS_MULTIPLIER = 13;\n    // Info of each pool.\n    PoolInfo[] public poolInfo;\n    // Info of each user that stakes LP tokens.\n    mapping(uint256 => mapping(address => UserInfo)) public userInfo;\n    // Mapping to know if the User has been added to the registry\n    mapping(address => bool) public isUserRegisty;\n    //Mapping to check if farm exists\n    mapping(IERC20 => bool) public poolExistence;\n    // User Database to Execute Blocktime Change\n    address[] public userRegistry;\n    // Total allocation poitns. Must be the sum of all allocation points in all pools.\n    uint256 public totalAllocPoint = 0;\n    // The block number when OpenSwap mining starts.\n    uint256 public startBlock;\n    // Last Blocktime in Milliseconds\n    uint256 public lastBlocktime;\n    // Current Blocktime in Milliseconds\n    uint256 public currentBlocktime;\n\n    event Deposit(address indexed user, uint256 indexed pid, uint256 amount);\n    event RewardChange(uint256 OpenSwapPerBlock, uint256 Blocktime);\n    event Withdraw(address indexed user, uint256 indexed pid, uint256 amount);\n    event EmergencyWithdraw(\n        address indexed user,\n        uint256 indexed pid,\n        uint256 amount\n    );\n\n    modifier onlyCollector {\n      require(msg.sender == rewardCollector);\n      _;\n   }\n\n   modifier onlyDepositor {\n      require(msg.sender == lpDepositor);\n      _;\n   }\n\n   modifier validPID(uint256 _pid){\n    uint256 length = poolInfo.length;\n    require(_pid < length, \"INVALID POOL ID\");\n    _;\n   }\n\n    modifier nonDuplicateAndValid(IERC20 _lpToken) {       \n        bool isToken = false; \n        try _lpToken.balanceOf(address(this)){\n            isToken = true;\n        } catch {\n            isToken = false;\n        }\n        require(poolExistence[_lpToken] == false, \"nonDuplicated: duplicated\");\n        require(isToken == true, \"Can't call balanceOf. Revert.\");\n\n        _;\n    }\n\n    constructor(\n        OpenSwapToken _sushi,\n        address _devaddr,\n        uint256 _sushiPerBlock,\n        uint256 _sushiPerSecond,\n        uint256 _startBlock,\n        uint256 _bonusEndBlock,\n        uint256 _currentBlocktime,\n        uint256 _lastBlocktime\n    ) public {\n        OpenSwap = _sushi;\n        devaddr = _devaddr;\n        rewardCollector = _devaddr;\n        OpenSwapPerBlock = _sushiPerBlock;\n        OpenSwapPerSecond = _sushiPerSecond;\n        bonusEndBlock = _bonusEndBlock;\n        startBlock = _startBlock;\n        currentBlocktime = _currentBlocktime;\n        lastBlocktime = _lastBlocktime;\n    }\n\n    function poolLength() external view returns (uint256) {\n        return poolInfo.length;\n    }\n    //Changes rewards per block in Case an eventual Change in Harmony BlockTime\n    function updateBlockIssuanceWithBlocktime()\n        public onlyOwner {\n        require(lastBlocktime != currentBlocktime , \"OpenSwap : Blocktime hasn't changed\");\n        OpenSwapPerBlock = currentBlocktime.mul(OpenSwapPerSecond).div(1000);\n        lastBlocktime = currentBlocktime;\n        emit RewardChange(OpenSwapPerBlock, currentBlocktime);\n    }\n\n    //Changes the Blocktime Parameter and updates the Rewards per Block\n    function changeBlocktime(uint _currentBlocktime)\n        public onlyOwner {\n        require(lastBlocktime != _currentBlocktime , \"OpenSwap : Blocktime hasn't changed\");\n        \n        massUpdatePools();\n\n        currentBlocktime = _currentBlocktime;\n        updateBlockIssuanceWithBlocktime();\n        \n    }\n\n    // Add a new lp to the pool. Can only be called by the owner.\n    // XXX DO NOT add the same LP token more than once. Rewards will be messed up if you do.\n    function add(\n        uint256 _allocPoint,\n        IERC20 _lpToken,\n        bool _withUpdate\n    ) public onlyOwner nonDuplicateAndValid(_lpToken) {\n        if (_withUpdate) {\n            massUpdatePools();\n        }\n        uint256 lastRewardBlock =\n            block.number > startBlock ? block.number : startBlock;\n        totalAllocPoint = totalAllocPoint.add(_allocPoint);\n        poolExistence[_lpToken] = true;\n        poolInfo.push(\n            PoolInfo({\n                lpToken: _lpToken,\n                allocPoint: _allocPoint,\n                lastRewardBlock: lastRewardBlock,\n                accOpenSwapPerShare: 1\n            })\n        );\n    }\n\n    // Update the given pool's OpenSwap allocation point. Can only be called by the owner.\n    function set(\n        uint256 _pid,\n        uint256 _allocPoint,\n        bool _withUpdate\n    ) public onlyOwner validPID(_pid){\n        if (_withUpdate) {\n            massUpdatePools();\n        }\n        totalAllocPoint = totalAllocPoint.sub(poolInfo[_pid].allocPoint).add(\n            _allocPoint\n        );\n        poolInfo[_pid].allocPoint = _allocPoint;\n    }\n\n\n    // Return reward multiplier over the given _from to _to block.\n    function getMultiplier(uint256 _from, uint256 _to)\n        public\n        view\n        returns (uint256)\n    {\n        if (_to <= bonusEndBlock) {\n            return _to.sub(_from).mul(BONUS_MULTIPLIER);\n        } else if (_from >= bonusEndBlock) {\n            return _to.sub(_from);\n        } else {\n            return\n                bonusEndBlock.sub(_from).mul(BONUS_MULTIPLIER).add(\n                    _to.sub(bonusEndBlock)\n                );\n        }\n    }\n\n    // View function to see pending SUSHIs on frontend.\n    function pendingOpenSwap(uint256 _pid, address _user)\n        external\n        view\n        validPID(_pid)\n        returns (uint256)\n        {\n        PoolInfo storage pool = poolInfo[_pid];\n        UserInfo storage user = userInfo[_pid][_user];\n        uint256 accOpenSwapPerShare = pool.accOpenSwapPerShare;\n        uint256 lpSupply = pool.lpToken.balanceOf(address(this));\n        if (block.number > pool.lastRewardBlock && lpSupply != 0) {\n            uint256 multiplier =\n                getMultiplier(pool.lastRewardBlock, block.number);\n            uint256 OpenSwapReward =\n                multiplier.mul(OpenSwapPerBlock).mul(pool.allocPoint).div(\n                    totalAllocPoint\n                );\n            accOpenSwapPerShare = accOpenSwapPerShare.add(\n                OpenSwapReward.mul(1e12).div(lpSupply)\n            );\n        }\n        return user.amount.mul(accOpenSwapPerShare).div(1e12).sub(user.rewardDebt);\n    }\n    function amountStaked(uint256 _pid, address _user)\n        external\n        view\n        validPID(_pid)\n        returns (uint256)\n    {\n        UserInfo storage user = userInfo[_pid][_user];\n        return user.amount;\n\n    }\n\n    // Update reward vairables for all pools. Be careful of gas spending!\n    function massUpdatePools() public {\n        uint256 length = poolInfo.length;\n        for (uint256 pid = 0; pid < length; ++pid) {\n            updatePool(pid);\n        }\n    }\n\n    // Update reward variables of the given pool to be up-to-date.\n    function updatePool(uint256 _pid) public validPID(_pid) {\n        PoolInfo storage pool = poolInfo[_pid];\n        if (block.number <= pool.lastRewardBlock) {\n            return;\n        }\n        uint256 lpSupply = pool.lpToken.balanceOf(address(this));\n        if (lpSupply == 0) {\n            pool.lastRewardBlock = block.number;\n            return;\n        }\n        uint256 multiplier = getMultiplier(pool.lastRewardBlock, block.number);\n        uint256 OpenSwapReward =\n            multiplier.mul(OpenSwapPerBlock).mul(pool.allocPoint).div(\n                totalAllocPoint\n            );\n        OpenSwap.mint(devaddr, OpenSwapReward.div(10));\n        OpenSwap.mint(address(this), OpenSwapReward);\n        pool.accOpenSwapPerShare = pool.accOpenSwapPerShare.add(\n            OpenSwapReward.mul(1e12).div(lpSupply)\n        );\n        pool.lastRewardBlock = block.number;\n    }\n\n    // Deposit LP tokens to MasterChef for OpenSwap allocation.\n    function deposit(uint256 _pid, uint256 _amount) public validPID(_pid) nonReentrant {\n        PoolInfo storage pool = poolInfo[_pid];\n        UserInfo storage user = userInfo[_pid][msg.sender];\n        updatePool(_pid);\n\n        if (user.amount > 0) {\n            uint256 pending = user.amount.mul(pool.accOpenSwapPerShare).div(1e12).sub(user.rewardDebt);\n            if (pending > 0) {\n                safeTokenTransfer(msg.sender, pending);\n            }\n        }\n\n        if (_amount > 0) {\n            uint256 balanceBefore = pool.lpToken.balanceOf(address(this));\n            pool.lpToken.safeTransferFrom(address(msg.sender), address(this), _amount);\n            uint256 finalAmount = pool.lpToken.balanceOf(address(this)).sub(balanceBefore);\n            user.amount = user.amount.add(finalAmount);\n        }\n        \n        user.rewardDebt = user.amount.mul(pool.accOpenSwapPerShare).div(1e12);\n        emit Deposit(msg.sender, _pid, _amount);\n    }\n\n    // ext deposit is to be called by a contract that must have the lp tokens. it will credit the account passed in as _user\n    // allows 1 click deposit and stake of LP.\n    // it also collects and send the user's farm rewards to his wallet.\n    // does NOT transfer _user LP tokens.\n    function extDeposit(uint256 _pid, uint256 _amount, address _user) public onlyDepositor validPID(_pid) nonReentrant {\n        PoolInfo storage pool = poolInfo[_pid];\n        UserInfo storage user = userInfo[_pid][_user];//gets the user info passed in as parameter\n        updatePool(_pid);\n\n        if (user.amount > 0) {\n            uint256 pending = user.amount.mul(pool.accOpenSwapPerShare).div(1e12).sub(user.rewardDebt);\n            if (pending > 0) {\n                safeTokenTransfer(_user, pending); //Send rewards to _user not msg.sender\n            }\n        }\n\n        if (_amount > 0) {\n            uint256 balanceBefore = pool.lpToken.balanceOf(address(this));\n            pool.lpToken.safeTransferFrom(address(msg.sender), address(this), _amount); //does not take user but message sender to take the LP tokens\n            uint256 finalAmount = pool.lpToken.balanceOf(address(this)).sub(balanceBefore);\n            user.amount = user.amount.add(finalAmount);\n        }\n        \n        user.rewardDebt = user.amount.mul(pool.accOpenSwapPerShare).div(1e12);\n        emit Deposit(msg.sender, _pid, _amount);\n    }\n\n    // Withdraw LP tokens from MasterChef.\n    function withdraw(uint256 _pid, uint256 _amount) public validPID(_pid) nonReentrant{\n        PoolInfo storage pool = poolInfo[_pid];\n        UserInfo storage user = userInfo[_pid][msg.sender];\n        require(user.amount >= _amount, \"withdraw: not good\");\n        updatePool(_pid);\n        uint256 pending =\n            user.amount.mul(pool.accOpenSwapPerShare).div(1e12).sub(\n                user.rewardDebt\n            );\n        safeTokenTransfer(msg.sender, pending);\n        user.amount = user.amount.sub(_amount);\n        user.rewardDebt = user.amount.mul(pool.accOpenSwapPerShare).div(1e12);\n        pool.lpToken.safeTransfer(address(msg.sender), _amount);\n        emit Withdraw(msg.sender, _pid, _amount);\n    }\n\n    //Withdraw users Openswap token by Collector address. Allows some flexibility to the dev.\n    //Does not withdraw LPs\n    function extWithdraw(uint256 _pid, address _user)\n    public onlyCollector validPID(_pid) nonReentrant{\n        uint256 _amount = 0; //HardCoded 0 Amount: Withdraw only Openswap tokens and not LP tokens\n        PoolInfo storage pool = poolInfo[_pid];\n        UserInfo storage user = userInfo[_pid][_user];\n        require(user.amount >= _amount, \"withdraw: not good\");\n        updatePool(_pid);\n        uint256 pending =\n            user.amount.mul(pool.accOpenSwapPerShare).div(1e12).sub(\n                user.rewardDebt\n            );\n\n        if (pending > 0) {\n            safeTokenTransfer(msg.sender, pending);\n        }\n        if (_amount > 0) {\n            user.amount = user.amount.sub(_amount);           \n            pool.lpToken.safeTransfer(address(msg.sender), _amount);\n        }\n\n        user.rewardDebt = user.amount.mul(pool.accOpenSwapPerShare).div(1e12);\n       \n        emit Withdraw(_user, _pid, _amount);\n    }\n\n    // Withdraw without caring about rewards. EMERGENCY ONLY.\n    function emergencyWithdraw(uint256 _pid) public validPID(_pid) nonReentrant {\n        PoolInfo storage pool = poolInfo[_pid];\n        UserInfo storage user = userInfo[_pid][msg.sender];\n        pool.lpToken.safeTransfer(address(msg.sender), user.amount);\n        emit EmergencyWithdraw(msg.sender, _pid, user.amount);\n        user.amount = 0;\n        user.rewardDebt = 0;\n    }\n\n    // Safe OpenSwap transfer function, just in case if rounding error causes pool to not have enough SUSHIs.\n        function safeTokenTransfer(address _to, uint256 _amount) internal {\n        uint256 tokenBal = OpenSwap.balanceOf(address(this));\n        bool transferSuccess = false;\n        if (_amount > tokenBal) {\n            transferSuccess = OpenSwap.transfer(_to, tokenBal);\n        } else {\n            transferSuccess = OpenSwap.transfer(_to, _amount);\n        }\n        require(transferSuccess, \"safeTokenTransfer: transfer failed\");\n    }\n\n    // Update dev address by the previous dev.\n    function dev(address _devaddr) public {\n        require(msg.sender == devaddr, \"the dev says: Access unGranted\");\n        devaddr = _devaddr;\n    }\n\n       function collector(address _collectoraddr) public {\n        require(msg.sender == rewardCollector || msg.sender == devaddr, \"the dev says: Access unGranted \");\n        rewardCollector = _collectoraddr;\n    }\n}\n",
  "sourcePath": "/home/alex/dev/openswapv2/contracts/MasterChef.sol",
  "compiler": {
    "name": "solc",
    "version": "0.6.12+commit.27d51765.Emscripten.clang"
  },
  "schemaVersion": "3.4.3",
  "updatedAt": "2021-10-13T18:29:26.268Z",
  "networkType": "ethereum",
  "devdoc": {
    "kind": "dev",
    "methods": {},
    "version": 1
  },
  "userdoc": {
    "kind": "user",
    "methods": {},
    "version": 1
  }
}