{
  "contractName": "MasterChef",
  "abi": [
    {
      "inputs": [
        {
          "internalType": "contract OpenSwapToken",
          "name": "_sushi",
          "type": "address"
        },
        {
          "internalType": "address",
          "name": "_devaddr",
          "type": "address"
        },
        {
          "internalType": "uint256",
          "name": "_sushiPerBlock",
          "type": "uint256"
        },
        {
          "internalType": "uint256",
          "name": "_sushiPerSecond",
          "type": "uint256"
        },
        {
          "internalType": "uint256",
          "name": "_startBlock",
          "type": "uint256"
        },
        {
          "internalType": "uint256",
          "name": "_bonusEndBlock",
          "type": "uint256"
        },
        {
          "internalType": "uint256",
          "name": "_currentBlocktime",
          "type": "uint256"
        },
        {
          "internalType": "uint256",
          "name": "_lastBlocktime",
          "type": "uint256"
        }
      ],
      "stateMutability": "nonpayable",
      "type": "constructor"
    },
    {
      "anonymous": false,
      "inputs": [
        {
          "indexed": true,
          "internalType": "address",
          "name": "user",
          "type": "address"
        },
        {
          "indexed": true,
          "internalType": "uint256",
          "name": "pid",
          "type": "uint256"
        },
        {
          "indexed": false,
          "internalType": "uint256",
          "name": "amount",
          "type": "uint256"
        }
      ],
      "name": "Deposit",
      "type": "event"
    },
    {
      "anonymous": false,
      "inputs": [
        {
          "indexed": false,
          "internalType": "uint8",
          "name": "currentAmount",
          "type": "uint8"
        }
      ],
      "name": "DevFundLowered",
      "type": "event"
    },
    {
      "anonymous": false,
      "inputs": [
        {
          "indexed": true,
          "internalType": "address",
          "name": "user",
          "type": "address"
        },
        {
          "indexed": true,
          "internalType": "uint256",
          "name": "pid",
          "type": "uint256"
        },
        {
          "indexed": false,
          "internalType": "uint256",
          "name": "amount",
          "type": "uint256"
        }
      ],
      "name": "EmergencyWithdraw",
      "type": "event"
    },
    {
      "anonymous": false,
      "inputs": [
        {
          "indexed": true,
          "internalType": "address",
          "name": "previousOwner",
          "type": "address"
        },
        {
          "indexed": true,
          "internalType": "address",
          "name": "newOwner",
          "type": "address"
        }
      ],
      "name": "OwnershipTransferred",
      "type": "event"
    },
    {
      "anonymous": false,
      "inputs": [
        {
          "indexed": false,
          "internalType": "uint256",
          "name": "OpenSwapPerBlock",
          "type": "uint256"
        },
        {
          "indexed": false,
          "internalType": "uint256",
          "name": "Blocktime",
          "type": "uint256"
        }
      ],
      "name": "RewardChange",
      "type": "event"
    },
    {
      "anonymous": false,
      "inputs": [
        {
          "indexed": true,
          "internalType": "address",
          "name": "user",
          "type": "address"
        },
        {
          "indexed": true,
          "internalType": "uint256",
          "name": "pid",
          "type": "uint256"
        },
        {
          "indexed": false,
          "internalType": "uint256",
          "name": "amount",
          "type": "uint256"
        }
      ],
      "name": "Withdraw",
      "type": "event"
    },
    {
      "inputs": [],
      "name": "BONUS_MULTIPLIER",
      "outputs": [
        {
          "internalType": "uint256",
          "name": "",
          "type": "uint256"
        }
      ],
      "stateMutability": "view",
      "type": "function"
    },
    {
      "inputs": [],
      "name": "OpenSwap",
      "outputs": [
        {
          "internalType": "contract OpenSwapToken",
          "name": "",
          "type": "address"
        }
      ],
      "stateMutability": "view",
      "type": "function"
    },
    {
      "inputs": [],
      "name": "OpenSwapPerBlock",
      "outputs": [
        {
          "internalType": "uint256",
          "name": "",
          "type": "uint256"
        }
      ],
      "stateMutability": "view",
      "type": "function"
    },
    {
      "inputs": [],
      "name": "OpenSwapPerSecond",
      "outputs": [
        {
          "internalType": "uint256",
          "name": "",
          "type": "uint256"
        }
      ],
      "stateMutability": "view",
      "type": "function"
    },
    {
      "inputs": [],
      "name": "bonusEndBlock",
      "outputs": [
        {
          "internalType": "uint256",
          "name": "",
          "type": "uint256"
        }
      ],
      "stateMutability": "view",
      "type": "function"
    },
    {
      "inputs": [],
      "name": "claimOwnership",
      "outputs": [],
      "stateMutability": "nonpayable",
      "type": "function"
    },
    {
      "inputs": [],
      "name": "currentBlocktime",
      "outputs": [
        {
          "internalType": "uint256",
          "name": "",
          "type": "uint256"
        }
      ],
      "stateMutability": "view",
      "type": "function"
    },
    {
      "inputs": [],
      "name": "devDivisor",
      "outputs": [
        {
          "internalType": "uint8",
          "name": "",
          "type": "uint8"
        }
      ],
      "stateMutability": "view",
      "type": "function"
    },
    {
      "inputs": [],
      "name": "devaddr",
      "outputs": [
        {
          "internalType": "address",
          "name": "",
          "type": "address"
        }
      ],
      "stateMutability": "view",
      "type": "function"
    },
    {
      "inputs": [
        {
          "internalType": "address",
          "name": "",
          "type": "address"
        }
      ],
      "name": "isUserRegisty",
      "outputs": [
        {
          "internalType": "bool",
          "name": "",
          "type": "bool"
        }
      ],
      "stateMutability": "view",
      "type": "function"
    },
    {
      "inputs": [],
      "name": "lastBlocktime",
      "outputs": [
        {
          "internalType": "uint256",
          "name": "",
          "type": "uint256"
        }
      ],
      "stateMutability": "view",
      "type": "function"
    },
    {
      "inputs": [],
      "name": "lpDepositor",
      "outputs": [
        {
          "internalType": "address",
          "name": "",
          "type": "address"
        }
      ],
      "stateMutability": "view",
      "type": "function"
    },
    {
      "inputs": [],
      "name": "owner",
      "outputs": [
        {
          "internalType": "address",
          "name": "",
          "type": "address"
        }
      ],
      "stateMutability": "view",
      "type": "function"
    },
    {
      "inputs": [],
      "name": "pendingOwner",
      "outputs": [
        {
          "internalType": "address",
          "name": "",
          "type": "address"
        }
      ],
      "stateMutability": "view",
      "type": "function"
    },
    {
      "inputs": [
        {
          "internalType": "contract IERC20",
          "name": "",
          "type": "address"
        }
      ],
      "name": "poolExistence",
      "outputs": [
        {
          "internalType": "bool",
          "name": "",
          "type": "bool"
        }
      ],
      "stateMutability": "view",
      "type": "function"
    },
    {
      "inputs": [
        {
          "internalType": "uint256",
          "name": "",
          "type": "uint256"
        }
      ],
      "name": "poolInfo",
      "outputs": [
        {
          "internalType": "contract IERC20",
          "name": "lpToken",
          "type": "address"
        },
        {
          "internalType": "uint256",
          "name": "allocPoint",
          "type": "uint256"
        },
        {
          "internalType": "uint256",
          "name": "lastRewardBlock",
          "type": "uint256"
        },
        {
          "internalType": "uint256",
          "name": "accOpenSwapPerShare",
          "type": "uint256"
        }
      ],
      "stateMutability": "view",
      "type": "function"
    },
    {
      "inputs": [],
      "name": "rewardCollector",
      "outputs": [
        {
          "internalType": "address",
          "name": "",
          "type": "address"
        }
      ],
      "stateMutability": "view",
      "type": "function"
    },
    {
      "inputs": [],
      "name": "startBlock",
      "outputs": [
        {
          "internalType": "uint256",
          "name": "",
          "type": "uint256"
        }
      ],
      "stateMutability": "view",
      "type": "function"
    },
    {
      "inputs": [],
      "name": "totalAllocPoint",
      "outputs": [
        {
          "internalType": "uint256",
          "name": "",
          "type": "uint256"
        }
      ],
      "stateMutability": "view",
      "type": "function"
    },
    {
      "inputs": [
        {
          "internalType": "address",
          "name": "newOwner",
          "type": "address"
        },
        {
          "internalType": "bool",
          "name": "direct",
          "type": "bool"
        },
        {
          "internalType": "bool",
          "name": "renounce",
          "type": "bool"
        }
      ],
      "name": "transferOwnership",
      "outputs": [],
      "stateMutability": "nonpayable",
      "type": "function"
    },
    {
      "inputs": [
        {
          "internalType": "uint256",
          "name": "",
          "type": "uint256"
        },
        {
          "internalType": "address",
          "name": "",
          "type": "address"
        }
      ],
      "name": "userInfo",
      "outputs": [
        {
          "internalType": "uint256",
          "name": "amount",
          "type": "uint256"
        },
        {
          "internalType": "uint256",
          "name": "rewardDebt",
          "type": "uint256"
        }
      ],
      "stateMutability": "view",
      "type": "function"
    },
    {
      "inputs": [],
      "name": "poolLength",
      "outputs": [
        {
          "internalType": "uint256",
          "name": "",
          "type": "uint256"
        }
      ],
      "stateMutability": "view",
      "type": "function"
    },
    {
      "inputs": [],
      "name": "updateBlockIssuanceWithBlocktime",
      "outputs": [],
      "stateMutability": "nonpayable",
      "type": "function"
    },
    {
      "inputs": [
        {
          "internalType": "uint256",
          "name": "_currentBlocktime",
          "type": "uint256"
        }
      ],
      "name": "changeBlocktime",
      "outputs": [],
      "stateMutability": "nonpayable",
      "type": "function"
    },
    {
      "inputs": [
        {
          "internalType": "uint256",
          "name": "_allocPoint",
          "type": "uint256"
        },
        {
          "internalType": "contract IERC20",
          "name": "_lpToken",
          "type": "address"
        },
        {
          "internalType": "bool",
          "name": "_withUpdate",
          "type": "bool"
        }
      ],
      "name": "add",
      "outputs": [],
      "stateMutability": "nonpayable",
      "type": "function"
    },
    {
      "inputs": [
        {
          "internalType": "uint256",
          "name": "_pid",
          "type": "uint256"
        },
        {
          "internalType": "uint256",
          "name": "_allocPoint",
          "type": "uint256"
        },
        {
          "internalType": "bool",
          "name": "_withUpdate",
          "type": "bool"
        }
      ],
      "name": "set",
      "outputs": [],
      "stateMutability": "nonpayable",
      "type": "function"
    },
    {
      "inputs": [
        {
          "internalType": "uint256",
          "name": "_from",
          "type": "uint256"
        },
        {
          "internalType": "uint256",
          "name": "_to",
          "type": "uint256"
        }
      ],
      "name": "getMultiplier",
      "outputs": [
        {
          "internalType": "uint256",
          "name": "",
          "type": "uint256"
        }
      ],
      "stateMutability": "view",
      "type": "function"
    },
    {
      "inputs": [
        {
          "internalType": "uint256",
          "name": "_pid",
          "type": "uint256"
        },
        {
          "internalType": "address",
          "name": "_user",
          "type": "address"
        }
      ],
      "name": "pendingOpenSwap",
      "outputs": [
        {
          "internalType": "uint256",
          "name": "",
          "type": "uint256"
        }
      ],
      "stateMutability": "view",
      "type": "function"
    },
    {
      "inputs": [
        {
          "internalType": "uint256",
          "name": "_pid",
          "type": "uint256"
        },
        {
          "internalType": "address",
          "name": "_user",
          "type": "address"
        }
      ],
      "name": "amountStaked",
      "outputs": [
        {
          "internalType": "uint256",
          "name": "",
          "type": "uint256"
        }
      ],
      "stateMutability": "view",
      "type": "function"
    },
    {
      "inputs": [],
      "name": "massUpdatePools",
      "outputs": [],
      "stateMutability": "nonpayable",
      "type": "function"
    },
    {
      "inputs": [
        {
          "internalType": "uint256",
          "name": "_pid",
          "type": "uint256"
        }
      ],
      "name": "updatePool",
      "outputs": [],
      "stateMutability": "nonpayable",
      "type": "function"
    },
    {
      "inputs": [
        {
          "internalType": "uint256",
          "name": "_pid",
          "type": "uint256"
        },
        {
          "internalType": "uint256",
          "name": "_amount",
          "type": "uint256"
        }
      ],
      "name": "deposit",
      "outputs": [],
      "stateMutability": "nonpayable",
      "type": "function"
    },
    {
      "inputs": [
        {
          "internalType": "uint256",
          "name": "_pid",
          "type": "uint256"
        },
        {
          "internalType": "uint256",
          "name": "_amount",
          "type": "uint256"
        },
        {
          "internalType": "address",
          "name": "_user",
          "type": "address"
        }
      ],
      "name": "extDeposit",
      "outputs": [],
      "stateMutability": "nonpayable",
      "type": "function"
    },
    {
      "inputs": [
        {
          "internalType": "uint256",
          "name": "_pid",
          "type": "uint256"
        },
        {
          "internalType": "uint256",
          "name": "_amount",
          "type": "uint256"
        }
      ],
      "name": "withdraw",
      "outputs": [],
      "stateMutability": "nonpayable",
      "type": "function"
    },
    {
      "inputs": [
        {
          "internalType": "uint256",
          "name": "_pid",
          "type": "uint256"
        },
        {
          "internalType": "address",
          "name": "_user",
          "type": "address"
        }
      ],
      "name": "extWithdraw",
      "outputs": [],
      "stateMutability": "nonpayable",
      "type": "function"
    },
    {
      "inputs": [],
      "name": "collectAll",
      "outputs": [],
      "stateMutability": "nonpayable",
      "type": "function"
    },
    {
      "inputs": [
        {
          "internalType": "uint256",
          "name": "_pid",
          "type": "uint256"
        }
      ],
      "name": "emergencyWithdraw",
      "outputs": [],
      "stateMutability": "nonpayable",
      "type": "function"
    },
    {
      "inputs": [],
      "name": "lowerDevFund",
      "outputs": [],
      "stateMutability": "nonpayable",
      "type": "function"
    },
    {
      "inputs": [
        {
          "internalType": "address",
          "name": "_devaddr",
          "type": "address"
        }
      ],
      "name": "dev",
      "outputs": [],
      "stateMutability": "nonpayable",
      "type": "function"
    },
    {
      "inputs": [
        {
          "internalType": "address",
          "name": "_collectoraddr",
          "type": "address"
        }
      ],
      "name": "collector",
      "outputs": [],
      "stateMutability": "nonpayable",
      "type": "function"
    },
    {
      "inputs": [
        {
          "internalType": "address",
          "name": "_depositoraddr",
          "type": "address"
        }
      ],
      "name": "depositor",
      "outputs": [],
      "stateMutability": "nonpayable",
      "type": "function"
    }
  ],
  "bytecode": "0x60806040526004805460ff60a01b1916600160a31b1790556000600e5534801561002857600080fd5b50604051612b30380380612b30833981810160405261010081101561004c57600080fd5b50805160208201516040808401516060850151608086015160a087015160c088015160e090980151600080546001600160a01b03191633908117825596519899979895979496939592949391927f8be0079c531659141344cd1fd0a4f28419497f9722a3daafe3b4186f6b6457e0908290a36001600255600380546001600160a01b03998a166001600160a01b0319918216179091556004805498909916978116881790985560058054909816909617909655600893909355600991909155600791909155600f55601191909155601055612a048061012c6000396000f3fe608060405234801561001057600080fd5b50600436106102535760003560e01c80636b61a19f11610146578063ad1d4a07116100c3578063d5688d8311610087578063d5688d8314610655578063e2bbb15814610672578063e30c397814610695578063e7525ceb1461069d578063ef69b4a8146106a5578063f9258075146106ad57610253565b8063ad1d4a07146105e5578063afffd5b7146105ed578063cab3c392146105f5578063cbd258b514610627578063d49e77cd1461064d57610253565b80638dbb1e3a1161010a5780638dbb1e3a1461052357806393f1a40b14610546578063952c96fb1461058b578063a1066bd414610593578063ab1bbd48146105bf57610253565b80636b61a19f146104b957806376aee295146104c15780638aa28550146104ed5780638d88a90e146104f55780638da5cb5b1461051b57610253565b8063441a3e70116101d45780635312ea8e116101985780635312ea8e146104595780635cce7b351461047657806361cf753b1461047e578063630b5ba11461048657806364482f791461048e57610253565b8063441a3e70146103dd57806348cd4cb1146104005780634e71e0c8146104085780634e9ad15a1461041057806351eb05a61461043c57610253565b80631aed65531161021b5780631aed6553146103235780631eaaa0451461032b5780632e7a3f1e1461035f578063387e971c146103995780633a40799e146103bf57610253565b806302f283be14610258578063078dfbe71461027c578063081e3eda146102b45780631526fe27146102ce57806317caf6f11461031b575b600080fd5b6102606106b5565b604080516001600160a01b039092168252519081900360200190f35b6102b26004803603606081101561029257600080fd5b506001600160a01b038135169060208101351515906040013515156106c4565b005b6102bc6107fa565b60408051918252519081900360200190f35b6102eb600480360360208110156102e457600080fd5b5035610800565b604080516001600160a01b0390951685526020850193909352838301919091526060830152519081900360800190f35b6102bc610841565b6102bc610847565b6102b26004803603606081101561034157600080fd5b508035906001600160a01b036020820135169060400135151561084d565b6103856004803603602081101561037557600080fd5b50356001600160a01b0316610b13565b604080519115158252519081900360200190f35b6102b2600480360360208110156103af57600080fd5b50356001600160a01b0316610b28565b6103c7610bb4565b6040805160ff9092168252519081900360200190f35b6102b2600480360360408110156103f357600080fd5b5080359060200135610bc4565b6102bc610db3565b6102b2610db9565b6102b26004803603604081101561042657600080fd5b50803590602001356001600160a01b0316610e7b565b6102b26004803603602081101561045257600080fd5b503561106b565b6102b26004803603602081101561046f57600080fd5b50356112e9565b6102b261141e565b6102bc611515565b6102b261151b565b6102b2600480360360608110156104a457600080fd5b5080359060208101359060400135151561153a565b6102bc61164b565b6102bc600480360360408110156104d757600080fd5b50803590602001356001600160a01b0316611651565b6102bc611800565b6102b26004803603602081101561050b57600080fd5b50356001600160a01b0316611805565b61026061187b565b6102bc6004803603604081101561053957600080fd5b508035906020013561188a565b6105726004803603604081101561055c57600080fd5b50803590602001356001600160a01b03166118f6565b6040805192835260208301919091528051918290030190f35b6102b261191a565b6102bc600480360360408110156105a957600080fd5b50803590602001356001600160a01b0316611941565b6102b2600480360360208110156105d557600080fd5b50356001600160a01b03166119b8565b610260611a44565b610260611a53565b6102b26004803603606081101561060b57600080fd5b50803590602081013590604001356001600160a01b0316611a62565b6103856004803603602081101561063d57600080fd5b50356001600160a01b0316611d34565b610260611d49565b6102b26004803603602081101561066b57600080fd5b5035611d58565b6102b26004803603604081101561068857600080fd5b5080359060200135611e52565b6102606120d1565b6102bc6120e0565b6102b26120e6565b6102bc6121e8565b6006546001600160a01b031681565b6000546001600160a01b03163314610711576040805162461bcd60e51b81526020600482018190526024820152600080516020612985833981519152604482015290519081900360640190fd5b81156107d9576001600160a01b03831615158061072b5750805b610774576040805162461bcd60e51b81526020600482015260156024820152744f776e61626c653a207a65726f206164647265737360581b604482015290519081900360640190fd5b600080546040516001600160a01b03808716939216917f8be0079c531659141344cd1fd0a4f28419497f9722a3daafe3b4186f6b6457e091a3600080546001600160a01b0385166001600160a01b0319918216179091556001805490911690556107f5565b600180546001600160a01b0319166001600160a01b0385161790555b505050565b600a5490565b600a818154811061080d57fe5b600091825260209091206004909102018054600182015460028301546003909301546001600160a01b039092169350919084565b600e5481565b60075481565b6000546001600160a01b0316331461089a576040805162461bcd60e51b81526020600482018190526024820152600080516020612985833981519152604482015290519081900360640190fd5b816000816001600160a01b03166370a08231306040518263ffffffff1660e01b815260040180826001600160a01b0316815260200191505060206040518083038186803b1580156108ea57600080fd5b505afa92505050801561090f57506040513d602081101561090a57600080fd5b505160015b61091b57506000610921565b50600190505b6001600160a01b0382166000908152600d602052604090205460ff16156109795760405162461bcd60e51b81526004018080602001828103825260238152602001806129416023913960400191505060405180910390fd5b6001811515146109d0576040805162461bcd60e51b815260206004820152601d60248201527f43616e27742063616c6c2062616c616e63654f662e205265766572742e000000604482015290519081900360640190fd5b82156109de576109de61151b565b6000600f5443116109f157600f546109f3565b435b600e54909150610a0390876121ee565b600e556001600160a01b039485166000818152600d602090815260408083208054600160ff1990911681179091558151608081018352948552918401998a52830193845260608301818152600a8054928301815590925291517fc65a7bb8d6351c1cf70c95a316cc6a92839c986682d98bc35f958f4883f9d2a8600490930292830180546001600160a01b031916919098161790965595517fc65a7bb8d6351c1cf70c95a316cc6a92839c986682d98bc35f958f4883f9d2a9870155517fc65a7bb8d6351c1cf70c95a316cc6a92839c986682d98bc35f958f4883f9d2aa860155505090517fc65a7bb8d6351c1cf70c95a316cc6a92839c986682d98bc35f958f4883f9d2ab9092019190915550565b600c6020526000908152604090205460ff1681565b6006546001600160a01b0316331480610b4b57506004546001600160a01b031633145b610b92576040805162461bcd60e51b815260206004820152601360248201527202a3432903232bb1039b0bcb99d102737b7171606d1b604482015290519081900360640190fd5b600680546001600160a01b0319166001600160a01b0392909216919091179055565b600454600160a01b900460ff1681565b600a5482908110610c0e576040805162461bcd60e51b815260206004820152600f60248201526e12539590531251081413d3d3081251608a1b604482015290519081900360640190fd5b600280541415610c53576040805162461bcd60e51b815260206004820152601f60248201526000805160206128b6833981519152604482015290519081900360640190fd5b600280819055506000600a8481548110610c6957fe5b60009182526020808320878452600b825260408085203386529092529220805460049092029092019250841115610cdc576040805162461bcd60e51b81526020600482015260126024820152711dda5d1a191c985dce881b9bdd0819dbdbd960721b604482015290519081900360640190fd5b610ce58561106b565b6000610d1f8260010154610d1964e8d4a51000610d138760030154876000015461224f90919063ffffffff16565b906122a8565b9061230f565b9050610d2b338261236c565b8154610d37908661230f565b8083556003840154610d549164e8d4a5100091610d13919061224f565b60018301558254610d6f906001600160a01b0316338761253f565b604080518681529051879133917ff279e6a1f5e320cca91135676d9cb6e44ca8a08c0b88342bcdb1144f6511b5689181900360200190a35050600160025550505050565b600f5481565b6001546001600160a01b0316338114610e19576040805162461bcd60e51b815260206004820181905260248201527f4f776e61626c653a2063616c6c657220213d2070656e64696e67206f776e6572604482015290519081900360640190fd5b600080546040516001600160a01b03808516939216917f8be0079c531659141344cd1fd0a4f28419497f9722a3daafe3b4186f6b6457e091a3600080546001600160a01b039092166001600160a01b0319928316179055600180549091169055565b6005546001600160a01b03163314610e9257600080fd5b600a5482908110610edc576040805162461bcd60e51b815260206004820152600f60248201526e12539590531251081413d3d3081251608a1b604482015290519081900360640190fd5b600280541415610f21576040805162461bcd60e51b815260206004820152601f60248201526000805160206128b6833981519152604482015290519081900360640190fd5b60028081905550600080600a8581548110610f3857fe5b60009182526020808320888452600b825260408085206001600160a01b038a1686529092529220805460049092029092019250831115610fb4576040805162461bcd60e51b81526020600482015260126024820152711dda5d1a191c985dce881b9bdd0819dbdbd960721b604482015290519081900360640190fd5b610fbd8661106b565b6000610feb8260010154610d1964e8d4a51000610d138760030154876000015461224f90919063ffffffff16565b90508015610ffd57610ffd868261236c565b600383015482546110189164e8d4a5100091610d139161224f565b600183015560408051858152905188916001600160a01b038916917ff279e6a1f5e320cca91135676d9cb6e44ca8a08c0b88342bcdb1144f6511b5689181900360200190a3505060016002555050505050565b600a54819081106110b5576040805162461bcd60e51b815260206004820152600f60248201526e12539590531251081413d3d3081251608a1b604482015290519081900360640190fd5b6000600a83815481106110c457fe5b90600052602060002090600402019050806002015443116110e557506112e5565b8054604080516370a0823160e01b815230600482015290516000926001600160a01b0316916370a08231916024808301926020929190829003018186803b15801561112f57600080fd5b505afa158015611143573d6000803e3d6000fd5b505050506040513d602081101561115957600080fd5b505190508061116f5750436002909101556112e5565b600061117f83600201544361188a565b905060006111ac600e54610d1386600101546111a66008548761224f90919063ffffffff16565b9061224f565b6003546004549192506001600160a01b03908116916340c10f19918116906111df908590600160a01b900460ff166122a8565b6040518363ffffffff1660e01b815260040180836001600160a01b0316815260200182815260200192505050600060405180830381600087803b15801561122557600080fd5b505af1158015611239573d6000803e3d6000fd5b5050600354604080516340c10f1960e01b81523060048201526024810186905290516001600160a01b0390921693506340c10f19925060448082019260009290919082900301818387803b15801561129057600080fd5b505af11580156112a4573d6000803e3d6000fd5b505050506112d26112c784610d1364e8d4a510008561224f90919063ffffffff16565b6003860154906121ee565b6003850155505043600290920191909155505b5050565b600a5481908110611333576040805162461bcd60e51b815260206004820152600f60248201526e12539590531251081413d3d3081251608a1b604482015290519081900360640190fd5b600280541415611378576040805162461bcd60e51b815260206004820152601f60248201526000805160206128b6833981519152604482015290519081900360640190fd5b600280819055506000600a838154811061138e57fe5b60009182526020808320868452600b825260408085203380875293529093208054600490930290930180549094506113d3926001600160a01b0391909116919061253f565b80546040805191825251859133917fbb757047c2b5f3974fe26b7c10f732e7bce710b0952a71082702781e62ae05959181900360200190a36000808255600191820155600255505050565b6000546001600160a01b0316331461146b576040805162461bcd60e51b81526020600482018190526024820152600080516020612985833981519152604482015290519081900360640190fd5b60115460105414156114ae5760405162461bcd60e51b815260040180806020018281038252602381526020018061291e6023913960400191505060405180910390fd5b6114cb6103e8610d1360095460115461224f90919063ffffffff16565b6008819055601154601081905560408051928352602083019190915280517ff84fdc31bbfc176687fb0c295c02db5def2e1e50c89107ab0d4be860a3d1bdd99281900390910190a1565b60105481565b600a5460005b818110156112e5576115328161106b565b600101611521565b6000546001600160a01b03163314611587576040805162461bcd60e51b81526020600482018190526024820152600080516020612985833981519152604482015290519081900360640190fd5b600a54839081106115d1576040805162461bcd60e51b815260206004820152600f60248201526e12539590531251081413d3d3081251608a1b604482015290519081900360640190fd5b81156115df576115df61151b565b61161c83611616600a87815481106115f357fe5b906000526020600020906004020160010154600e5461230f90919063ffffffff16565b906121ee565b600e8190555082600a858154811061163057fe5b90600052602060002090600402016001018190555050505050565b60115481565b600a546000908390811061169e576040805162461bcd60e51b815260206004820152600f60248201526e12539590531251081413d3d3081251608a1b604482015290519081900360640190fd5b6000600a85815481106116ad57fe5b60009182526020808320888452600b825260408085206001600160a01b038a8116875290845281862060049586029093016003810154815484516370a0823160e01b81523098810198909852935191985093969395939492909116926370a08231926024808301939192829003018186803b15801561172b57600080fd5b505afa15801561173f573d6000803e3d6000fd5b505050506040513d602081101561175557600080fd5b505160028501549091504311801561176c57508015155b156117cc57600061178185600201544361188a565b905060006117a8600e54610d1388600101546111a66008548761224f90919063ffffffff16565b90506117c76117c084610d138464e8d4a5100061224f565b85906121ee565b935050505b6117f48360010154610d1964e8d4a51000610d1386886000015461224f90919063ffffffff16565b98975050505050505050565b600181565b6004546001600160a01b03163314611859576040805162461bcd60e51b81526020600482015260126024820152712a3432902232bb1039b0bcb99d102737b71760711b604482015290519081900360640190fd5b600480546001600160a01b0319166001600160a01b0392909216919091179055565b6000546001600160a01b031681565b600060075482116118ab576118a460016111a6848661230f565b90506118f0565b60075483106118be576118a4828461230f565b6118a46118d66007548461230f90919063ffffffff16565b61161660016111a68760075461230f90919063ffffffff16565b92915050565b600b6020908152600092835260408084209091529082529020805460019091015482565b60005b600a546000190181101561193e57611936816000610bc4565b60010161191d565b50565b600a546000908390811061198e576040805162461bcd60e51b815260206004820152600f60248201526e12539590531251081413d3d3081251608a1b604482015290519081900360640190fd5b50506000918252600b602090815260408084206001600160a01b0393909316845291905290205490565b6005546001600160a01b03163314806119db57506004546001600160a01b031633145b611a22576040805162461bcd60e51b815260206004820152601360248201527202a3432902232bb1039b0bcb99d102737b7171606d1b604482015290519081900360640190fd5b600580546001600160a01b0319166001600160a01b0392909216919091179055565b6003546001600160a01b031681565b6005546001600160a01b031681565b6006546001600160a01b03163314611a7957600080fd5b600a5483908110611ac3576040805162461bcd60e51b815260206004820152600f60248201526e12539590531251081413d3d3081251608a1b604482015290519081900360640190fd5b600280541415611b08576040805162461bcd60e51b815260206004820152601f60248201526000805160206128b6833981519152604482015290519081900360640190fd5b600280819055506000600a8581548110611b1e57fe5b60009182526020808320888452600b825260408085206001600160a01b0389168652909252922060049091029091019150611b588661106b565b805415611ba1576000611b8d8260010154610d1964e8d4a51000610d138760030154876000015461224f90919063ffffffff16565b90508015611b9f57611b9f858261236c565b505b8415611cd0578154604080516370a0823160e01b815230600482015290516000926001600160a01b0316916370a08231916024808301926020929190829003018186803b158015611bf157600080fd5b505afa158015611c05573d6000803e3d6000fd5b505050506040513d6020811015611c1b57600080fd5b50518354909150611c37906001600160a01b0316333089612591565b8254604080516370a0823160e01b81523060048201529051600092611cbc9285926001600160a01b03909216916370a0823191602480820192602092909190829003018186803b158015611c8a57600080fd5b505afa158015611c9e573d6000803e3d6000fd5b505050506040513d6020811015611cb457600080fd5b50519061230f565b8354909150611ccb90826121ee565b835550505b60038201548154611ceb9164e8d4a5100091610d139161224f565b6001820155604080518681529051879133917f90890809c654f11d6e72a28fa60149770a0d11ec6c92319d6ceb2bb0a4ea1a159181900360200190a35050600160025550505050565b600d6020526000908152604090205460ff1681565b6004546001600160a01b031681565b6000546001600160a01b03163314611da5576040805162461bcd60e51b81526020600482018190526024820152600080516020612985833981519152604482015290519081900360640190fd5b806010541415611de65760405162461bcd60e51b815260040180806020018281038252602381526020018061291e6023913960400191505060405180910390fd5b610fa0811115611e3d576040805162461bcd60e51b815260206004820152601b60248201527f43616e27742073657420626c6f636b696d65206f7665722034732e0000000000604482015290519081900360640190fd5b611e4561151b565b601181905561193e61141e565b600a5482908110611e9c576040805162461bcd60e51b815260206004820152600f60248201526e12539590531251081413d3d3081251608a1b604482015290519081900360640190fd5b600280541415611ee1576040805162461bcd60e51b815260206004820152601f60248201526000805160206128b6833981519152604482015290519081900360640190fd5b600280819055506000600a8481548110611ef757fe5b60009182526020808320878452600b82526040808520338652909252922060049091029091019150611f288561106b565b805415611f71576000611f5d8260010154610d1964e8d4a51000610d138760030154876000015461224f90919063ffffffff16565b90508015611f6f57611f6f338261236c565b505b831561206e578154604080516370a0823160e01b815230600482015290516000926001600160a01b0316916370a08231916024808301926020929190829003018186803b158015611fc157600080fd5b505afa158015611fd5573d6000803e3d6000fd5b505050506040513d6020811015611feb57600080fd5b50518354909150612007906001600160a01b0316333088612591565b8254604080516370a0823160e01b8152306004820152905160009261205a9285926001600160a01b03909216916370a0823191602480820192602092909190829003018186803b158015611c8a57600080fd5b835490915061206990826121ee565b835550505b600382015481546120899164e8d4a5100091610d139161224f565b6001820155604080518581529051869133917f90890809c654f11d6e72a28fa60149770a0d11ec6c92319d6ceb2bb0a4ea1a159181900360200190a350506001600255505050565b6001546001600160a01b031681565b60095481565b6000546001600160a01b03163314612133576040805162461bcd60e51b81526020600482018190526024820152600080516020612985833981519152604482015290519081900360640190fd5b60045460ff600160a01b909104811610612187576040805162461bcd60e51b815260206004820152601060248201526f546861747320697420466f6c6b73202160801b604482015290519081900360640190fd5b6004805460ff600160a01b80830482166001018216810260ff60a01b199093169290921792839055604080519290930416815290517fee9c626a5ecbf59c6fa35d3ea1ada36622db84d50bcca6e2e2880627f38388739181900360200190a1565b60085481565b600082820183811015612248576040805162461bcd60e51b815260206004820152601b60248201527f536166654d6174683a206164646974696f6e206f766572666c6f770000000000604482015290519081900360640190fd5b9392505050565b60008261225e575060006118f0565b8282028284828161226b57fe5b04146122485760405162461bcd60e51b81526004018080602001828103825260218152602001806129646021913960400191505060405180910390fd5b60008082116122fe576040805162461bcd60e51b815260206004820152601a60248201527f536166654d6174683a206469766973696f6e206279207a65726f000000000000604482015290519081900360640190fd5b81838161230757fe5b049392505050565b600082821115612366576040805162461bcd60e51b815260206004820152601e60248201527f536166654d6174683a207375627472616374696f6e206f766572666c6f770000604482015290519081900360640190fd5b50900390565b600354604080516370a0823160e01b815230600482015290516000926001600160a01b0316916370a08231916024808301926020929190829003018186803b1580156123b757600080fd5b505afa1580156123cb573d6000803e3d6000fd5b505050506040513d60208110156123e157600080fd5b50519050600081831115612478576003546040805163a9059cbb60e01b81526001600160a01b038781166004830152602482018690529151919092169163a9059cbb9160448083019260209291908290030181600087803b15801561244557600080fd5b505af1158015612459573d6000803e3d6000fd5b505050506040513d602081101561246f57600080fd5b505190506124fd565b6003546040805163a9059cbb60e01b81526001600160a01b038781166004830152602482018790529151919092169163a9059cbb9160448083019260209291908290030181600087803b1580156124ce57600080fd5b505af11580156124e2573d6000803e3d6000fd5b505050506040513d60208110156124f857600080fd5b505190505b806125395760405162461bcd60e51b81526004018080602001828103825260228152602001806128fc6022913960400191505060405180910390fd5b50505050565b604080516001600160a01b038416602482015260448082018490528251808303909101815260649091019091526020810180516001600160e01b031663a9059cbb60e01b1790526107f59084906125e7565b604080516001600160a01b0380861660248301528416604482015260648082018490528251808303909101815260849091019091526020810180516001600160e01b03166323b872dd60e01b1790526125399085905b606061263c826040518060400160405280602081526020017f5361666545524332303a206c6f772d6c6576656c2063616c6c206661696c6564815250856001600160a01b03166126989092919063ffffffff16565b8051909150156107f55780806020019051602081101561265b57600080fd5b50516107f55760405162461bcd60e51b815260040180806020018281038252602a8152602001806129a5602a913960400191505060405180910390fd5b60606126a784846000856126af565b949350505050565b6060824710156126f05760405162461bcd60e51b81526004018080602001828103825260268152602001806128d66026913960400191505060405180910390fd5b6126f98561280b565b61274a576040805162461bcd60e51b815260206004820152601d60248201527f416464726573733a2063616c6c20746f206e6f6e2d636f6e7472616374000000604482015290519081900360640190fd5b60006060866001600160a01b031685876040518082805190602001908083835b602083106127895780518252601f19909201916020918201910161276a565b6001836020036101000a03801982511681845116808217855250505050505090500191505060006040518083038185875af1925050503d80600081146127eb576040519150601f19603f3d011682016040523d82523d6000602084013e6127f0565b606091505b5091509150612800828286612811565b979650505050505050565b3b151590565b60608315612820575081612248565b8251156128305782518084602001fd5b8160405162461bcd60e51b81526004018080602001828103825283818151815260200191508051906020019080838360005b8381101561287a578181015183820152602001612862565b50505050905090810190601f1680156128a75780820380516001836020036101000a031916815260200191505b509250505060405180910390fdfe5265656e7472616e637947756172643a207265656e7472616e742063616c6c00416464726573733a20696e73756666696369656e742062616c616e636520666f722063616c6c73616665546f6b656e5472616e736665723a207472616e73666572206661696c65644f70656e53776170203a20426c6f636b74696d65206861736e2774206368616e67656443616e27742061646420616e20616c7265616479206578697374696e67204661726d2e536166654d6174683a206d756c7469706c69636174696f6e206f766572666c6f774f776e61626c653a2063616c6c6572206973206e6f7420746865206f776e65725361666545524332303a204552433230206f7065726174696f6e20646964206e6f742073756363656564a264697066735822122066997df5e29f544664c65bd9fee7a019fd070f39ac17b6c568591e1f2c35a59a64736f6c634300060c0033",
  "immutableReferences": {},
  "source": "// SPDX-License-Identifier: MIT\n\npragma solidity 0.6.12;\n\nimport \"@openzeppelin/contracts/token/ERC20/IERC20.sol\";\nimport \"@openzeppelin/contracts/token/ERC20/SafeERC20.sol\";\nimport \"@openzeppelin/contracts/utils/EnumerableSet.sol\";\nimport \"@openzeppelin/contracts/utils/ReentrancyGuard.sol\";\n\nimport \"@openzeppelin/contracts/math/SafeMath.sol\";\nimport \"./Ownable.sol\";\nimport \"./OpenSwapToken.sol\";\n\n\n\n// MasterChef is the master of Sushi. He can make Sushi and he is a fair guy.\n//\n// Note that it's ownable and the owner wields tremendous power. The ownership\n// will be transferred to a governance smart contract once OpenSwap is sufficiently\n// distributed and the community can show to govern itself.\n//\n// Have fun reading it. Hopefully it's bug-free. God bless.\ncontract MasterChef is Ownable, ReentrancyGuard {\n    using SafeMath for uint256;\n    using SafeERC20 for IERC20;\n    // Info of each user.\n    struct UserInfo {\n        uint256 amount; // How many LP tokens the user has provided.\n        uint256 rewardDebt; // Reward debt. See explanation below.\n        //\n        // We do some fancy math here. Basically, any point in time, the amount of SUSHIs\n        // entitled to a user but is pending to be distributed is:\n        //\n        //   pending reward = (user.amount * pool.accOpenSwapPerShare) - user.rewardDebt\n        //\n        // Whenever a user deposits or withdraws LP tokens to a pool. Here's what happens:\n        //   1. The pool's `accOpenSwapPerShare` (and `lastRewardBlock`) gets updated.\n        //   2. User receives the pending reward sent to his/her address.\n        //   3. User's `amount` gets updated.\n        //   4. User's `rewardDebt` gets updated.\n    }\n    // Info of each pool.\n    struct PoolInfo {\n        IERC20 lpToken; // Address of LP token contract.\n        uint256 allocPoint; // How many allocation points assigned to this pool. SUSHIs to distribute per block.\n        uint256 lastRewardBlock; // Last block number that SUSHIs distribution occurs.\n        uint256 accOpenSwapPerShare; // Accumulated SUSHIs per share, times 1e12. See below.\n    }\n\n    // The OpenSwap TOKEN!\n    OpenSwapToken public OpenSwap;\n    // Dev address.\n    address public devaddr;\n    //Dev mint devisor, can only be increased, reducing percentage.\n    uint8 public devDivisor = 8; // 8 == 12.5% // 9 == 11% // 10 == 10%  // 11 == 9%\n    // Reward collector address for blocktime change\n    address public rewardCollector;\n    // LP Depositor address for blocktime change\n    address public lpDepositor;\n    // Block number when bonus OpenSwap period ends.\n    uint256 public bonusEndBlock;\n    // OpenSwap tokens created per block.\n    uint256 public OpenSwapPerBlock;\n    //Amount of sushis per Second\n    uint256 public OpenSwapPerSecond;\n    // Bonus muliplier for early OpenSwap makers.\n    uint256 public constant BONUS_MULTIPLIER = 1;\n    // Info of each pool.\n    PoolInfo[] public poolInfo;\n    // Info of each user that stakes LP tokens.\n    mapping(uint256 => mapping(address => UserInfo)) public userInfo;\n    // Mapping to know if the User has been added to the registry\n    mapping(address => bool) public isUserRegisty;\n    //Mapping to check if farm exists\n    mapping(IERC20 => bool) public poolExistence;\n    // Total allocation poitns. Must be the sum of all allocation points in all pools.\n    uint256 public totalAllocPoint = 0;\n    // The block number when OpenSwap mining starts.\n    uint256 public startBlock;\n    // Last Blocktime in Milliseconds\n    uint256 public lastBlocktime;\n    // Current Blocktime in Milliseconds\n    uint256 public currentBlocktime;\n\n    event DevFundLowered(uint8 currentAmount);\n    event Deposit(address indexed user, uint256 indexed pid, uint256 amount);\n    event RewardChange(uint256 OpenSwapPerBlock, uint256 Blocktime);\n    event Withdraw(address indexed user, uint256 indexed pid, uint256 amount);\n    event EmergencyWithdraw(\n        address indexed user,\n        uint256 indexed pid,\n        uint256 amount\n    );\n\n    modifier onlyCollector {\n      require(msg.sender == rewardCollector);\n      _;\n   }\n\n   modifier onlyDepositor {\n      require(msg.sender == lpDepositor);\n      _;\n   }\n\n   modifier validPID(uint256 _pid){\n    require(_pid < poolInfo.length, \"INVALID POOL ID\");\n    _;\n   }\n\n    modifier nonDuplicateAndValid(IERC20 _lpToken) {       \n        bool isToken = false; \n        try _lpToken.balanceOf(address(this)){\n            isToken = true;\n        } catch {\n            isToken = false;\n        }\n        require(poolExistence[_lpToken] == false, \"Can't add an already existing Farm.\");\n        require(isToken == true, \"Can't call balanceOf. Revert.\");\n        _;\n    }\n\n    constructor(\n        OpenSwapToken _sushi,\n        address _devaddr,\n        uint256 _sushiPerBlock,\n        uint256 _sushiPerSecond,\n        uint256 _startBlock,\n        uint256 _bonusEndBlock,\n        uint256 _currentBlocktime,\n        uint256 _lastBlocktime\n    ) public {\n        OpenSwap = _sushi;\n        devaddr = _devaddr;\n        rewardCollector = _devaddr;\n        OpenSwapPerBlock = _sushiPerBlock;\n        OpenSwapPerSecond = _sushiPerSecond;\n        bonusEndBlock = _bonusEndBlock;\n        startBlock = _startBlock;\n        currentBlocktime = _currentBlocktime;\n        lastBlocktime = _lastBlocktime;\n    }\n\n    function poolLength() external view returns (uint256) {\n        return poolInfo.length;\n    }\n    //Changes rewards per block in Case an eventual Change in Harmony BlockTime\n    function updateBlockIssuanceWithBlocktime()\n        public onlyOwner {\n        require(lastBlocktime != currentBlocktime , \"OpenSwap : Blocktime hasn't changed\");\n        OpenSwapPerBlock = currentBlocktime.mul(OpenSwapPerSecond).div(1000);\n        lastBlocktime = currentBlocktime;\n        emit RewardChange(OpenSwapPerBlock, currentBlocktime);\n    }\n\n    //Changes the Blocktime Parameter and updates the Rewards per Block\n    function changeBlocktime(uint _currentBlocktime)\n        public onlyOwner {\n        require(lastBlocktime != _currentBlocktime , \"OpenSwap : Blocktime hasn't changed\");\n        require(_currentBlocktime <= 4000, \"Can't set blockime over 4s.\");\n        \n        massUpdatePools();\n\n        currentBlocktime = _currentBlocktime;\n        updateBlockIssuanceWithBlocktime();\n        \n    }\n\n    // Add a new lp to the pool. Can only be called by the owner.\n    function add(\n        uint256 _allocPoint,\n        IERC20 _lpToken,\n        bool _withUpdate\n    ) public onlyOwner nonDuplicateAndValid(_lpToken) {\n        if (_withUpdate) {\n            massUpdatePools();\n        }\n        uint256 lastRewardBlock =\n            block.number > startBlock ? block.number : startBlock;\n        totalAllocPoint = totalAllocPoint.add(_allocPoint);\n        poolExistence[_lpToken] = true;\n        poolInfo.push(\n            PoolInfo({\n                lpToken: _lpToken,\n                allocPoint: _allocPoint,\n                lastRewardBlock: lastRewardBlock,\n                accOpenSwapPerShare: 1\n            })\n        );\n    }\n\n    // Update the given pool's OpenSwap allocation point. Can only be called by the owner.\n    function set(\n        uint256 _pid,\n        uint256 _allocPoint,\n        bool _withUpdate\n    ) public onlyOwner validPID(_pid){\n        if (_withUpdate) {\n            massUpdatePools();\n        }\n        totalAllocPoint = totalAllocPoint.sub(poolInfo[_pid].allocPoint).add(\n            _allocPoint\n        );\n        poolInfo[_pid].allocPoint = _allocPoint;\n    }\n\n\n    // Return reward multiplier over the given _from to _to block.\n    function getMultiplier(uint256 _from, uint256 _to)\n        public\n        view\n        returns (uint256)\n    {\n        if (_to <= bonusEndBlock) {\n            return _to.sub(_from).mul(BONUS_MULTIPLIER);\n        } else if (_from >= bonusEndBlock) {\n            return _to.sub(_from);\n        } else {\n            return\n                bonusEndBlock.sub(_from).mul(BONUS_MULTIPLIER).add(\n                    _to.sub(bonusEndBlock)\n                );\n        }\n    }\n\n    // View function to see pending SUSHIs on frontend.\n    function pendingOpenSwap(uint256 _pid, address _user)\n        external\n        view\n        validPID(_pid)\n        returns (uint256)\n        {\n        PoolInfo storage pool = poolInfo[_pid];\n        UserInfo storage user = userInfo[_pid][_user];\n        uint256 accOpenSwapPerShare = pool.accOpenSwapPerShare;\n        uint256 lpSupply = pool.lpToken.balanceOf(address(this));\n        if (block.number > pool.lastRewardBlock && lpSupply != 0) {\n            uint256 multiplier =\n                getMultiplier(pool.lastRewardBlock, block.number);\n            uint256 OpenSwapReward =\n                multiplier.mul(OpenSwapPerBlock).mul(pool.allocPoint).div(\n                    totalAllocPoint\n                );\n            accOpenSwapPerShare = accOpenSwapPerShare.add(\n                OpenSwapReward.mul(1e12).div(lpSupply)\n            );\n        }\n        return user.amount.mul(accOpenSwapPerShare).div(1e12).sub(user.rewardDebt);\n    }\n    function amountStaked(uint256 _pid, address _user)\n        external\n        view\n        validPID(_pid)\n        returns (uint256)\n    {\n        UserInfo storage user = userInfo[_pid][_user];\n        return user.amount;\n\n    }\n\n    // Update reward vairables for all pools. Be careful of gas spending!\n    function massUpdatePools() public {\n        uint256 length = poolInfo.length;\n        for (uint256 pid = 0; pid < length; ++pid) {\n            updatePool(pid);\n        }\n    }\n\n    // Update reward variables of the given pool to be up-to-date.\n    function updatePool(uint256 _pid) public validPID(_pid) {\n        PoolInfo storage pool = poolInfo[_pid];\n        if (block.number <= pool.lastRewardBlock) {\n            return;\n        }\n        uint256 lpSupply = pool.lpToken.balanceOf(address(this));\n        if (lpSupply == 0) {\n            pool.lastRewardBlock = block.number;\n            return;\n        }\n        uint256 multiplier = getMultiplier(pool.lastRewardBlock, block.number);\n        uint256 OpenSwapReward =\n            multiplier.mul(OpenSwapPerBlock).mul(pool.allocPoint).div(\n                totalAllocPoint\n            );\n        OpenSwap.mint(devaddr, OpenSwapReward.div(devDivisor));\n        OpenSwap.mint(address(this), OpenSwapReward);\n        pool.accOpenSwapPerShare = pool.accOpenSwapPerShare.add(\n            OpenSwapReward.mul(1e12).div(lpSupply)\n        );\n        pool.lastRewardBlock = block.number;\n    }\n\n    // Deposit LP tokens to MasterChef for OpenSwap allocation.\n    function deposit(uint256 _pid, uint256 _amount) public validPID(_pid) nonReentrant {\n        PoolInfo storage pool = poolInfo[_pid];\n        UserInfo storage user = userInfo[_pid][msg.sender];\n        updatePool(_pid);\n\n        if (user.amount > 0) {\n            uint256 pending = user.amount.mul(pool.accOpenSwapPerShare).div(1e12).sub(user.rewardDebt);\n            if (pending > 0) {\n                safeTokenTransfer(msg.sender, pending);\n            }\n        }\n\n        if (_amount > 0) {\n            uint256 balanceBefore = pool.lpToken.balanceOf(address(this));\n            pool.lpToken.safeTransferFrom(address(msg.sender), address(this), _amount);\n            uint256 finalAmount = pool.lpToken.balanceOf(address(this)).sub(balanceBefore);\n            user.amount = user.amount.add(finalAmount);\n        }\n        \n        user.rewardDebt = user.amount.mul(pool.accOpenSwapPerShare).div(1e12);\n        emit Deposit(msg.sender, _pid, _amount);\n    }\n\n    // ext deposit is to be called by a contract that must have the lp tokens. it will credit the account passed in as _user\n    // allows 1 click deposit and stake of LP.\n    // it also collects and send the user's farm rewards to his wallet.\n    // does NOT transfer _user LP tokens.\n    function extDeposit(uint256 _pid, uint256 _amount, address _user) public onlyDepositor validPID(_pid) nonReentrant {\n        PoolInfo storage pool = poolInfo[_pid];\n        UserInfo storage user = userInfo[_pid][_user];//gets the user info passed in as parameter\n        updatePool(_pid);\n\n        if (user.amount > 0) {\n            uint256 pending = user.amount.mul(pool.accOpenSwapPerShare).div(1e12).sub(user.rewardDebt);\n            if (pending > 0) {\n                safeTokenTransfer(_user, pending); //Send rewards to _user not msg.sender\n            }\n        }\n\n        if (_amount > 0) {\n            uint256 balanceBefore = pool.lpToken.balanceOf(address(this));\n\n            //does not take _user but msg.sender to take the LP tokens\n            pool.lpToken.safeTransferFrom(address(msg.sender), address(this), _amount);\n            uint256 finalAmount = pool.lpToken.balanceOf(address(this)).sub(balanceBefore);\n            user.amount = user.amount.add(finalAmount);\n        }\n        \n        user.rewardDebt = user.amount.mul(pool.accOpenSwapPerShare).div(1e12);\n        emit Deposit(msg.sender, _pid, _amount);\n    }\n\n    // Withdraw LP tokens from MasterChef.\n    function withdraw(uint256 _pid, uint256 _amount) public validPID(_pid) nonReentrant{\n        PoolInfo storage pool = poolInfo[_pid];\n        UserInfo storage user = userInfo[_pid][msg.sender];\n        require(user.amount >= _amount, \"withdraw: not good\");\n        updatePool(_pid);\n        uint256 pending =\n            user.amount.mul(pool.accOpenSwapPerShare).div(1e12).sub(\n                user.rewardDebt\n            );\n        safeTokenTransfer(msg.sender, pending);\n        user.amount = user.amount.sub(_amount);\n        user.rewardDebt = user.amount.mul(pool.accOpenSwapPerShare).div(1e12);\n        pool.lpToken.safeTransfer(address(msg.sender), _amount);\n        emit Withdraw(msg.sender, _pid, _amount);\n    }\n\n    //Withdraw users Openswap token by Collector address. Allows some flexibility to the dev.\n    //Does not withdraw LPs\n    function extWithdraw(uint256 _pid, address _user)\n    public onlyCollector validPID(_pid) nonReentrant{\n        uint256 _amount = 0; //HardCoded 0 Amount: Withdraw only Openswap tokens and not LP tokens\n        PoolInfo storage pool = poolInfo[_pid];\n        UserInfo storage user = userInfo[_pid][_user];\n        require(user.amount >= _amount, \"withdraw: not good\");\n        updatePool(_pid);\n        uint256 pending =\n            user.amount.mul(pool.accOpenSwapPerShare).div(1e12).sub(\n                user.rewardDebt\n            );\n\n        if (pending > 0) {\n            safeTokenTransfer(_user, pending);\n        }\n\n        user.rewardDebt = user.amount.mul(pool.accOpenSwapPerShare).div(1e12);\n        emit Withdraw(_user, _pid, _amount);\n    }\n\n    function collectAll() public {\n        for (uint256 i = 0; i < poolInfo.length-1 ; i++) {\n          withdraw(i, 0);\n        }\n    }\n\n    // Withdraw without caring about rewards. EMERGENCY ONLY.\n    function emergencyWithdraw(uint256 _pid) public validPID(_pid) nonReentrant {\n        PoolInfo storage pool = poolInfo[_pid];\n        UserInfo storage user = userInfo[_pid][msg.sender];\n        pool.lpToken.safeTransfer(address(msg.sender), user.amount);\n        emit EmergencyWithdraw(msg.sender, _pid, user.amount);\n        user.amount = 0;\n        user.rewardDebt = 0;\n    }\n\n    // Safe OpenSwap transfer function, just in case if rounding error causes pool to not have enough SUSHIs.\n    function safeTokenTransfer(address _to, uint256 _amount) internal {\n        uint256 tokenBal = OpenSwap.balanceOf(address(this));\n        bool transferSuccess = false;\n        if (_amount > tokenBal) {\n            transferSuccess = OpenSwap.transfer(_to, tokenBal);\n        } else {\n            transferSuccess = OpenSwap.transfer(_to, _amount);\n        }\n        require(transferSuccess, \"safeTokenTransfer: transfer failed\");\n    }\n    //allows dev to lower his reward mint percentage by increasing divisor.\n    function lowerDevFund() public onlyOwner{\n        require(devDivisor < 255, 'Thats it Folks !'); // prevents overflow\n        devDivisor += 1;\n        emit DevFundLowered(devDivisor);\n    }\n\n    // Update dev address by the previous dev.\n    function dev(address _devaddr) public {\n        require(msg.sender == devaddr, \"The Dev says: Non.\");\n        devaddr = _devaddr;\n    }\n\n    function collector(address _collectoraddr) public {\n        require(msg.sender == rewardCollector || msg.sender == devaddr, \"The Dev says: Non. \");\n        rewardCollector = _collectoraddr;\n    }\n\n\n    function depositor(address _depositoraddr) public {\n        require(msg.sender == lpDepositor|| msg.sender == devaddr, \"The dev says: Non. \");\n        lpDepositor = _depositoraddr;\n    }\n}\n",
  "sourcePath": "/home/alex/dev/openswapv2/contracts/MasterChef.sol",
  "compiler": {
    "name": "solc",
    "version": "0.6.12+commit.27d51765.Emscripten.clang"
  },
  "schemaVersion": "3.4.3",
  "updatedAt": "2021-10-21T20:00:49.256Z",
  "devdoc": {
    "kind": "dev",
    "methods": {},
    "version": 1
  },
  "userdoc": {
    "kind": "user",
    "methods": {},
    "version": 1
  }
}