{
  "contractName": "OpenSwapBridge",
  "abi": [
    {
      "inputs": [
        {
          "internalType": "contract IERC20",
          "name": "_openswapV1",
          "type": "address"
        },
        {
          "internalType": "contract OpenSwapToken",
          "name": "_openswapV2",
          "type": "address"
        }
      ],
      "stateMutability": "nonpayable",
      "type": "constructor"
    },
    {
      "anonymous": false,
      "inputs": [
        {
          "indexed": true,
          "internalType": "address",
          "name": "user",
          "type": "address"
        },
        {
          "indexed": false,
          "internalType": "uint256",
          "name": "amount",
          "type": "uint256"
        }
      ],
      "name": "Bridge",
      "type": "event"
    },
    {
      "inputs": [
        {
          "internalType": "uint256",
          "name": "_amount",
          "type": "uint256"
        }
      ],
      "name": "convert",
      "outputs": [],
      "stateMutability": "nonpayable",
      "type": "function"
    }
  ],
  "bytecode": "0x6080604052600380546001600160a01b03191661dead60901b17905534801561002757600080fd5b5060405161034f38038061034f8339818101604052604081101561004a57600080fd5b5080516020909101516001600081905580546001600160a01b039384166001600160a01b031991821617909155600280549390921692169190911790556102b9806100966000396000f3fe608060405234801561001057600080fd5b506004361061002b5760003560e01c8063a3908e1b14610030575b600080fd5b61004d6004803603602081101561004657600080fd5b503561004f565b005b600260005414156100a7576040805162461bcd60e51b815260206004820152601f60248201527f5265656e7472616e637947756172643a207265656e7472616e742063616c6c00604482015290519081900360640190fd5b6002600055333214610100576040805162461bcd60e51b815260206004820152601760248201527f4d7573742062652063616c6c6564206469726563746c79000000000000000000604482015290519081900360640190fd5b600154600354604080516323b872dd60e01b81523360048201526001600160a01b03928316602482015260448101859052905160009392909216916323b872dd9160648082019260209290919082900301818787803b15801561016257600080fd5b505af1158015610176573d6000803e3d6000fd5b505050506040513d602081101561018c57600080fd5b505190506001811515146101d9576040805162461bcd60e51b815260206004820152600f60248201526e1d1c985b9cd9995c8819985a5b1959608a1b604482015290519081900360640190fd5b600254604080516346154c9f60e11b81523360048201526024810185905290516001600160a01b0390921691638c2a993e9160448082019260009290919082900301818387803b15801561022c57600080fd5b505af1158015610240573d6000803e3d6000fd5b50506040805185815290513393507f22e3f162fca16dc0fcfb65eddf406531a0c555a2c24c58cf5d10fc2d202a882e92509081900360200190a25050600160005556fea264697066735822122088f47d751857c39c047e9f90db13ee44dfc5ca6dbf49d812ba6895eb6a2b14ad64736f6c634300060c0033",
  "immutableReferences": {},
  "source": "// SPDX-License-Identifier: MIT\n\npragma solidity 0.6.12;\n\nimport \"@openzeppelin/contracts/token/ERC20/IERC20.sol\";\nimport \"@openzeppelin/contracts/utils/ReentrancyGuard.sol\";\nimport \"./OpenSwapToken.sol\";\n\n\ncontract OpenSwapBridge is ReentrancyGuard {\n\tIERC20 openswapV1;\n\tOpenSwapToken openswapV2;\n\taddress burnAddress = 0xdEad000000000000000000000000000000000000;\n\n\tconstructor(IERC20 _openswapV1, OpenSwapToken _openswapV2) public {\n\t\topenswapV1 = _openswapV1;\n\t\topenswapV2 = _openswapV2;\n\t}\n\n\tevent Bridge(address indexed user, uint amount);\n\n\tfunction convert(uint256 _amount) public nonReentrant {\n\t\trequire(msg.sender == tx.origin, \"Must be called directly\");\n\n\t\tbool success = false;\n\n\t\tsuccess = openswapV1.transferFrom(msg.sender, burnAddress, _amount);\n\n\t\trequire(success == true, 'transfer failed');\n\n\t\topenswapV2.bridgeMint(msg.sender, _amount);\n\t\temit Bridge(msg.sender, _amount);\n\t\t\n\t}\n}",
  "sourcePath": "/home/alex/dev/openswapv2/contracts/OpenSwapBridge.sol",
  "compiler": {
    "name": "solc",
    "version": "0.6.12+commit.27d51765.Emscripten.clang"
  },
  "schemaVersion": "3.4.3",
  "updatedAt": "2021-10-15T09:49:55.953Z",
  "devdoc": {
    "kind": "dev",
    "methods": {},
    "version": 1
  },
  "userdoc": {
    "kind": "user",
    "methods": {},
    "version": 1
  }
}