{
  "contractName": "OpenSwapBridge",
  "abi": [
    {
      "inputs": [
        {
          "internalType": "contract IERC20",
          "name": "_openswapV1",
          "type": "address"
        },
        {
          "internalType": "contract OpenSwapToken",
          "name": "_openswapV2",
          "type": "address"
        }
      ],
      "stateMutability": "nonpayable",
      "type": "constructor"
    },
    {
      "anonymous": false,
      "inputs": [
        {
          "indexed": true,
          "internalType": "address",
          "name": "user",
          "type": "address"
        },
        {
          "indexed": false,
          "internalType": "uint256",
          "name": "amount",
          "type": "uint256"
        }
      ],
      "name": "Bridge",
      "type": "event"
    },
    {
      "anonymous": false,
      "inputs": [
        {
          "indexed": true,
          "internalType": "address",
          "name": "previousOwner",
          "type": "address"
        },
        {
          "indexed": true,
          "internalType": "address",
          "name": "newOwner",
          "type": "address"
        }
      ],
      "name": "OwnershipTransferred",
      "type": "event"
    },
    {
      "inputs": [],
      "name": "claimOwnership",
      "outputs": [],
      "stateMutability": "nonpayable",
      "type": "function"
    },
    {
      "inputs": [],
      "name": "owner",
      "outputs": [
        {
          "internalType": "address",
          "name": "",
          "type": "address"
        }
      ],
      "stateMutability": "view",
      "type": "function"
    },
    {
      "inputs": [],
      "name": "pendingOwner",
      "outputs": [
        {
          "internalType": "address",
          "name": "",
          "type": "address"
        }
      ],
      "stateMutability": "view",
      "type": "function"
    },
    {
      "inputs": [
        {
          "internalType": "address",
          "name": "newOwner",
          "type": "address"
        },
        {
          "internalType": "bool",
          "name": "direct",
          "type": "bool"
        },
        {
          "internalType": "bool",
          "name": "renounce",
          "type": "bool"
        }
      ],
      "name": "transferOwnership",
      "outputs": [],
      "stateMutability": "nonpayable",
      "type": "function"
    },
    {
      "inputs": [
        {
          "internalType": "uint256",
          "name": "_amount",
          "type": "uint256"
        }
      ],
      "name": "convert",
      "outputs": [],
      "stateMutability": "nonpayable",
      "type": "function"
    }
  ],
  "bytecode": "0x6080604052600580546001600160a01b03191661dead60901b17905534801561002757600080fd5b5060405161063c38038061063c8339818101604052604081101561004a57600080fd5b508051602090910151600080546001600160a01b0319163390811782556040519091907f8be0079c531659141344cd1fd0a4f28419497f9722a3daafe3b4186f6b6457e0908290a36001600255600380546001600160a01b039384166001600160a01b0319918216179091556004805492909316911617905561056a806100d26000396000f3fe608060405234801561001057600080fd5b50600436106100575760003560e01c8063078dfbe71461005c5780634e71e0c8146100945780638da5cb5b1461009c578063a3908e1b146100c0578063e30c3978146100dd575b600080fd5b6100926004803603606081101561007257600080fd5b506001600160a01b038135169060208101351515906040013515156100e5565b005b610092610221565b6100a46102e3565b604080516001600160a01b039092168252519081900360200190f35b610092600480360360208110156100d657600080fd5b50356102f2565b6100a4610525565b6000546001600160a01b03163314610144576040805162461bcd60e51b815260206004820181905260248201527f4f776e61626c653a2063616c6c6572206973206e6f7420746865206f776e6572604482015290519081900360640190fd5b8115610200576001600160a01b03831615158061015e5750805b6101a7576040805162461bcd60e51b81526020600482015260156024820152744f776e61626c653a207a65726f206164647265737360581b604482015290519081900360640190fd5b600080546040516001600160a01b03808716939216917f8be0079c531659141344cd1fd0a4f28419497f9722a3daafe3b4186f6b6457e091a3600080546001600160a01b0319166001600160a01b03851617905561021c565b600180546001600160a01b0319166001600160a01b0385161790555b505050565b6001546001600160a01b0316338114610281576040805162461bcd60e51b815260206004820181905260248201527f4f776e61626c653a2063616c6c657220213d2070656e64696e67206f776e6572604482015290519081900360640190fd5b600080546040516001600160a01b03808516939216917f8be0079c531659141344cd1fd0a4f28419497f9722a3daafe3b4186f6b6457e091a3600080546001600160a01b039092166001600160a01b0319928316179055600180549091169055565b6000546001600160a01b031681565b600280541415610349576040805162461bcd60e51b815260206004820152601f60248201527f5265656e7472616e637947756172643a207265656e7472616e742063616c6c00604482015290519081900360640190fd5b600280553332146103a1576040805162461bcd60e51b815260206004820152601760248201527f4d7573742062652063616c6c6564206469726563746c79000000000000000000604482015290519081900360640190fd5b600354600554604080516323b872dd60e01b81523360048201526001600160a01b03928316602482015260448101859052905160009392909216916323b872dd9160648082019260209290919082900301818787803b15801561040357600080fd5b505af1158015610417573d6000803e3d6000fd5b505050506040513d602081101561042d57600080fd5b5051905060018115151461047a576040805162461bcd60e51b815260206004820152600f60248201526e1d1c985b9cd9995c8819985a5b1959608a1b604482015290519081900360640190fd5b60048054604080516346154c9f60e11b8152339381019390935260248301859052516001600160a01b0390911691638c2a993e91604480830192600092919082900301818387803b1580156104ce57600080fd5b505af11580156104e2573d6000803e3d6000fd5b50506040805185815290513393507f22e3f162fca16dc0fcfb65eddf406531a0c555a2c24c58cf5d10fc2d202a882e92509081900360200190a250506001600255565b6001546001600160a01b03168156fea2646970667358221220bc655e6eded515e26f32b17f7fab456744eda3c07eb75ff8b8fb7cba02d655ba64736f6c634300060c0033",
  "immutableReferences": {},
  "source": "// SPDX-License-Identifier: MIT\n\npragma solidity 0.6.12;\n\nimport \"@openzeppelin/contracts/token/ERC20/IERC20.sol\";\nimport \"@openzeppelin/contracts/utils/ReentrancyGuard.sol\";\nimport \"./OpenSwapToken.sol\";\nimport \"./Ownable.sol\";\n\n\ncontract OpenSwapBridge is Ownable, ReentrancyGuard {\n\tIERC20 openswapV1;\n\tOpenSwapToken openswapV2;\n\taddress burnAddress = 0xdEad000000000000000000000000000000000000;\n\n\tconstructor(IERC20 _openswapV1, OpenSwapToken _openswapV2) public {\n\t\topenswapV1 = _openswapV1;\n\t\topenswapV2 = _openswapV2;\n\t}\n\n\tevent Bridge(address indexed user, uint amount);\n\n\tfunction convert(uint256 _amount) public nonReentrant {\n\t\trequire(msg.sender == tx.origin, \"Must be called directly\");\n\n\t\tbool success = false;\n\n\t\tsuccess = openswapV1.transferFrom(msg.sender, burnAddress, _amount);\n\n\t\trequire(success == true, 'transfer failed');\n\n\t\topenswapV2.bridgeMint(msg.sender, _amount);\n\t\temit Bridge(msg.sender, _amount);\n\t\t\n\t}\n\n\n}",
  "sourcePath": "/home/alex/dev/openswapv2/contracts/OpenSwapBridge.sol",
  "compiler": {
    "name": "solc",
    "version": "0.6.12+commit.27d51765.Emscripten.clang"
  },
  "schemaVersion": "3.4.3",
  "updatedAt": "2021-10-13T18:29:26.302Z",
  "networkType": "ethereum",
  "devdoc": {
    "kind": "dev",
    "methods": {},
    "version": 1
  },
  "userdoc": {
    "kind": "user",
    "methods": {},
    "version": 1
  }
}