{
  "contractName": "OpenSwapToken",
  "abi": [
    {
      "inputs": [
        {
          "internalType": "contract IOpenVote",
          "name": "_voteAddress",
          "type": "address"
        }
      ],
      "stateMutability": "nonpayable",
      "type": "constructor"
    },
    {
      "anonymous": false,
      "inputs": [
        {
          "indexed": true,
          "internalType": "address",
          "name": "owner",
          "type": "address"
        },
        {
          "indexed": true,
          "internalType": "address",
          "name": "spender",
          "type": "address"
        },
        {
          "indexed": false,
          "internalType": "uint256",
          "name": "value",
          "type": "uint256"
        }
      ],
      "name": "Approval",
      "type": "event"
    },
    {
      "anonymous": false,
      "inputs": [
        {
          "indexed": true,
          "internalType": "address",
          "name": "oldAddr",
          "type": "address"
        },
        {
          "indexed": true,
          "internalType": "address",
          "name": "newAddr",
          "type": "address"
        }
      ],
      "name": "BridgeAddressChange",
      "type": "event"
    },
    {
      "anonymous": false,
      "inputs": [
        {
          "indexed": false,
          "internalType": "bool",
          "name": "isClosed",
          "type": "bool"
        }
      ],
      "name": "BridgeClosed",
      "type": "event"
    },
    {
      "anonymous": false,
      "inputs": [
        {
          "indexed": true,
          "internalType": "address",
          "name": "user",
          "type": "address"
        },
        {
          "indexed": false,
          "internalType": "uint256",
          "name": "amount",
          "type": "uint256"
        }
      ],
      "name": "BridgeMint",
      "type": "event"
    },
    {
      "anonymous": false,
      "inputs": [
        {
          "indexed": true,
          "internalType": "address",
          "name": "oldAddr",
          "type": "address"
        },
        {
          "indexed": true,
          "internalType": "address",
          "name": "newAddr",
          "type": "address"
        }
      ],
      "name": "BridgeSetterChanged",
      "type": "event"
    },
    {
      "anonymous": false,
      "inputs": [
        {
          "indexed": true,
          "internalType": "address",
          "name": "oldAddr",
          "type": "address"
        },
        {
          "indexed": true,
          "internalType": "address",
          "name": "newAddr",
          "type": "address"
        }
      ],
      "name": "DevChanged",
      "type": "event"
    },
    {
      "anonymous": false,
      "inputs": [
        {
          "indexed": true,
          "internalType": "address",
          "name": "user",
          "type": "address"
        },
        {
          "indexed": false,
          "internalType": "uint256",
          "name": "amount",
          "type": "uint256"
        }
      ],
      "name": "Mint",
      "type": "event"
    },
    {
      "anonymous": false,
      "inputs": [
        {
          "indexed": true,
          "internalType": "address",
          "name": "previousOwner",
          "type": "address"
        },
        {
          "indexed": true,
          "internalType": "address",
          "name": "newOwner",
          "type": "address"
        }
      ],
      "name": "OwnershipTransferred",
      "type": "event"
    },
    {
      "anonymous": false,
      "inputs": [
        {
          "indexed": true,
          "internalType": "address",
          "name": "from",
          "type": "address"
        },
        {
          "indexed": true,
          "internalType": "address",
          "name": "to",
          "type": "address"
        },
        {
          "indexed": false,
          "internalType": "uint256",
          "name": "value",
          "type": "uint256"
        }
      ],
      "name": "Transfer",
      "type": "event"
    },
    {
      "inputs": [
        {
          "internalType": "address",
          "name": "owner",
          "type": "address"
        },
        {
          "internalType": "address",
          "name": "spender",
          "type": "address"
        }
      ],
      "name": "allowance",
      "outputs": [
        {
          "internalType": "uint256",
          "name": "",
          "type": "uint256"
        }
      ],
      "stateMutability": "view",
      "type": "function"
    },
    {
      "inputs": [
        {
          "internalType": "address",
          "name": "spender",
          "type": "address"
        },
        {
          "internalType": "uint256",
          "name": "amount",
          "type": "uint256"
        }
      ],
      "name": "approve",
      "outputs": [
        {
          "internalType": "bool",
          "name": "",
          "type": "bool"
        }
      ],
      "stateMutability": "nonpayable",
      "type": "function"
    },
    {
      "inputs": [
        {
          "internalType": "address",
          "name": "account",
          "type": "address"
        }
      ],
      "name": "balanceOf",
      "outputs": [
        {
          "internalType": "uint256",
          "name": "",
          "type": "uint256"
        }
      ],
      "stateMutability": "view",
      "type": "function"
    },
    {
      "inputs": [],
      "name": "bridgeAddress",
      "outputs": [
        {
          "internalType": "address",
          "name": "",
          "type": "address"
        }
      ],
      "stateMutability": "view",
      "type": "function"
    },
    {
      "inputs": [],
      "name": "bridgeOpen",
      "outputs": [
        {
          "internalType": "bool",
          "name": "",
          "type": "bool"
        }
      ],
      "stateMutability": "view",
      "type": "function"
    },
    {
      "inputs": [],
      "name": "bridgeSetter",
      "outputs": [
        {
          "internalType": "address",
          "name": "",
          "type": "address"
        }
      ],
      "stateMutability": "view",
      "type": "function"
    },
    {
      "inputs": [],
      "name": "burnCount",
      "outputs": [
        {
          "internalType": "uint256",
          "name": "",
          "type": "uint256"
        }
      ],
      "stateMutability": "view",
      "type": "function"
    },
    {
      "inputs": [],
      "name": "claimOwnership",
      "outputs": [],
      "stateMutability": "nonpayable",
      "type": "function"
    },
    {
      "inputs": [],
      "name": "decimals",
      "outputs": [
        {
          "internalType": "uint8",
          "name": "",
          "type": "uint8"
        }
      ],
      "stateMutability": "view",
      "type": "function"
    },
    {
      "inputs": [
        {
          "internalType": "address",
          "name": "spender",
          "type": "address"
        },
        {
          "internalType": "uint256",
          "name": "subtractedValue",
          "type": "uint256"
        }
      ],
      "name": "decreaseAllowance",
      "outputs": [
        {
          "internalType": "bool",
          "name": "",
          "type": "bool"
        }
      ],
      "stateMutability": "nonpayable",
      "type": "function"
    },
    {
      "inputs": [],
      "name": "devAddr",
      "outputs": [
        {
          "internalType": "address",
          "name": "",
          "type": "address"
        }
      ],
      "stateMutability": "view",
      "type": "function"
    },
    {
      "inputs": [
        {
          "internalType": "address",
          "name": "spender",
          "type": "address"
        },
        {
          "internalType": "uint256",
          "name": "addedValue",
          "type": "uint256"
        }
      ],
      "name": "increaseAllowance",
      "outputs": [
        {
          "internalType": "bool",
          "name": "",
          "type": "bool"
        }
      ],
      "stateMutability": "nonpayable",
      "type": "function"
    },
    {
      "inputs": [],
      "name": "name",
      "outputs": [
        {
          "internalType": "string",
          "name": "",
          "type": "string"
        }
      ],
      "stateMutability": "view",
      "type": "function"
    },
    {
      "inputs": [],
      "name": "owner",
      "outputs": [
        {
          "internalType": "address",
          "name": "",
          "type": "address"
        }
      ],
      "stateMutability": "view",
      "type": "function"
    },
    {
      "inputs": [],
      "name": "pendingOwner",
      "outputs": [
        {
          "internalType": "address",
          "name": "",
          "type": "address"
        }
      ],
      "stateMutability": "view",
      "type": "function"
    },
    {
      "inputs": [],
      "name": "symbol",
      "outputs": [
        {
          "internalType": "string",
          "name": "",
          "type": "string"
        }
      ],
      "stateMutability": "view",
      "type": "function"
    },
    {
      "inputs": [],
      "name": "totalSupply",
      "outputs": [
        {
          "internalType": "uint256",
          "name": "",
          "type": "uint256"
        }
      ],
      "stateMutability": "view",
      "type": "function"
    },
    {
      "inputs": [
        {
          "internalType": "address",
          "name": "recipient",
          "type": "address"
        },
        {
          "internalType": "uint256",
          "name": "amount",
          "type": "uint256"
        }
      ],
      "name": "transfer",
      "outputs": [
        {
          "internalType": "bool",
          "name": "",
          "type": "bool"
        }
      ],
      "stateMutability": "nonpayable",
      "type": "function"
    },
    {
      "inputs": [
        {
          "internalType": "address",
          "name": "sender",
          "type": "address"
        },
        {
          "internalType": "address",
          "name": "recipient",
          "type": "address"
        },
        {
          "internalType": "uint256",
          "name": "amount",
          "type": "uint256"
        }
      ],
      "name": "transferFrom",
      "outputs": [
        {
          "internalType": "bool",
          "name": "",
          "type": "bool"
        }
      ],
      "stateMutability": "nonpayable",
      "type": "function"
    },
    {
      "inputs": [
        {
          "internalType": "address",
          "name": "newOwner",
          "type": "address"
        },
        {
          "internalType": "bool",
          "name": "direct",
          "type": "bool"
        },
        {
          "internalType": "bool",
          "name": "renounce",
          "type": "bool"
        }
      ],
      "name": "transferOwnership",
      "outputs": [],
      "stateMutability": "nonpayable",
      "type": "function"
    },
    {
      "inputs": [],
      "name": "voteToken",
      "outputs": [
        {
          "internalType": "contract IOpenVote",
          "name": "",
          "type": "address"
        }
      ],
      "stateMutability": "view",
      "type": "function"
    },
    {
      "inputs": [
        {
          "internalType": "address",
          "name": "_to",
          "type": "address"
        },
        {
          "internalType": "uint256",
          "name": "_amount",
          "type": "uint256"
        }
      ],
      "name": "mint",
      "outputs": [],
      "stateMutability": "nonpayable",
      "type": "function"
    },
    {
      "inputs": [
        {
          "internalType": "address",
          "name": "_to",
          "type": "address"
        },
        {
          "internalType": "uint256",
          "name": "_amount",
          "type": "uint256"
        }
      ],
      "name": "bridgeMint",
      "outputs": [],
      "stateMutability": "nonpayable",
      "type": "function"
    },
    {
      "inputs": [
        {
          "internalType": "address",
          "name": "_bridgeAddress",
          "type": "address"
        }
      ],
      "name": "setBridgeAddress",
      "outputs": [],
      "stateMutability": "nonpayable",
      "type": "function"
    },
    {
      "inputs": [
        {
          "internalType": "address",
          "name": "_bridgeSetter",
          "type": "address"
        }
      ],
      "name": "setBridgeSetter",
      "outputs": [],
      "stateMutability": "nonpayable",
      "type": "function"
    },
    {
      "inputs": [],
      "name": "closeBridge",
      "outputs": [],
      "stateMutability": "nonpayable",
      "type": "function"
    },
    {
      "inputs": [
        {
          "internalType": "address",
          "name": "_dev",
          "type": "address"
        }
      ],
      "name": "dev",
      "outputs": [],
      "stateMutability": "nonpayable",
      "type": "function"
    },
    {
      "inputs": [
        {
          "internalType": "address",
          "name": "_account",
          "type": "address"
        },
        {
          "internalType": "uint256",
          "name": "_amount",
          "type": "uint256"
        }
      ],
      "name": "burn",
      "outputs": [],
      "stateMutability": "nonpayable",
      "type": "function"
    }
  ],
  "bytecode": "0x6080604052600a805460ff60a01b1916600160a01b1790553480156200002457600080fd5b5060405162001a2f38038062001a2f833981810160405260208110156200004a57600080fd5b5051604080518082018252600e81526d27b832b729bbb0b8102a37b5b2b760911b60208281019182528351808501909452600584526409ee0cadcb60db1b9084015281519192916200009f916003916200013f565b508051620000b59060049060208401906200013f565b505060058054601260ff1990911617610100600160a81b03191661010033908102919091179091556040519091506000907f8be0079c531659141344cd1fd0a4f28419497f9722a3daafe3b4186f6b6457e0908290a360088054336001600160a01b031991821617909155600780549091166001600160a01b0392909216919091179055620001db565b828054600181600116156101000203166002900490600052602060002090601f016020900481019282601f106200018257805160ff1916838001178555620001b2565b82800160010185558215620001b2579182015b82811115620001b257825182559160200191906001019062000195565b50620001c0929150620001c4565b5090565b5b80821115620001c05760008155600101620001c5565b61184480620001eb6000396000f3fe608060405234801561001057600080fd5b50600436106101c45760003560e01c806370a08231116100f9578063a3c573eb11610097578063d40077b011610071578063d40077b01461050a578063da09c72c14610530578063dd62ed3e14610538578063e30c397814610566576101c4565b8063a3c573eb146104aa578063a457c2d7146104b2578063a9059cbb146104de576101c4565b80638d88a90e116100d35780638d88a90e146104485780638da5cb5b1461046e57806395d89b41146104765780639dc29fac1461047e576101c4565b806370a08231146103d05780637f5a22f9146103f65780638c2a993e1461041c576101c4565b80631b89ee31116101665780633950935111610140578063395093511461036857806340c10f19146103945780634e71e0c8146103c0578063524773ce146103c8576101c4565b80631b89ee311461030c57806323b872dd14610314578063313ce5671461034a576101c4565b8063095ea7b3116101a2578063095ea7b31461029a5780630d7ab2bf146102c6578063160d66ae146102ea57806318160ddd146102f2576101c4565b806306fdde03146101c9578063078dfbe71461024657806308702e091461027e575b600080fd5b6101d161056e565b6040805160208082528351818301528351919283929083019185019080838360005b8381101561020b5781810151838201526020016101f3565b50505050905090810190601f1680156102385780820380516001836020036101000a031916815260200191505b509250505060405180910390f35b61027c6004803603606081101561025c57600080fd5b506001600160a01b03813516906020810135151590604001351515610604565b005b610286610750565b604080519115158252519081900360200190f35b610286600480360360408110156102b057600080fd5b506001600160a01b038135169060200135610760565b6102ce61077d565b604080516001600160a01b039092168252519081900360200190f35b6102ce61078c565b6102fa61079b565b60408051918252519081900360200190f35b61027c6107a1565b6102866004803603606081101561032a57600080fd5b506001600160a01b038135811691602081013590911690604001356107fb565b610352610882565b6040805160ff9092168252519081900360200190f35b6102866004803603604081101561037e57600080fd5b506001600160a01b03813516906020013561088b565b61027c600480360360408110156103aa57600080fd5b506001600160a01b0381351690602001356108d9565b61027c6109f7565b6102fa610ace565b6102fa600480360360208110156103e657600080fd5b50356001600160a01b0316610ad4565b61027c6004803603602081101561040c57600080fd5b50356001600160a01b0316610aef565b61027c6004803603604081101561043257600080fd5b506001600160a01b038135169060200135610bdb565b61027c6004803603602081101561045e57600080fd5b50356001600160a01b0316610d9e565b6102ce610e11565b6101d1610e25565b61027c6004803603604081101561049457600080fd5b506001600160a01b038135169060200135610e86565b6102ce610ee3565b610286600480360360408110156104c857600080fd5b506001600160a01b038135169060200135610ef2565b610286600480360360408110156104f457600080fd5b506001600160a01b038135169060200135610f5a565b61027c6004803603602081101561052057600080fd5b50356001600160a01b0316610f6e565b6102ce61105a565b6102fa6004803603604081101561054e57600080fd5b506001600160a01b0381358116916020013516611069565b6102ce611094565b60038054604080516020601f60026000196101006001881615020190951694909404938401819004810282018101909252828152606093909290918301828280156105fa5780601f106105cf576101008083540402835291602001916105fa565b820191906000526020600020905b8154815290600101906020018083116105dd57829003601f168201915b5050505050905090565b60055461010090046001600160a01b03163314610668576040805162461bcd60e51b815260206004820181905260248201527f4f776e61626c653a2063616c6c6572206973206e6f7420746865206f776e6572604482015290519081900360640190fd5b811561072f576001600160a01b0383161515806106825750805b6106cb576040805162461bcd60e51b81526020600482015260156024820152744f776e61626c653a207a65726f206164647265737360581b604482015290519081900360640190fd5b6005546040516001600160a01b0380861692610100900416907f8be0079c531659141344cd1fd0a4f28419497f9722a3daafe3b4186f6b6457e090600090a360058054610100600160a81b0319166101006001600160a01b0386160217905561074b565b600680546001600160a01b0319166001600160a01b0385161790555b505050565b600a54600160a01b900460ff1681565b600061077461076d6110a3565b84846110a7565b50600192915050565b600a546001600160a01b031681565b6007546001600160a01b031681565b60025490565b6008546001600160a01b031633146107b857600080fd5b600a805460ff60a01b19169055604080516001815290517f881ba03d4a15e36ab81a2104076e89c6c509ca69371b7b4aacc6c54921de66119181900360200190a1565b6000610808848484611193565b610878846108146110a3565b610873856040518060600160405280602881526020016116e4602891396001600160a01b038a166000908152600160205260408120906108526110a3565b6001600160a01b0316815260208101919091526040016000205491906112ee565b6110a7565b5060019392505050565b60055460ff1690565b60006107746108986110a3565b8461087385600160006108a96110a3565b6001600160a01b03908116825260208083019390935260409182016000908120918c168152925290205490611385565b60055461010090046001600160a01b0316331461093d576040805162461bcd60e51b815260206004820181905260248201527f4f776e61626c653a2063616c6c6572206973206e6f7420746865206f776e6572604482015290519081900360640190fd5b600754604080516340c10f1960e01b81526001600160a01b03858116600483015260248201859052915191909216916340c10f1991604480830192600092919082900301818387803b15801561099257600080fd5b505af11580156109a6573d6000803e3d6000fd5b505050506109b482826113e6565b6040805182815290516001600160a01b038416917f0f6798a560793a54c3bcfe86a93cde1e73087d944c0ea20544137d4121396885919081900360200190a25050565b6006546001600160a01b0316338114610a57576040805162461bcd60e51b815260206004820181905260248201527f4f776e61626c653a2063616c6c657220213d2070656e64696e67206f776e6572604482015290519081900360640190fd5b6005546040516001600160a01b0380841692610100900416907f8be0079c531659141344cd1fd0a4f28419497f9722a3daafe3b4186f6b6457e090600090a3600580546001600160a01b0390921661010002610100600160a81b0319909216919091179055600680546001600160a01b0319169055565b600b5481565b6001600160a01b031660009081526020819052604090205490565b600a546001600160a01b0316610b365760405162461bcd60e51b815260040180806020018281038252603081526020018061170c6030913960400191505060405180910390fd5b600a546001600160a01b03163314610b7f5760405162461bcd60e51b81526004018080602001828103825260278152602001806116bd6027913960400191505060405180910390fd5b6009546040516001600160a01b038084169216907fbd3222ede8945253aebc8d1aac208df0baf898be3ef32e45c97346b64b5b310c90600090a3600980546001600160a01b0319166001600160a01b0392909216919091179055565b6009546001600160a01b03163314610c245760405162461bcd60e51b81526004018080602001828103825260218152602001806117a66021913960400191505060405180910390fd5b6009546001600160a01b0316610c81576040805162461bcd60e51b815260206004820152601b60248201527f5265766572743a20427269646765206d757374206265207365742e0000000000604482015290519081900360640190fd5b600a54600160a01b900460ff161515600114610ce4576040805162461bcd60e51b815260206004820152601c60248201527f5265766572743a20427269646765206d757374206265206f70656e2e00000000604482015290519081900360640190fd5b600754604080516340c10f1960e01b81526001600160a01b03858116600483015260248201859052915191909216916340c10f1991604480830192600092919082900301818387803b158015610d3957600080fd5b505af1158015610d4d573d6000803e3d6000fd5b50505050610d5b82826113e6565b6040805182815290516001600160a01b038416917f397b33b307fc137878ebfc75b295289ec0ee25a31bb5bf034f33256fe8ea2aa6919081900360200190a25050565b6008546001600160a01b03163314610db557600080fd5b6008546040516001600160a01b038084169216907f5d777218f34a12264a9fec685df1868059eeec6d632b17a1775a00089e57533a90600090a3600880546001600160a01b0319166001600160a01b0392909216919091179055565b60055461010090046001600160a01b031681565b60048054604080516020601f60026000196101006001881615020190951694909404938401819004810282018101909252828152606093909290918301828280156105fa5780601f106105cf576101008083540402835291602001916105fa565b6001600160a01b0382163314610ecd5760405162461bcd60e51b81526004018080602001828103825260238152602001806117c76023913960400191505060405180910390fd5b610ed782826114d6565b600b8054909101905550565b6009546001600160a01b031681565b6000610774610eff6110a3565b84610873856040518060600160405280602581526020016117ea6025913960016000610f296110a3565b6001600160a01b03908116825260208083019390935260409182016000908120918d168152925290205491906112ee565b6000610774610f676110a3565b8484611193565b600a546001600160a01b0316610fb55760405162461bcd60e51b815260040180806020018281038252603081526020018061170c6030913960400191505060405180910390fd5b600a546001600160a01b03163314610ffe5760405162461bcd60e51b81526004018080602001828103825260278152602001806116bd6027913960400191505060405180910390fd5b600a546040516001600160a01b038084169216907f52ce3c1f3d58109c77402ac0fc72a6465d9d89fe94567c48d361b82cb783118590600090a3600a80546001600160a01b0319166001600160a01b0392909216919091179055565b6008546001600160a01b031681565b6001600160a01b03918216600090815260016020908152604080832093909416825291909152205490565b6006546001600160a01b031681565b3390565b6001600160a01b0383166110ec5760405162461bcd60e51b81526004018080602001828103825260248152602001806117826024913960400191505060405180910390fd5b6001600160a01b0382166111315760405162461bcd60e51b81526004018080602001828103825260228152602001806116756022913960400191505060405180910390fd5b6001600160a01b03808416600081815260016020908152604080832094871680845294825291829020859055815185815291517f8c5be1e5ebec7d5bd14f71427d1e84f3dd0314c0f7b2291e5b200ac8c7c3b9259281900390910190a3505050565b6001600160a01b0383166111d85760405162461bcd60e51b815260040180806020018281038252602581526020018061175d6025913960400191505060405180910390fd5b6001600160a01b03821661121d5760405162461bcd60e51b81526004018080602001828103825260238152602001806116306023913960400191505060405180910390fd5b61122883838361074b565b61126581604051806060016040528060268152602001611697602691396001600160a01b03861660009081526020819052604090205491906112ee565b6001600160a01b0380851660009081526020819052604080822093909355908416815220546112949082611385565b6001600160a01b038084166000818152602081815260409182902094909455805185815290519193928716927fddf252ad1be2c89b69c2b068fc378daa952ba7f163c4a11628f55a4df523b3ef92918290030190a3505050565b6000818484111561137d5760405162461bcd60e51b81526004018080602001828103825283818151815260200191508051906020019080838360005b8381101561134257818101518382015260200161132a565b50505050905090810190601f16801561136f5780820380516001836020036101000a031916815260200191505b509250505060405180910390fd5b505050900390565b6000828201838110156113df576040805162461bcd60e51b815260206004820152601b60248201527f536166654d6174683a206164646974696f6e206f766572666c6f770000000000604482015290519081900360640190fd5b9392505050565b6001600160a01b038216611441576040805162461bcd60e51b815260206004820152601f60248201527f45524332303a206d696e7420746f20746865207a65726f206164647265737300604482015290519081900360640190fd5b61144d6000838361074b565b60025461145a9082611385565b6002556001600160a01b0382166000908152602081905260409020546114809082611385565b6001600160a01b0383166000818152602081815260408083209490945583518581529351929391927fddf252ad1be2c89b69c2b068fc378daa952ba7f163c4a11628f55a4df523b3ef9281900390910190a35050565b6001600160a01b03821661151b5760405162461bcd60e51b815260040180806020018281038252602181526020018061173c6021913960400191505060405180910390fd5b6115278260008361074b565b61156481604051806060016040528060228152602001611653602291396001600160a01b03851660009081526020819052604090205491906112ee565b6001600160a01b03831660009081526020819052604090205560025461158a90826115d2565b6002556040805182815290516000916001600160a01b038516917fddf252ad1be2c89b69c2b068fc378daa952ba7f163c4a11628f55a4df523b3ef9181900360200190a35050565b600082821115611629576040805162461bcd60e51b815260206004820152601e60248201527f536166654d6174683a207375627472616374696f6e206f766572666c6f770000604482015290519081900360640190fd5b5090039056fe45524332303a207472616e7366657220746f20746865207a65726f206164647265737345524332303a206275726e20616d6f756e7420657863656564732062616c616e636545524332303a20617070726f766520746f20746865207a65726f206164647265737345524332303a207472616e7366657220616d6f756e7420657863656564732062616c616e63655265766572743a206d7573742062652063616c6c6564206279204272696467655365747465722e45524332303a207472616e7366657220616d6f756e74206578636565647320616c6c6f77616e63655265766572743a204272696467652063616e277420626520736574206166746572206265696e67207265766f6b65642e45524332303a206275726e2066726f6d20746865207a65726f206164647265737345524332303a207472616e736665722066726f6d20746865207a65726f206164647265737345524332303a20617070726f76652066726f6d20746865207a65726f20616464726573735265766572743a206d7573742062652063616c6c6564206279206272696467652e596f752063616e2774206275726e20746f6b656e7320796f7520646f6e74206f776e2e45524332303a2064656372656173656420616c6c6f77616e63652062656c6f77207a65726fa2646970667358221220a4ceb9480c88e9a7dc11bac567fa3148a4ab37dfed7bc6cd9fcab43a2ff07d1264736f6c634300060c0033",
  "immutableReferences": {},
  "source": "// SPDX-License-Identifier: MIT\n\npragma solidity 0.6.12;\n\nimport \"@openzeppelin/contracts/token/ERC20/ERC20.sol\";\nimport \"./interfaces/IOpenVote.sol\";\nimport \"./Ownable.sol\";\n\n\n// OpenSwap Token with bridge token logic and non-transferable non-valuable Vote token\n\n//Bridge\n// it can only be closed.\n// it can only be set once\n// Bridge Setter is set during deployement to add bridge address after deployement, //Bridge needs openswap to be deployed prior\n// then it is set at 0 address to remove the right to change bridge address.\n// Dev address can only change itself, and close bridge. has no power over anything.\n\n//OpenSwap Token\n//Can Only be minted by Masterchef\n//Can be burnt\n//Is the owner of VoteTokens\n//Mints VoteTokens 1:1 OpenSwap TOKENS\n\n\ncontract OpenSwapToken is ERC20(\"OpenSwap Token\", \"OpenX\"), Ownable {\n    IOpenVote public voteToken;\n    address public devAddr;\n    address public bridgeAddress;\n    address public bridgeSetter;\n    bool public bridgeOpen = true;\n\n    uint256 public burnCount;\n\n\n    event Mint(address indexed user, uint amount);\n    event BridgeMint(address indexed user, uint amount);\n    event BridgeAddressChange(address indexed oldAddr, address indexed newAddr);\n    event BridgeClosed(bool isClosed);\n    event DevChanged(address indexed oldAddr, address indexed newAddr);\n    event BridgeSetterChanged(address indexed oldAddr, address indexed newAddr);\n   \n    modifier bridgeChecks{\n        require(msg.sender == bridgeAddress, \"Revert: must be called by bridge.\");\n        require(bridgeAddress != address(0), 'Revert: Bridge must be set.');\n        require(bridgeOpen == true, 'Revert: Bridge must be open.');\n        _;\n    }\n\n    modifier onlyBridgeSetter{\n        require(bridgeSetter != address(0), \"Revert: Bridge can't be set after being revoked.\");\n        require(msg.sender == bridgeSetter, \"Revert: must be called by BridgeSetter.\");\n        _;\n    }\n\n    modifier onlyDev{\n        require(msg.sender == devAddr);\n        _;\n    }\n\n    constructor(IOpenVote _voteAddress) public{\n        devAddr = msg.sender;\n        voteToken = _voteAddress;\n    }\n\n    function mint(address _to, uint256 _amount) public onlyOwner {\n        voteToken.mint(_to, _amount);\n        _mint(_to, _amount);\n        emit Mint(_to, _amount);\n    }\n\n    function bridgeMint(address _to, uint256 _amount) public bridgeChecks {\n        voteToken.mint(_to, _amount);\n        _mint(_to, _amount);\n        emit BridgeMint(_to, _amount);\n    }\n\n    function setBridgeAddress(address _bridgeAddress) public onlyBridgeSetter {\n        emit BridgeAddressChange(bridgeAddress,_bridgeAddress);\n        bridgeAddress = _bridgeAddress;\n\n    }\n\n    function setBridgeSetter(address _bridgeSetter) public onlyBridgeSetter{\n        emit BridgeSetterChanged(bridgeSetter, _bridgeSetter);\n        bridgeSetter = _bridgeSetter;\n    }\n\n    function closeBridge() public onlyDev{\n        bridgeOpen = false;\n        emit BridgeClosed(true);\n    }\n\n    function dev(address _dev) public onlyDev{\n        emit DevChanged(devAddr,_dev);\n        devAddr = _dev;\n    }\n\n    function burn(address _account, uint256 _amount) public {\n        require(_account == msg.sender, \"You can't burn tokens you dont own.\");\n        _burn(_account, _amount);\n        burnCount = burnCount + _amount;\n    }\n\n}",
  "sourcePath": "/home/alex/dev/openswapv2/contracts/OpenSwapToken.sol",
  "compiler": {
    "name": "solc",
    "version": "0.6.12+commit.27d51765.Emscripten.clang"
  },
  "schemaVersion": "3.4.3",
  "updatedAt": "2021-10-15T09:49:55.954Z",
  "devdoc": {
    "kind": "dev",
    "methods": {
      "allowance(address,address)": {
        "details": "See {IERC20-allowance}."
      },
      "approve(address,uint256)": {
        "details": "See {IERC20-approve}. Requirements: - `spender` cannot be the zero address."
      },
      "balanceOf(address)": {
        "details": "See {IERC20-balanceOf}."
      },
      "decimals()": {
        "details": "Returns the number of decimals used to get its user representation. For example, if `decimals` equals `2`, a balance of `505` tokens should be displayed to a user as `5,05` (`505 / 10 ** 2`). Tokens usually opt for a value of 18, imitating the relationship between Ether and Wei. This is the value {ERC20} uses, unless {_setupDecimals} is called. NOTE: This information is only used for _display_ purposes: it in no way affects any of the arithmetic of the contract, including {IERC20-balanceOf} and {IERC20-transfer}."
      },
      "decreaseAllowance(address,uint256)": {
        "details": "Atomically decreases the allowance granted to `spender` by the caller. This is an alternative to {approve} that can be used as a mitigation for problems described in {IERC20-approve}. Emits an {Approval} event indicating the updated allowance. Requirements: - `spender` cannot be the zero address. - `spender` must have allowance for the caller of at least `subtractedValue`."
      },
      "increaseAllowance(address,uint256)": {
        "details": "Atomically increases the allowance granted to `spender` by the caller. This is an alternative to {approve} that can be used as a mitigation for problems described in {IERC20-approve}. Emits an {Approval} event indicating the updated allowance. Requirements: - `spender` cannot be the zero address."
      },
      "name()": {
        "details": "Returns the name of the token."
      },
      "symbol()": {
        "details": "Returns the symbol of the token, usually a shorter version of the name."
      },
      "totalSupply()": {
        "details": "See {IERC20-totalSupply}."
      },
      "transfer(address,uint256)": {
        "details": "See {IERC20-transfer}. Requirements: - `recipient` cannot be the zero address. - the caller must have a balance of at least `amount`."
      },
      "transferFrom(address,address,uint256)": {
        "details": "See {IERC20-transferFrom}. Emits an {Approval} event indicating the updated allowance. This is not required by the EIP. See the note at the beginning of {ERC20}. Requirements: - `sender` and `recipient` cannot be the zero address. - `sender` must have a balance of at least `amount`. - the caller must have allowance for ``sender``'s tokens of at least `amount`."
      }
    },
    "version": 1
  },
  "userdoc": {
    "kind": "user",
    "methods": {},
    "version": 1
  }
}