{
  "contractName": "OpenSwapToken",
  "abi": [
    {
      "inputs": [
        {
          "internalType": "contract IOpenVote",
          "name": "_voteAddress",
          "type": "address"
        }
      ],
      "stateMutability": "nonpayable",
      "type": "constructor"
    },
    {
      "anonymous": false,
      "inputs": [
        {
          "indexed": true,
          "internalType": "address",
          "name": "owner",
          "type": "address"
        },
        {
          "indexed": true,
          "internalType": "address",
          "name": "spender",
          "type": "address"
        },
        {
          "indexed": false,
          "internalType": "uint256",
          "name": "value",
          "type": "uint256"
        }
      ],
      "name": "Approval",
      "type": "event"
    },
    {
      "anonymous": false,
      "inputs": [
        {
          "indexed": true,
          "internalType": "address",
          "name": "oldAddr",
          "type": "address"
        },
        {
          "indexed": true,
          "internalType": "address",
          "name": "newAddr",
          "type": "address"
        }
      ],
      "name": "BridgeAddressChange",
      "type": "event"
    },
    {
      "anonymous": false,
      "inputs": [
        {
          "indexed": false,
          "internalType": "bool",
          "name": "isClosed",
          "type": "bool"
        }
      ],
      "name": "BridgeClosed",
      "type": "event"
    },
    {
      "anonymous": false,
      "inputs": [
        {
          "indexed": true,
          "internalType": "address",
          "name": "user",
          "type": "address"
        },
        {
          "indexed": false,
          "internalType": "uint256",
          "name": "amount",
          "type": "uint256"
        }
      ],
      "name": "BridgeMint",
      "type": "event"
    },
    {
      "anonymous": false,
      "inputs": [
        {
          "indexed": true,
          "internalType": "address",
          "name": "oldAddr",
          "type": "address"
        },
        {
          "indexed": true,
          "internalType": "address",
          "name": "newAddr",
          "type": "address"
        }
      ],
      "name": "BridgeSetterChanged",
      "type": "event"
    },
    {
      "anonymous": false,
      "inputs": [
        {
          "indexed": true,
          "internalType": "address",
          "name": "oldAddr",
          "type": "address"
        },
        {
          "indexed": true,
          "internalType": "address",
          "name": "newAddr",
          "type": "address"
        }
      ],
      "name": "DevChanged",
      "type": "event"
    },
    {
      "anonymous": false,
      "inputs": [
        {
          "indexed": true,
          "internalType": "address",
          "name": "user",
          "type": "address"
        },
        {
          "indexed": false,
          "internalType": "uint256",
          "name": "amount",
          "type": "uint256"
        }
      ],
      "name": "Mint",
      "type": "event"
    },
    {
      "anonymous": false,
      "inputs": [
        {
          "indexed": true,
          "internalType": "address",
          "name": "previousOwner",
          "type": "address"
        },
        {
          "indexed": true,
          "internalType": "address",
          "name": "newOwner",
          "type": "address"
        }
      ],
      "name": "OwnershipTransferred",
      "type": "event"
    },
    {
      "anonymous": false,
      "inputs": [
        {
          "indexed": true,
          "internalType": "address",
          "name": "from",
          "type": "address"
        },
        {
          "indexed": true,
          "internalType": "address",
          "name": "to",
          "type": "address"
        },
        {
          "indexed": false,
          "internalType": "uint256",
          "name": "value",
          "type": "uint256"
        }
      ],
      "name": "Transfer",
      "type": "event"
    },
    {
      "inputs": [
        {
          "internalType": "address",
          "name": "owner",
          "type": "address"
        },
        {
          "internalType": "address",
          "name": "spender",
          "type": "address"
        }
      ],
      "name": "allowance",
      "outputs": [
        {
          "internalType": "uint256",
          "name": "",
          "type": "uint256"
        }
      ],
      "stateMutability": "view",
      "type": "function"
    },
    {
      "inputs": [
        {
          "internalType": "address",
          "name": "spender",
          "type": "address"
        },
        {
          "internalType": "uint256",
          "name": "amount",
          "type": "uint256"
        }
      ],
      "name": "approve",
      "outputs": [
        {
          "internalType": "bool",
          "name": "",
          "type": "bool"
        }
      ],
      "stateMutability": "nonpayable",
      "type": "function"
    },
    {
      "inputs": [
        {
          "internalType": "address",
          "name": "account",
          "type": "address"
        }
      ],
      "name": "balanceOf",
      "outputs": [
        {
          "internalType": "uint256",
          "name": "",
          "type": "uint256"
        }
      ],
      "stateMutability": "view",
      "type": "function"
    },
    {
      "inputs": [],
      "name": "bridgeAddress",
      "outputs": [
        {
          "internalType": "address",
          "name": "",
          "type": "address"
        }
      ],
      "stateMutability": "view",
      "type": "function"
    },
    {
      "inputs": [],
      "name": "bridgeOpen",
      "outputs": [
        {
          "internalType": "bool",
          "name": "",
          "type": "bool"
        }
      ],
      "stateMutability": "view",
      "type": "function"
    },
    {
      "inputs": [],
      "name": "bridgeSet",
      "outputs": [
        {
          "internalType": "bool",
          "name": "",
          "type": "bool"
        }
      ],
      "stateMutability": "view",
      "type": "function"
    },
    {
      "inputs": [],
      "name": "bridgeSetter",
      "outputs": [
        {
          "internalType": "address",
          "name": "",
          "type": "address"
        }
      ],
      "stateMutability": "view",
      "type": "function"
    },
    {
      "inputs": [],
      "name": "burnCount",
      "outputs": [
        {
          "internalType": "uint256",
          "name": "",
          "type": "uint256"
        }
      ],
      "stateMutability": "view",
      "type": "function"
    },
    {
      "inputs": [],
      "name": "claimOwnership",
      "outputs": [],
      "stateMutability": "nonpayable",
      "type": "function"
    },
    {
      "inputs": [],
      "name": "decimals",
      "outputs": [
        {
          "internalType": "uint8",
          "name": "",
          "type": "uint8"
        }
      ],
      "stateMutability": "view",
      "type": "function"
    },
    {
      "inputs": [
        {
          "internalType": "address",
          "name": "spender",
          "type": "address"
        },
        {
          "internalType": "uint256",
          "name": "subtractedValue",
          "type": "uint256"
        }
      ],
      "name": "decreaseAllowance",
      "outputs": [
        {
          "internalType": "bool",
          "name": "",
          "type": "bool"
        }
      ],
      "stateMutability": "nonpayable",
      "type": "function"
    },
    {
      "inputs": [],
      "name": "devAddr",
      "outputs": [
        {
          "internalType": "address",
          "name": "",
          "type": "address"
        }
      ],
      "stateMutability": "view",
      "type": "function"
    },
    {
      "inputs": [
        {
          "internalType": "address",
          "name": "spender",
          "type": "address"
        },
        {
          "internalType": "uint256",
          "name": "addedValue",
          "type": "uint256"
        }
      ],
      "name": "increaseAllowance",
      "outputs": [
        {
          "internalType": "bool",
          "name": "",
          "type": "bool"
        }
      ],
      "stateMutability": "nonpayable",
      "type": "function"
    },
    {
      "inputs": [],
      "name": "name",
      "outputs": [
        {
          "internalType": "string",
          "name": "",
          "type": "string"
        }
      ],
      "stateMutability": "view",
      "type": "function"
    },
    {
      "inputs": [],
      "name": "owner",
      "outputs": [
        {
          "internalType": "address",
          "name": "",
          "type": "address"
        }
      ],
      "stateMutability": "view",
      "type": "function"
    },
    {
      "inputs": [],
      "name": "pendingOwner",
      "outputs": [
        {
          "internalType": "address",
          "name": "",
          "type": "address"
        }
      ],
      "stateMutability": "view",
      "type": "function"
    },
    {
      "inputs": [],
      "name": "symbol",
      "outputs": [
        {
          "internalType": "string",
          "name": "",
          "type": "string"
        }
      ],
      "stateMutability": "view",
      "type": "function"
    },
    {
      "inputs": [],
      "name": "totalSupply",
      "outputs": [
        {
          "internalType": "uint256",
          "name": "",
          "type": "uint256"
        }
      ],
      "stateMutability": "view",
      "type": "function"
    },
    {
      "inputs": [
        {
          "internalType": "address",
          "name": "recipient",
          "type": "address"
        },
        {
          "internalType": "uint256",
          "name": "amount",
          "type": "uint256"
        }
      ],
      "name": "transfer",
      "outputs": [
        {
          "internalType": "bool",
          "name": "",
          "type": "bool"
        }
      ],
      "stateMutability": "nonpayable",
      "type": "function"
    },
    {
      "inputs": [
        {
          "internalType": "address",
          "name": "sender",
          "type": "address"
        },
        {
          "internalType": "address",
          "name": "recipient",
          "type": "address"
        },
        {
          "internalType": "uint256",
          "name": "amount",
          "type": "uint256"
        }
      ],
      "name": "transferFrom",
      "outputs": [
        {
          "internalType": "bool",
          "name": "",
          "type": "bool"
        }
      ],
      "stateMutability": "nonpayable",
      "type": "function"
    },
    {
      "inputs": [
        {
          "internalType": "address",
          "name": "newOwner",
          "type": "address"
        },
        {
          "internalType": "bool",
          "name": "direct",
          "type": "bool"
        },
        {
          "internalType": "bool",
          "name": "renounce",
          "type": "bool"
        }
      ],
      "name": "transferOwnership",
      "outputs": [],
      "stateMutability": "nonpayable",
      "type": "function"
    },
    {
      "inputs": [],
      "name": "voteToken",
      "outputs": [
        {
          "internalType": "contract IOpenVote",
          "name": "",
          "type": "address"
        }
      ],
      "stateMutability": "view",
      "type": "function"
    },
    {
      "inputs": [
        {
          "internalType": "address",
          "name": "_to",
          "type": "address"
        },
        {
          "internalType": "uint256",
          "name": "_amount",
          "type": "uint256"
        }
      ],
      "name": "mint",
      "outputs": [],
      "stateMutability": "nonpayable",
      "type": "function"
    },
    {
      "inputs": [
        {
          "internalType": "address",
          "name": "_to",
          "type": "address"
        },
        {
          "internalType": "uint256",
          "name": "_amount",
          "type": "uint256"
        }
      ],
      "name": "bridgeMint",
      "outputs": [],
      "stateMutability": "nonpayable",
      "type": "function"
    },
    {
      "inputs": [
        {
          "internalType": "address",
          "name": "_bridgeAddress",
          "type": "address"
        }
      ],
      "name": "setBridgeAddress",
      "outputs": [],
      "stateMutability": "nonpayable",
      "type": "function"
    },
    {
      "inputs": [
        {
          "internalType": "address",
          "name": "_bridgeSetter",
          "type": "address"
        }
      ],
      "name": "setBridgeSetter",
      "outputs": [],
      "stateMutability": "nonpayable",
      "type": "function"
    },
    {
      "inputs": [],
      "name": "closeBridge",
      "outputs": [],
      "stateMutability": "nonpayable",
      "type": "function"
    },
    {
      "inputs": [
        {
          "internalType": "address",
          "name": "_dev",
          "type": "address"
        }
      ],
      "name": "dev",
      "outputs": [],
      "stateMutability": "nonpayable",
      "type": "function"
    },
    {
      "inputs": [
        {
          "internalType": "address",
          "name": "_account",
          "type": "address"
        },
        {
          "internalType": "uint256",
          "name": "_amount",
          "type": "uint256"
        }
      ],
      "name": "burn",
      "outputs": [],
      "stateMutability": "nonpayable",
      "type": "function"
    }
  ],
  "bytecode": "0x6080604052600a805460ff60a81b1960ff60a01b19909116600160a01b171690553480156200002d57600080fd5b5060405162001ae238038062001ae2833981810160405260208110156200005357600080fd5b5051604080518082018252600e81526d27b832b729bbb0b8102a37b5b2b760911b60208281019182528351808501909452600584526409ee0cadcb60db1b908401528151919291620000a89160039162000155565b508051620000be90600490602084019062000155565b505060058054601260ff1990911617610100600160a81b03191661010033908102919091179091556040519091506000907f8be0079c531659141344cd1fd0a4f28419497f9722a3daafe3b4186f6b6457e0908290a360088054336001600160a01b03199182168117909255600a80548216909217909155600780549091166001600160a01b0392909216919091179055620001f1565b828054600181600116156101000203166002900490600052602060002090601f016020900481019282601f106200019857805160ff1916838001178555620001c8565b82800160010185558215620001c8579182015b82811115620001c8578251825591602001919060010190620001ab565b50620001d6929150620001da565b5090565b5b80821115620001d65760008155600101620001db565b6118e180620002016000396000f3fe608060405234801561001057600080fd5b50600436106101cf5760003560e01c8063524773ce116101045780639dc29fac116100a2578063d40077b011610071578063d40077b01461051d578063da09c72c14610543578063dd62ed3e1461054b578063e30c397814610579576101cf565b80639dc29fac14610491578063a3c573eb146104bd578063a457c2d7146104c5578063a9059cbb146104f1576101cf565b80638c2a993e116100de5780638c2a993e1461042f5780638d88a90e1461045b5780638da5cb5b1461048157806395d89b4114610489576101cf565b8063524773ce146103db57806370a08231146103e35780637f5a22f914610409576101cf565b80631b89ee3111610171578063395093511161014b578063395093511461037357806339afd14e1461039f57806340c10f19146103a75780634e71e0c8146103d3576101cf565b80631b89ee311461031757806323b872dd1461031f578063313ce56714610355576101cf565b8063095ea7b3116101ad578063095ea7b3146102a55780630d7ab2bf146102d1578063160d66ae146102f557806318160ddd146102fd576101cf565b806306fdde03146101d4578063078dfbe71461025157806308702e0914610289575b600080fd5b6101dc610581565b6040805160208082528351818301528351919283929083019185019080838360005b838110156102165781810151838201526020016101fe565b50505050905090810190601f1680156102435780820380516001836020036101000a031916815260200191505b509250505060405180910390f35b6102876004803603606081101561026757600080fd5b506001600160a01b03813516906020810135151590604001351515610617565b005b610291610773565b604080519115158252519081900360200190f35b610291600480360360408110156102bb57600080fd5b506001600160a01b038135169060200135610783565b6102d96107a0565b604080516001600160a01b039092168252519081900360200190f35b6102d96107af565b6103056107be565b60408051918252519081900360200190f35b6102876107c4565b6102916004803603606081101561033557600080fd5b506001600160a01b0381358116916020810135909116906040013561081e565b61035d6108a5565b6040805160ff9092168252519081900360200190f35b6102916004803603604081101561038957600080fd5b506001600160a01b0381351690602001356108ae565b6102916108fc565b610287600480360360408110156103bd57600080fd5b506001600160a01b03813516906020013561090c565b610287610a2a565b610305610b01565b610305600480360360208110156103f957600080fd5b50356001600160a01b0316610b07565b6102876004803603602081101561041f57600080fd5b50356001600160a01b0316610b22565b6102876004803603604081101561044557600080fd5b506001600160a01b038135169060200135610c78565b6102876004803603602081101561047157600080fd5b50356001600160a01b0316610e3b565b6102d9610eae565b6101dc610ec2565b610287600480360360408110156104a757600080fd5b506001600160a01b038135169060200135610f23565b6102d9610f80565b610291600480360360408110156104db57600080fd5b506001600160a01b038135169060200135610f8f565b6102916004803603604081101561050757600080fd5b506001600160a01b038135169060200135610ff7565b6102876004803603602081101561053357600080fd5b50356001600160a01b031661100b565b6102d96110f7565b6103056004803603604081101561056157600080fd5b506001600160a01b0381358116916020013516611106565b6102d9611131565b60038054604080516020601f600260001961010060018816150201909516949094049384018190048102820181019092528281526060939092909183018282801561060d5780601f106105e25761010080835404028352916020019161060d565b820191906000526020600020905b8154815290600101906020018083116105f057829003601f168201915b5050505050905090565b60055461010090046001600160a01b0316331461067b576040805162461bcd60e51b815260206004820181905260248201527f4f776e61626c653a2063616c6c6572206973206e6f7420746865206f776e6572604482015290519081900360640190fd5b8115610752576001600160a01b0383161515806106955750805b6106de576040805162461bcd60e51b81526020600482015260156024820152744f776e61626c653a207a65726f206164647265737360581b604482015290519081900360640190fd5b6005546040516001600160a01b0380861692610100900416907f8be0079c531659141344cd1fd0a4f28419497f9722a3daafe3b4186f6b6457e090600090a360058054610100600160a81b0319166101006001600160a01b03861602179055600680546001600160a01b031916905561076e565b600680546001600160a01b0319166001600160a01b0385161790555b505050565b600a54600160a01b900460ff1681565b6000610797610790611140565b8484611144565b50600192915050565b600a546001600160a01b031681565b6007546001600160a01b031681565b60025490565b6008546001600160a01b031633146107db57600080fd5b600a805460ff60a01b19169055604080516001815290517f881ba03d4a15e36ab81a2104076e89c6c509ca69371b7b4aacc6c54921de66119181900360200190a1565b600061082b848484611230565b61089b84610837611140565b61089685604051806060016040528060288152602001611781602891396001600160a01b038a16600090815260016020526040812090610875611140565b6001600160a01b03168152602081019190915260400160002054919061138b565b611144565b5060019392505050565b60055460ff1690565b60006107976108bb611140565b8461089685600160006108cc611140565b6001600160a01b03908116825260208083019390935260409182016000908120918c168152925290205490611422565b600a54600160a81b900460ff1681565b60055461010090046001600160a01b03163314610970576040805162461bcd60e51b815260206004820181905260248201527f4f776e61626c653a2063616c6c6572206973206e6f7420746865206f776e6572604482015290519081900360640190fd5b600754604080516340c10f1960e01b81526001600160a01b03858116600483015260248201859052915191909216916340c10f1991604480830192600092919082900301818387803b1580156109c557600080fd5b505af11580156109d9573d6000803e3d6000fd5b505050506109e78282611483565b6040805182815290516001600160a01b038416917f0f6798a560793a54c3bcfe86a93cde1e73087d944c0ea20544137d4121396885919081900360200190a25050565b6006546001600160a01b0316338114610a8a576040805162461bcd60e51b815260206004820181905260248201527f4f776e61626c653a2063616c6c657220213d2070656e64696e67206f776e6572604482015290519081900360640190fd5b6005546040516001600160a01b0380841692610100900416907f8be0079c531659141344cd1fd0a4f28419497f9722a3daafe3b4186f6b6457e090600090a3600580546001600160a01b0390921661010002610100600160a81b0319909216919091179055600680546001600160a01b0319169055565b600b5481565b6001600160a01b031660009081526020819052604090205490565b600a546001600160a01b0316610b695760405162461bcd60e51b81526004018080602001828103825260308152602001806117a96030913960400191505060405180910390fd5b600a546001600160a01b03163314610bb25760405162461bcd60e51b815260040180806020018281038252602781526020018061175a6027913960400191505060405180910390fd5b600a54600160a81b900460ff1615610c08576040805162461bcd60e51b815260206004820152601460248201527343616e206f6e6c7920626520736574206f6e636560601b604482015290519081900360640190fd5b6009546040516001600160a01b038084169216907fbd3222ede8945253aebc8d1aac208df0baf898be3ef32e45c97346b64b5b310c90600090a3600980546001600160a01b039092166001600160a01b0319909216919091179055600a805460ff60a81b1916600160a81b179055565b6009546001600160a01b03163314610cc15760405162461bcd60e51b81526004018080602001828103825260218152602001806118436021913960400191505060405180910390fd5b6009546001600160a01b0316610d1e576040805162461bcd60e51b815260206004820152601b60248201527f5265766572743a20427269646765206d757374206265207365742e0000000000604482015290519081900360640190fd5b600a54600160a01b900460ff161515600114610d81576040805162461bcd60e51b815260206004820152601c60248201527f5265766572743a20427269646765206d757374206265206f70656e2e00000000604482015290519081900360640190fd5b600754604080516340c10f1960e01b81526001600160a01b03858116600483015260248201859052915191909216916340c10f1991604480830192600092919082900301818387803b158015610dd657600080fd5b505af1158015610dea573d6000803e3d6000fd5b50505050610df88282611483565b6040805182815290516001600160a01b038416917f397b33b307fc137878ebfc75b295289ec0ee25a31bb5bf034f33256fe8ea2aa6919081900360200190a25050565b6008546001600160a01b03163314610e5257600080fd5b6008546040516001600160a01b038084169216907f5d777218f34a12264a9fec685df1868059eeec6d632b17a1775a00089e57533a90600090a3600880546001600160a01b0319166001600160a01b0392909216919091179055565b60055461010090046001600160a01b031681565b60048054604080516020601f600260001961010060018816150201909516949094049384018190048102820181019092528281526060939092909183018282801561060d5780601f106105e25761010080835404028352916020019161060d565b6001600160a01b0382163314610f6a5760405162461bcd60e51b81526004018080602001828103825260238152602001806118646023913960400191505060405180910390fd5b610f748282611573565b600b8054909101905550565b6009546001600160a01b031681565b6000610797610f9c611140565b84610896856040518060600160405280602581526020016118876025913960016000610fc6611140565b6001600160a01b03908116825260208083019390935260409182016000908120918d1681529252902054919061138b565b6000610797611004611140565b8484611230565b600a546001600160a01b03166110525760405162461bcd60e51b81526004018080602001828103825260308152602001806117a96030913960400191505060405180910390fd5b600a546001600160a01b0316331461109b5760405162461bcd60e51b815260040180806020018281038252602781526020018061175a6027913960400191505060405180910390fd5b600a546040516001600160a01b038084169216907f52ce3c1f3d58109c77402ac0fc72a6465d9d89fe94567c48d361b82cb783118590600090a3600a80546001600160a01b0319166001600160a01b0392909216919091179055565b6008546001600160a01b031681565b6001600160a01b03918216600090815260016020908152604080832093909416825291909152205490565b6006546001600160a01b031681565b3390565b6001600160a01b0383166111895760405162461bcd60e51b815260040180806020018281038252602481526020018061181f6024913960400191505060405180910390fd5b6001600160a01b0382166111ce5760405162461bcd60e51b81526004018080602001828103825260228152602001806117126022913960400191505060405180910390fd5b6001600160a01b03808416600081815260016020908152604080832094871680845294825291829020859055815185815291517f8c5be1e5ebec7d5bd14f71427d1e84f3dd0314c0f7b2291e5b200ac8c7c3b9259281900390910190a3505050565b6001600160a01b0383166112755760405162461bcd60e51b81526004018080602001828103825260258152602001806117fa6025913960400191505060405180910390fd5b6001600160a01b0382166112ba5760405162461bcd60e51b81526004018080602001828103825260238152602001806116cd6023913960400191505060405180910390fd5b6112c583838361076e565b61130281604051806060016040528060268152602001611734602691396001600160a01b038616600090815260208190526040902054919061138b565b6001600160a01b0380851660009081526020819052604080822093909355908416815220546113319082611422565b6001600160a01b038084166000818152602081815260409182902094909455805185815290519193928716927fddf252ad1be2c89b69c2b068fc378daa952ba7f163c4a11628f55a4df523b3ef92918290030190a3505050565b6000818484111561141a5760405162461bcd60e51b81526004018080602001828103825283818151815260200191508051906020019080838360005b838110156113df5781810151838201526020016113c7565b50505050905090810190601f16801561140c5780820380516001836020036101000a031916815260200191505b509250505060405180910390fd5b505050900390565b60008282018381101561147c576040805162461bcd60e51b815260206004820152601b60248201527f536166654d6174683a206164646974696f6e206f766572666c6f770000000000604482015290519081900360640190fd5b9392505050565b6001600160a01b0382166114de576040805162461bcd60e51b815260206004820152601f60248201527f45524332303a206d696e7420746f20746865207a65726f206164647265737300604482015290519081900360640190fd5b6114ea6000838361076e565b6002546114f79082611422565b6002556001600160a01b03821660009081526020819052604090205461151d9082611422565b6001600160a01b0383166000818152602081815260408083209490945583518581529351929391927fddf252ad1be2c89b69c2b068fc378daa952ba7f163c4a11628f55a4df523b3ef9281900390910190a35050565b6001600160a01b0382166115b85760405162461bcd60e51b81526004018080602001828103825260218152602001806117d96021913960400191505060405180910390fd5b6115c48260008361076e565b611601816040518060600160405280602281526020016116f0602291396001600160a01b038516600090815260208190526040902054919061138b565b6001600160a01b038316600090815260208190526040902055600254611627908261166f565b6002556040805182815290516000916001600160a01b038516917fddf252ad1be2c89b69c2b068fc378daa952ba7f163c4a11628f55a4df523b3ef9181900360200190a35050565b6000828211156116c6576040805162461bcd60e51b815260206004820152601e60248201527f536166654d6174683a207375627472616374696f6e206f766572666c6f770000604482015290519081900360640190fd5b5090039056fe45524332303a207472616e7366657220746f20746865207a65726f206164647265737345524332303a206275726e20616d6f756e7420657863656564732062616c616e636545524332303a20617070726f766520746f20746865207a65726f206164647265737345524332303a207472616e7366657220616d6f756e7420657863656564732062616c616e63655265766572743a206d7573742062652063616c6c6564206279204272696467655365747465722e45524332303a207472616e7366657220616d6f756e74206578636565647320616c6c6f77616e63655265766572743a204272696467652063616e277420626520736574206166746572206265696e67207265766f6b65642e45524332303a206275726e2066726f6d20746865207a65726f206164647265737345524332303a207472616e736665722066726f6d20746865207a65726f206164647265737345524332303a20617070726f76652066726f6d20746865207a65726f20616464726573735265766572743a206d7573742062652063616c6c6564206279206272696467652e596f752063616e2774206275726e20746f6b656e7320796f7520646f6e74206f776e2e45524332303a2064656372656173656420616c6c6f77616e63652062656c6f77207a65726fa26469706673582212200d3edb0b22203a759c0920a7f9c08e2786cef14c5ddfab5bb47fdcaa01bd824c64736f6c634300060c0033",
  "immutableReferences": {},
  "source": "// SPDX-License-Identifier: MIT\n\npragma solidity 0.6.12;\n\nimport \"@openzeppelin/contracts/token/ERC20/ERC20.sol\";\nimport \"./interfaces/IOpenVote.sol\";\nimport \"./Ownable.sol\";\n\n\n// OpenSwap Token with bridge token logic and non-transferable non-valuable Vote token\n\n//Bridge\n// it can only be closed.\n// it can only be set once\n// Bridge Setter is set during deployement to add bridge address after deployement, //Bridge needs openswap to be deployed prior\n// then it is set at 0 address to remove the right to change bridge address.\n// Dev address can only change itself, and close bridge. has no power over anything.\n\n//OpenSwap Token\n//Can Only be minted by Masterchef\n//Can be burnt\n//Is the owner of VoteTokens\n//Mints VoteTokens 1:1 OpenSwap TOKENS\n\n\ncontract OpenSwapToken is ERC20(\"OpenSwap Token\", \"OpenX\"), Ownable {\n    IOpenVote public voteToken;\n    address public devAddr;\n    address public bridgeAddress;\n    address public bridgeSetter;\n    bool public bridgeOpen = true;\n    bool public bridgeSet = false;\n\n    uint256 public burnCount;\n\n\n    event Mint(address indexed user, uint amount);\n    event BridgeMint(address indexed user, uint amount);\n    event BridgeAddressChange(address indexed oldAddr, address indexed newAddr);\n    event BridgeClosed(bool isClosed);\n    event DevChanged(address indexed oldAddr, address indexed newAddr);\n    event BridgeSetterChanged(address indexed oldAddr, address indexed newAddr);\n   \n    modifier bridgeChecks{\n        require(msg.sender == bridgeAddress, \"Revert: must be called by bridge.\");\n        require(bridgeAddress != address(0), 'Revert: Bridge must be set.');\n        require(bridgeOpen == true, 'Revert: Bridge must be open.');\n        _;\n    }\n\n    modifier onlyBridgeSetter{\n        require(bridgeSetter != address(0), \"Revert: Bridge can't be set after being revoked.\");\n        require(msg.sender == bridgeSetter, \"Revert: must be called by BridgeSetter.\");\n        _;\n    }\n\n    modifier onlyDev{\n        require(msg.sender == devAddr);\n        _;\n    }\n\n    constructor(IOpenVote _voteAddress) public{\n        devAddr = msg.sender;\n        bridgeSetter = msg.sender;\n        voteToken = _voteAddress;\n    }\n\n    function mint(address _to, uint256 _amount) public onlyOwner {\n        voteToken.mint(_to, _amount);\n        _mint(_to, _amount);\n        emit Mint(_to, _amount);\n    }\n\n    function bridgeMint(address _to, uint256 _amount) public bridgeChecks {\n        voteToken.mint(_to, _amount);\n        _mint(_to, _amount);\n        emit BridgeMint(_to, _amount);\n    }\n\n    function setBridgeAddress(address _bridgeAddress) public onlyBridgeSetter {\n        require(bridgeSet == false, \"Can only be set once\");\n        emit BridgeAddressChange(bridgeAddress,_bridgeAddress);\n        bridgeAddress = _bridgeAddress;\n        bridgeSet = true;\n    }\n\n    function setBridgeSetter(address _bridgeSetter) public onlyBridgeSetter{\n        emit BridgeSetterChanged(bridgeSetter, _bridgeSetter);\n        bridgeSetter = _bridgeSetter;\n    }\n\n    function closeBridge() public onlyDev{\n        bridgeOpen = false;\n        emit BridgeClosed(true);\n    }\n\n    function dev(address _dev) public onlyDev{\n        emit DevChanged(devAddr,_dev);\n        devAddr = _dev;\n    }\n\n    function burn(address _account, uint256 _amount) public {\n        require(_account == msg.sender, \"You can't burn tokens you dont own.\");\n        _burn(_account, _amount);\n        burnCount = burnCount + _amount;\n    }\n\n}",
  "sourcePath": "/home/alex/dev/openswapv2/contracts/OpenSwapToken.sol",
  "compiler": {
    "name": "solc",
    "version": "0.6.12+commit.27d51765.Emscripten.clang"
  },
  "schemaVersion": "3.4.3",
  "updatedAt": "2021-10-21T19:23:03.664Z",
  "devdoc": {
    "kind": "dev",
    "methods": {
      "allowance(address,address)": {
        "details": "See {IERC20-allowance}."
      },
      "approve(address,uint256)": {
        "details": "See {IERC20-approve}. Requirements: - `spender` cannot be the zero address."
      },
      "balanceOf(address)": {
        "details": "See {IERC20-balanceOf}."
      },
      "decimals()": {
        "details": "Returns the number of decimals used to get its user representation. For example, if `decimals` equals `2`, a balance of `505` tokens should be displayed to a user as `5,05` (`505 / 10 ** 2`). Tokens usually opt for a value of 18, imitating the relationship between Ether and Wei. This is the value {ERC20} uses, unless {_setupDecimals} is called. NOTE: This information is only used for _display_ purposes: it in no way affects any of the arithmetic of the contract, including {IERC20-balanceOf} and {IERC20-transfer}."
      },
      "decreaseAllowance(address,uint256)": {
        "details": "Atomically decreases the allowance granted to `spender` by the caller. This is an alternative to {approve} that can be used as a mitigation for problems described in {IERC20-approve}. Emits an {Approval} event indicating the updated allowance. Requirements: - `spender` cannot be the zero address. - `spender` must have allowance for the caller of at least `subtractedValue`."
      },
      "increaseAllowance(address,uint256)": {
        "details": "Atomically increases the allowance granted to `spender` by the caller. This is an alternative to {approve} that can be used as a mitigation for problems described in {IERC20-approve}. Emits an {Approval} event indicating the updated allowance. Requirements: - `spender` cannot be the zero address."
      },
      "name()": {
        "details": "Returns the name of the token."
      },
      "symbol()": {
        "details": "Returns the symbol of the token, usually a shorter version of the name."
      },
      "totalSupply()": {
        "details": "See {IERC20-totalSupply}."
      },
      "transfer(address,uint256)": {
        "details": "See {IERC20-transfer}. Requirements: - `recipient` cannot be the zero address. - the caller must have a balance of at least `amount`."
      },
      "transferFrom(address,address,uint256)": {
        "details": "See {IERC20-transferFrom}. Emits an {Approval} event indicating the updated allowance. This is not required by the EIP. See the note at the beginning of {ERC20}. Requirements: - `sender` and `recipient` cannot be the zero address. - `sender` must have a balance of at least `amount`. - the caller must have allowance for ``sender``'s tokens of at least `amount`."
      }
    },
    "version": 1
  },
  "userdoc": {
    "kind": "user",
    "methods": {},
    "version": 1
  }
}