{
  "contractName": "OpenVote",
  "abi": [
    {
      "anonymous": false,
      "inputs": [
        {
          "indexed": true,
          "internalType": "address",
          "name": "owner",
          "type": "address"
        },
        {
          "indexed": true,
          "internalType": "address",
          "name": "spender",
          "type": "address"
        },
        {
          "indexed": false,
          "internalType": "uint256",
          "name": "value",
          "type": "uint256"
        }
      ],
      "name": "Approval",
      "type": "event"
    },
    {
      "anonymous": false,
      "inputs": [
        {
          "indexed": true,
          "internalType": "address",
          "name": "previousOwner",
          "type": "address"
        },
        {
          "indexed": true,
          "internalType": "address",
          "name": "newOwner",
          "type": "address"
        }
      ],
      "name": "OwnershipTransferred",
      "type": "event"
    },
    {
      "anonymous": false,
      "inputs": [
        {
          "indexed": true,
          "internalType": "address",
          "name": "from",
          "type": "address"
        },
        {
          "indexed": true,
          "internalType": "address",
          "name": "to",
          "type": "address"
        },
        {
          "indexed": false,
          "internalType": "uint256",
          "name": "value",
          "type": "uint256"
        }
      ],
      "name": "Transfer",
      "type": "event"
    },
    {
      "inputs": [
        {
          "internalType": "address",
          "name": "owner",
          "type": "address"
        },
        {
          "internalType": "address",
          "name": "spender",
          "type": "address"
        }
      ],
      "name": "allowance",
      "outputs": [
        {
          "internalType": "uint256",
          "name": "",
          "type": "uint256"
        }
      ],
      "stateMutability": "view",
      "type": "function"
    },
    {
      "inputs": [
        {
          "internalType": "address",
          "name": "spender",
          "type": "address"
        },
        {
          "internalType": "uint256",
          "name": "amount",
          "type": "uint256"
        }
      ],
      "name": "approve",
      "outputs": [
        {
          "internalType": "bool",
          "name": "",
          "type": "bool"
        }
      ],
      "stateMutability": "nonpayable",
      "type": "function"
    },
    {
      "inputs": [
        {
          "internalType": "address",
          "name": "account",
          "type": "address"
        }
      ],
      "name": "balanceOf",
      "outputs": [
        {
          "internalType": "uint256",
          "name": "",
          "type": "uint256"
        }
      ],
      "stateMutability": "view",
      "type": "function"
    },
    {
      "inputs": [],
      "name": "claimOwnership",
      "outputs": [],
      "stateMutability": "nonpayable",
      "type": "function"
    },
    {
      "inputs": [],
      "name": "decimals",
      "outputs": [
        {
          "internalType": "uint8",
          "name": "",
          "type": "uint8"
        }
      ],
      "stateMutability": "view",
      "type": "function"
    },
    {
      "inputs": [
        {
          "internalType": "address",
          "name": "spender",
          "type": "address"
        },
        {
          "internalType": "uint256",
          "name": "subtractedValue",
          "type": "uint256"
        }
      ],
      "name": "decreaseAllowance",
      "outputs": [
        {
          "internalType": "bool",
          "name": "",
          "type": "bool"
        }
      ],
      "stateMutability": "nonpayable",
      "type": "function"
    },
    {
      "inputs": [
        {
          "internalType": "address",
          "name": "spender",
          "type": "address"
        },
        {
          "internalType": "uint256",
          "name": "addedValue",
          "type": "uint256"
        }
      ],
      "name": "increaseAllowance",
      "outputs": [
        {
          "internalType": "bool",
          "name": "",
          "type": "bool"
        }
      ],
      "stateMutability": "nonpayable",
      "type": "function"
    },
    {
      "inputs": [],
      "name": "name",
      "outputs": [
        {
          "internalType": "string",
          "name": "",
          "type": "string"
        }
      ],
      "stateMutability": "view",
      "type": "function"
    },
    {
      "inputs": [],
      "name": "owner",
      "outputs": [
        {
          "internalType": "address",
          "name": "",
          "type": "address"
        }
      ],
      "stateMutability": "view",
      "type": "function"
    },
    {
      "inputs": [],
      "name": "pendingOwner",
      "outputs": [
        {
          "internalType": "address",
          "name": "",
          "type": "address"
        }
      ],
      "stateMutability": "view",
      "type": "function"
    },
    {
      "inputs": [],
      "name": "symbol",
      "outputs": [
        {
          "internalType": "string",
          "name": "",
          "type": "string"
        }
      ],
      "stateMutability": "view",
      "type": "function"
    },
    {
      "inputs": [],
      "name": "totalSupply",
      "outputs": [
        {
          "internalType": "uint256",
          "name": "",
          "type": "uint256"
        }
      ],
      "stateMutability": "view",
      "type": "function"
    },
    {
      "inputs": [
        {
          "internalType": "address",
          "name": "recipient",
          "type": "address"
        },
        {
          "internalType": "uint256",
          "name": "amount",
          "type": "uint256"
        }
      ],
      "name": "transfer",
      "outputs": [
        {
          "internalType": "bool",
          "name": "",
          "type": "bool"
        }
      ],
      "stateMutability": "nonpayable",
      "type": "function"
    },
    {
      "inputs": [
        {
          "internalType": "address",
          "name": "sender",
          "type": "address"
        },
        {
          "internalType": "address",
          "name": "recipient",
          "type": "address"
        },
        {
          "internalType": "uint256",
          "name": "amount",
          "type": "uint256"
        }
      ],
      "name": "transferFrom",
      "outputs": [
        {
          "internalType": "bool",
          "name": "",
          "type": "bool"
        }
      ],
      "stateMutability": "nonpayable",
      "type": "function"
    },
    {
      "inputs": [],
      "name": "transferMaster",
      "outputs": [
        {
          "internalType": "address",
          "name": "",
          "type": "address"
        }
      ],
      "stateMutability": "view",
      "type": "function"
    },
    {
      "inputs": [
        {
          "internalType": "address",
          "name": "newOwner",
          "type": "address"
        },
        {
          "internalType": "bool",
          "name": "direct",
          "type": "bool"
        },
        {
          "internalType": "bool",
          "name": "renounce",
          "type": "bool"
        }
      ],
      "name": "transferOwnership",
      "outputs": [],
      "stateMutability": "nonpayable",
      "type": "function"
    },
    {
      "inputs": [
        {
          "internalType": "address",
          "name": "_to",
          "type": "address"
        },
        {
          "internalType": "uint256",
          "name": "_amount",
          "type": "uint256"
        }
      ],
      "name": "mint",
      "outputs": [],
      "stateMutability": "nonpayable",
      "type": "function"
    },
    {
      "inputs": [
        {
          "internalType": "address",
          "name": "_transferMaster",
          "type": "address"
        }
      ],
      "name": "setTransferMaster",
      "outputs": [],
      "stateMutability": "nonpayable",
      "type": "function"
    }
  ],
  "bytecode": "0x60806040526005805460ff60a81b1916905534801561001d57600080fd5b5060408051808201825260088152674f70656e696f6e7360c01b60208083019182528351808501909452600684526527a82724a7a760d11b90840152815191929160009161006e9160039190610111565b508151610082906004906020850190610111565b50600580546001600160a01b0319166001600160a01b03831690811760ff60a01b1916600960a11b17909155156100c7576005805460ff60a81b1916600160a81b1790555b5050600680546001600160a01b031916339081179091556040519091506000907f8be0079c531659141344cd1fd0a4f28419497f9722a3daafe3b4186f6b6457e0908290a36101a4565b828054600181600116156101000203166002900490600052602060002090601f016020900481019282601f1061015257805160ff191683800117855561017f565b8280016001018555821561017f579182015b8281111561017f578251825591602001919060010190610164565b5061018b92915061018f565b5090565b5b8082111561018b5760008155600101610190565b61109b80620001b46000396000f3fe608060405234801561001057600080fd5b50600436106101165760003560e01c80634e71e0c8116100a257806395d89b411161007157806395d89b4114610356578063a457c2d71461035e578063a9059cbb1461038a578063dd62ed3e146103b6578063e30c3978146103e457610116565b80634e71e0c8146102fc5780636d7cc7831461030457806370a08231146103285780638da5cb5b1461034e57610116565b806318160ddd116100e957806318160ddd1461023657806323b872dd14610250578063313ce5671461028657806339509351146102a457806340c10f19146102d057610116565b806306fdde031461011b578063078dfbe714610198578063095ea7b3146101d05780631492054614610210575b600080fd5b6101236103ec565b6040805160208082528351818301528351919283929083019185019080838360005b8381101561015d578181015183820152602001610145565b50505050905090810190601f16801561018a5780820380516001836020036101000a031916815260200191505b509250505060405180910390f35b6101ce600480360360608110156101ae57600080fd5b506001600160a01b03813516906020810135151590604001351515610482565b005b6101fc600480360360408110156101e657600080fd5b506001600160a01b0381351690602001356105cb565b604080519115158252519081900360200190f35b6101ce6004803603602081101561022657600080fd5b50356001600160a01b03166105e8565b61023e610653565b60408051918252519081900360200190f35b6101fc6004803603606081101561026657600080fd5b506001600160a01b03813581169160208101359091169060400135610659565b61028e61073a565b6040805160ff9092168252519081900360200190f35b6101fc600480360360408110156102ba57600080fd5b506001600160a01b03813516906020013561074a565b6101ce600480360360408110156102e657600080fd5b506001600160a01b038135169060200135610798565b6101ce610805565b61030c6108c8565b604080516001600160a01b039092168252519081900360200190f35b61023e6004803603602081101561033e57600080fd5b50356001600160a01b03166108d7565b61030c6108f2565b610123610901565b6101fc6004803603604081101561037457600080fd5b506001600160a01b038135169060200135610962565b6101fc600480360360408110156103a057600080fd5b506001600160a01b0381351690602001356109ca565b61023e600480360360408110156103cc57600080fd5b506001600160a01b0381358116916020013516610a38565b61030c610a63565b60038054604080516020601f60026000196101006001881615020190951694909404938401819004810282018101909252828152606093909290918301828280156104785780601f1061044d57610100808354040283529160200191610478565b820191906000526020600020905b81548152906001019060200180831161045b57829003601f168201915b5050505050905090565b6006546001600160a01b031633146104e1576040805162461bcd60e51b815260206004820181905260248201527f4f776e61626c653a2063616c6c6572206973206e6f7420746865206f776e6572604482015290519081900360640190fd5b81156105aa576001600160a01b0383161515806104fb5750805b610544576040805162461bcd60e51b81526020600482015260156024820152744f776e61626c653a207a65726f206164647265737360581b604482015290519081900360640190fd5b6006546040516001600160a01b038086169216907f8be0079c531659141344cd1fd0a4f28419497f9722a3daafe3b4186f6b6457e090600090a3600680546001600160a01b0385166001600160a01b0319918216179091556007805490911690556105c6565b600780546001600160a01b0319166001600160a01b0385161790555b505050565b60006105df6105d8610a72565b8484610a76565b50600192915050565b6006546001600160a01b03163314610647576040805162461bcd60e51b815260206004820181905260248201527f4f776e61626c653a2063616c6c6572206973206e6f7420746865206f776e6572604482015290519081900360640190fd5b61065081610b62565b50565b60025490565b6005546000906001600160a01b0316610670610a72565b6001600160a01b0316146106b55760405162461bcd60e51b815260040180806020018281038252602f815260200180610fee602f913960400191505060405180910390fd5b6106c0848484610bf2565b610730846106cc610a72565b61072b85604051806060016040528060288152602001610fa1602891396001600160a01b038a1660009081526001602052604081209061070a610a72565b6001600160a01b031681526020810191909152604001600020549190610d4d565b610a76565b5060019392505050565b600554600160a01b900460ff1690565b60006105df610757610a72565b8461072b8560016000610768610a72565b6001600160a01b03908116825260208083019390935260409182016000908120918c168152925290205490610de4565b6006546001600160a01b031633146107f7576040805162461bcd60e51b815260206004820181905260248201527f4f776e61626c653a2063616c6c6572206973206e6f7420746865206f776e6572604482015290519081900360640190fd5b6108018282610e45565b5050565b6007546001600160a01b0316338114610865576040805162461bcd60e51b815260206004820181905260248201527f4f776e61626c653a2063616c6c657220213d2070656e64696e67206f776e6572604482015290519081900360640190fd5b6006546040516001600160a01b038084169216907f8be0079c531659141344cd1fd0a4f28419497f9722a3daafe3b4186f6b6457e090600090a3600680546001600160a01b039092166001600160a01b0319928316179055600780549091169055565b6005546001600160a01b031690565b6001600160a01b031660009081526020819052604090205490565b6006546001600160a01b031681565b60048054604080516020601f60026000196101006001881615020190951694909404938401819004810282018101909252828152606093909290918301828280156104785780601f1061044d57610100808354040283529160200191610478565b60006105df61096f610a72565b8461072b856040518060600160405280602581526020016110416025913960016000610999610a72565b6001600160a01b03908116825260208083019390935260409182016000908120918d16815292529020549190610d4d565b6005546000906001600160a01b03166109e1610a72565b6001600160a01b031614610a265760405162461bcd60e51b815260040180806020018281038252602f815260200180610fee602f913960400191505060405180910390fd5b6105df610a31610a72565b8484610bf2565b6001600160a01b03918216600090815260016020908152604080832093909416825291909152205490565b6007546001600160a01b031681565b3390565b6001600160a01b038316610abb5760405162461bcd60e51b815260040180806020018281038252602481526020018061101d6024913960400191505060405180910390fd5b6001600160a01b038216610b005760405162461bcd60e51b8152600401808060200182810382526022815260200180610f596022913960400191505060405180910390fd5b6001600160a01b03808416600081815260016020908152604080832094871680845294825291829020859055815185815291517f8c5be1e5ebec7d5bd14f71427d1e84f3dd0314c0f7b2291e5b200ac8c7c3b9259281900390910190a3505050565b600554600160a81b900460ff1615610bc1576040805162461bcd60e51b815260206004820152601f60248201527f5265766572743a2043616e206f6e6c792062652063616c6c6564206f6e636500604482015290519081900360640190fd5b60058054600160a81b60ff60a81b19909116176001600160a01b0319166001600160a01b0392909216919091179055565b6001600160a01b038316610c375760405162461bcd60e51b8152600401808060200182810382526025815260200180610fc96025913960400191505060405180910390fd5b6001600160a01b038216610c7c5760405162461bcd60e51b8152600401808060200182810382526023815260200180610f366023913960400191505060405180910390fd5b610c878383836105c6565b610cc481604051806060016040528060268152602001610f7b602691396001600160a01b0386166000908152602081905260409020549190610d4d565b6001600160a01b038085166000908152602081905260408082209390935590841681522054610cf39082610de4565b6001600160a01b038084166000818152602081815260409182902094909455805185815290519193928716927fddf252ad1be2c89b69c2b068fc378daa952ba7f163c4a11628f55a4df523b3ef92918290030190a3505050565b60008184841115610ddc5760405162461bcd60e51b81526004018080602001828103825283818151815260200191508051906020019080838360005b83811015610da1578181015183820152602001610d89565b50505050905090810190601f168015610dce5780820380516001836020036101000a031916815260200191505b509250505060405180910390fd5b505050900390565b600082820183811015610e3e576040805162461bcd60e51b815260206004820152601b60248201527f536166654d6174683a206164646974696f6e206f766572666c6f770000000000604482015290519081900360640190fd5b9392505050565b6001600160a01b038216610ea0576040805162461bcd60e51b815260206004820152601f60248201527f45524332303a206d696e7420746f20746865207a65726f206164647265737300604482015290519081900360640190fd5b610eac600083836105c6565b600254610eb99082610de4565b6002556001600160a01b038216600090815260208190526040902054610edf9082610de4565b6001600160a01b0383166000818152602081815260408083209490945583518581529351929391927fddf252ad1be2c89b69c2b068fc378daa952ba7f163c4a11628f55a4df523b3ef9281900390910190a3505056fe45524332303a207472616e7366657220746f20746865207a65726f206164647265737345524332303a20617070726f766520746f20746865207a65726f206164647265737345524332303a207472616e7366657220616d6f756e7420657863656564732062616c616e636545524332303a207472616e7366657220616d6f756e74206578636565647320616c6c6f77616e636545524332303a207472616e736665722066726f6d20746865207a65726f2061646472657373596f752063616e27742073656e64207468697320746f6b656e2c20796f75206861766520746f206561726e2069742e45524332303a20617070726f76652066726f6d20746865207a65726f206164647265737345524332303a2064656372656173656420616c6c6f77616e63652062656c6f77207a65726fa2646970667358221220081b243b5331451b40b099d314f044a1f2197994e93ad5d8bbb362517e6129ea64736f6c634300060c0033",
  "immutableReferences": {},
  "source": "// SPDX-License-Identifier: MIT\n\npragma solidity 0.6.12;\n\nimport \"./ERC20SNT/ERC20SNT.sol\";\nimport \"./Ownable.sol\";\n\n\n//OpenVote Token Can not be Transfered by users. only the owner //masterchef\n//can send them to you. once sent they are unmovable.\n//Dev Doesnt get this token. It is meant to be used as means of communication\n//of user opinions.\n//Will probably not be used in a governance contract that executes actual modifications to masterchef.\n\n//ERC20SNT is a semi-nontransferable token\n// only tranfermaster is allowed to transfer tokens.\n// if transfermaster not set within constructer(pass zero address instead)\n// you can set him internally once with _setTranferMaster(address)\n// transfermaster is only settable once. no matter which way you go.\n\n\n\ncontract OpenVote is ERC20SNT(\"Openions\", \"OPNION\", address(0)), Ownable {\n\n    function mint(address _to, uint256 _amount) public onlyOwner{\n        _mint(_to, _amount);\n    }\n\n    function setTransferMaster(address _transferMaster) public onlyOwner {\n        _setTransferMaster(_transferMaster);\n    }\n}\n",
  "sourcePath": "/home/alex/dev/openswapv2/contracts/OpenVote.sol",
  "compiler": {
    "name": "solc",
    "version": "0.6.12+commit.27d51765.Emscripten.clang"
  },
  "schemaVersion": "3.4.3",
  "updatedAt": "2021-10-21T11:39:31.623Z",
  "devdoc": {
    "kind": "dev",
    "methods": {
      "allowance(address,address)": {
        "details": "See {IERC20-allowance}."
      },
      "approve(address,uint256)": {
        "details": "See {IERC20-approve}. Requirements: - `spender` cannot be the zero address."
      },
      "balanceOf(address)": {
        "details": "See {IERC20-balanceOf}."
      },
      "decimals()": {
        "details": "Returns the number of decimals used to get its user representation. For example, if `decimals` equals `2`, a balance of `505` tokens should be displayed to a user as `5,05` (`505 / 10 ** 2`). Tokens usually opt for a value of 18, imitating the relationship between Ether and Wei. This is the value {ERC20} uses, unless {_setupDecimals} is called. NOTE: This information is only used for _display_ purposes: it in no way affects any of the arithmetic of the contract, including {IERC20-balanceOf} and {IERC20-transfer}."
      },
      "decreaseAllowance(address,uint256)": {
        "details": "Atomically decreases the allowance granted to `spender` by the caller. This is an alternative to {approve} that can be used as a mitigation for problems described in {IERC20-approve}. Emits an {Approval} event indicating the updated allowance. Requirements: - `spender` cannot be the zero address. - `spender` must have allowance for the caller of at least `subtractedValue`."
      },
      "increaseAllowance(address,uint256)": {
        "details": "Atomically increases the allowance granted to `spender` by the caller. This is an alternative to {approve} that can be used as a mitigation for problems described in {IERC20-approve}. Emits an {Approval} event indicating the updated allowance. Requirements: - `spender` cannot be the zero address."
      },
      "name()": {
        "details": "Returns the name of the token."
      },
      "symbol()": {
        "details": "Returns the symbol of the token, usually a shorter version of the name."
      },
      "totalSupply()": {
        "details": "See {IERC20-totalSupply}."
      },
      "transfer(address,uint256)": {
        "details": "See {IERC20-transfer}. Requirements: - `recipient` cannot be the zero address. - the caller must have a balance of at least `amount`."
      },
      "transferFrom(address,address,uint256)": {
        "details": "See {IERC20-transferFrom}. Emits an {Approval} event indicating the updated allowance. This is not required by the EIP. See the note at the beginning of {ERC20}. Requirements: - `sender` and `recipient` cannot be the zero address. - `sender` must have a balance of at least `amount`. - the caller must have allowance for ``sender``'s tokens of at least `amount`."
      },
      "transferMaster()": {
        "details": "Returns the transfer Master of the token."
      }
    },
    "version": 1
  },
  "userdoc": {
    "kind": "user",
    "methods": {},
    "version": 1
  }
}