{
  "contractName": "SushiMaker",
  "abi": [
    {
      "inputs": [
        {
          "internalType": "address",
          "name": "_factory",
          "type": "address"
        },
        {
          "internalType": "address",
          "name": "_sushi",
          "type": "address"
        },
        {
          "internalType": "address",
          "name": "_weth",
          "type": "address"
        }
      ],
      "stateMutability": "nonpayable",
      "type": "constructor"
    },
    {
      "anonymous": false,
      "inputs": [
        {
          "indexed": true,
          "internalType": "address",
          "name": "token",
          "type": "address"
        },
        {
          "indexed": true,
          "internalType": "address",
          "name": "bridge",
          "type": "address"
        }
      ],
      "name": "LogBridgeSet",
      "type": "event"
    },
    {
      "anonymous": false,
      "inputs": [
        {
          "indexed": true,
          "internalType": "address",
          "name": "server",
          "type": "address"
        },
        {
          "indexed": true,
          "internalType": "address",
          "name": "token0",
          "type": "address"
        },
        {
          "indexed": true,
          "internalType": "address",
          "name": "token1",
          "type": "address"
        },
        {
          "indexed": false,
          "internalType": "uint256",
          "name": "amount0",
          "type": "uint256"
        },
        {
          "indexed": false,
          "internalType": "uint256",
          "name": "amount1",
          "type": "uint256"
        },
        {
          "indexed": false,
          "internalType": "uint256",
          "name": "amountSUSHI",
          "type": "uint256"
        }
      ],
      "name": "LogConvert",
      "type": "event"
    },
    {
      "anonymous": false,
      "inputs": [
        {
          "indexed": true,
          "internalType": "address",
          "name": "previousOwner",
          "type": "address"
        },
        {
          "indexed": true,
          "internalType": "address",
          "name": "newOwner",
          "type": "address"
        }
      ],
      "name": "OwnershipTransferred",
      "type": "event"
    },
    {
      "inputs": [],
      "name": "claimOwnership",
      "outputs": [],
      "stateMutability": "nonpayable",
      "type": "function"
    },
    {
      "inputs": [],
      "name": "factory",
      "outputs": [
        {
          "internalType": "contract IUniswapV2Factory",
          "name": "",
          "type": "address"
        }
      ],
      "stateMutability": "view",
      "type": "function",
      "constant": true
    },
    {
      "inputs": [],
      "name": "owner",
      "outputs": [
        {
          "internalType": "address",
          "name": "",
          "type": "address"
        }
      ],
      "stateMutability": "view",
      "type": "function",
      "constant": true
    },
    {
      "inputs": [],
      "name": "pendingOwner",
      "outputs": [
        {
          "internalType": "address",
          "name": "",
          "type": "address"
        }
      ],
      "stateMutability": "view",
      "type": "function",
      "constant": true
    },
    {
      "inputs": [
        {
          "internalType": "address",
          "name": "newOwner",
          "type": "address"
        },
        {
          "internalType": "bool",
          "name": "direct",
          "type": "bool"
        },
        {
          "internalType": "bool",
          "name": "renounce",
          "type": "bool"
        }
      ],
      "name": "transferOwnership",
      "outputs": [],
      "stateMutability": "nonpayable",
      "type": "function"
    },
    {
      "inputs": [
        {
          "internalType": "address",
          "name": "token",
          "type": "address"
        }
      ],
      "name": "bridgeFor",
      "outputs": [
        {
          "internalType": "address",
          "name": "bridge",
          "type": "address"
        }
      ],
      "stateMutability": "view",
      "type": "function",
      "constant": true
    },
    {
      "inputs": [
        {
          "internalType": "address",
          "name": "token",
          "type": "address"
        },
        {
          "internalType": "address",
          "name": "bridge",
          "type": "address"
        }
      ],
      "name": "setBridge",
      "outputs": [],
      "stateMutability": "nonpayable",
      "type": "function"
    },
    {
      "inputs": [
        {
          "internalType": "address",
          "name": "token0",
          "type": "address"
        },
        {
          "internalType": "address",
          "name": "token1",
          "type": "address"
        }
      ],
      "name": "convert",
      "outputs": [],
      "stateMutability": "nonpayable",
      "type": "function"
    },
    {
      "inputs": [
        {
          "internalType": "address[]",
          "name": "token0",
          "type": "address[]"
        },
        {
          "internalType": "address[]",
          "name": "token1",
          "type": "address[]"
        }
      ],
      "name": "convertMultiple",
      "outputs": [],
      "stateMutability": "nonpayable",
      "type": "function"
    }
  ],
  "bytecode": "0x60e060405234801561001057600080fd5b506040516118613803806118618339818101604052606081101561003357600080fd5b5080516020820151604092830151600080546001600160a01b0319163390811782559451939492939192917f8be0079c531659141344cd1fd0a4f28419497f9722a3daafe3b4186f6b6457e0908290a36001600160601b0319606093841b811660805291831b821660a05290911b1660c05260805160601c60a05160601c60c05160601c611728610139600039806105ab52806106c95280610cdf5280610d1c5280610f255280610f625280610f8b5280610fb85280610ff5528061101e52508061056e5280610c175280610c765280610d7c5280610ddb5280610e575280610eb65280611151528061117b5250806107525280610787528061121352506117286000f3fe608060405234801561001057600080fd5b50600436106100935760003560e01c80639d22ae8c116100665780639d22ae8c146101be578063a761a939146101ec578063bd1b820c14610212578063c45a015514610240578063e30c39781461024857610093565b8063078dfbe714610098578063303e6aa4146100d05780634e71e0c8146101925780638da5cb5b1461019a575b600080fd5b6100ce600480360360608110156100ae57600080fd5b506001600160a01b03813516906020810135151590604001351515610250565b005b6100ce600480360360408110156100e657600080fd5b81019060208101813564010000000081111561010157600080fd5b82018360208201111561011357600080fd5b8035906020019184602083028401116401000000008311171561013557600080fd5b91939092909160208101903564010000000081111561015357600080fd5b82018360208201111561016557600080fd5b8035906020019184602083028401116401000000008311171561018757600080fd5b50909250905061038c565b6100ce61043c565b6101a26104fe565b604080516001600160a01b039092168252519081900360200190f35b6100ce600480360360408110156101d457600080fd5b506001600160a01b038135811691602001351661050d565b6101a26004803603602081101561020257600080fd5b50356001600160a01b03166106a6565b6100ce6004803603604081101561022857600080fd5b506001600160a01b03813581169160200135166106ee565b6101a2610750565b6101a2610774565b6000546001600160a01b031633146102af576040805162461bcd60e51b815260206004820181905260248201527f4f776e61626c653a2063616c6c6572206973206e6f7420746865206f776e6572604482015290519081900360640190fd5b811561036b576001600160a01b0383161515806102c95750805b610312576040805162461bcd60e51b81526020600482015260156024820152744f776e61626c653a207a65726f206164647265737360581b604482015290519081900360640190fd5b600080546040516001600160a01b03808716939216917f8be0079c531659141344cd1fd0a4f28419497f9722a3daafe3b4186f6b6457e091a3600080546001600160a01b0319166001600160a01b038516179055610387565b600180546001600160a01b0319166001600160a01b0385161790555b505050565b3332146103e0576040805162461bcd60e51b815260206004820152601c60248201527f4f70656e53776170204d616b65723a206d7573742075736520454f4100000000604482015290519081900360640190fd5b8260005b818110156104345761042c8686838181106103fb57fe5b905060200201356001600160a01b031685858481811061041757fe5b905060200201356001600160a01b0316610783565b6001016103e4565b505050505050565b6001546001600160a01b031633811461049c576040805162461bcd60e51b815260206004820181905260248201527f4f776e61626c653a2063616c6c657220213d2070656e64696e67206f776e6572604482015290519081900360640190fd5b600080546040516001600160a01b03808516939216917f8be0079c531659141344cd1fd0a4f28419497f9722a3daafe3b4186f6b6457e091a3600080546001600160a01b039092166001600160a01b0319928316179055600180549091169055565b6000546001600160a01b031681565b6000546001600160a01b0316331461056c576040805162461bcd60e51b815260206004820181905260248201527f4f776e61626c653a2063616c6c6572206973206e6f7420746865206f776e6572604482015290519081900360640190fd5b7f00000000000000000000000000000000000000000000000000000000000000006001600160a01b0316826001600160a01b0316141580156105e057507f00000000000000000000000000000000000000000000000000000000000000006001600160a01b0316826001600160a01b031614155b80156105fe5750806001600160a01b0316826001600160a01b031614155b61064f576040805162461bcd60e51b815260206004820152601e60248201527f4f70656e53776170204d616b65723a20496e76616c6964206272696467650000604482015290519081900360640190fd5b6001600160a01b0382811660008181526002602052604080822080546001600160a01b0319169486169485179055517f2e103aa707acc565f9a1547341914802b2bfe977fd79c595209f248ae4b006139190a35050565b6001600160a01b0380821660009081526002602052604090205416806106e957507f00000000000000000000000000000000000000000000000000000000000000005b919050565b333214610742576040805162461bcd60e51b815260206004820152601c60248201527f4f70656e53776170204d616b65723a206d7573742075736520454f4100000000604482015290519081900360640190fd5b61074c8282610783565b5050565b7f000000000000000000000000000000000000000000000000000000000000000081565b6001546001600160a01b031681565b60007f00000000000000000000000000000000000000000000000000000000000000006001600160a01b031663e6a4390584846040518363ffffffff1660e01b815260040180836001600160a01b03168152602001826001600160a01b031681526020019250505060206040518083038186803b15801561080357600080fd5b505afa158015610817573d6000803e3d6000fd5b505050506040513d602081101561082d57600080fd5b505190506001600160a01b03811661088c576040805162461bcd60e51b815260206004820152601c60248201527f4f70656e53776170204d616b65723a20496e76616c6964207061697200000000604482015290519081900360640190fd5b61091a81826001600160a01b03166370a08231306040518263ffffffff1660e01b815260040180826001600160a01b0316815260200191505060206040518083038186803b1580156108dd57600080fd5b505afa1580156108f1573d6000803e3d6000fd5b505050506040513d602081101561090757600080fd5b50516001600160a01b0384169190610a81565b600080826001600160a01b03166389afcb44306040518263ffffffff1660e01b815260040180826001600160a01b031681526020019150506040805180830381600087803b15801561096b57600080fd5b505af115801561097f573d6000803e3d6000fd5b505050506040513d604081101561099557600080fd5b50805160209182015160408051630dfe168160e01b815290519295509093506001600160a01b03861692630dfe168192600480840193829003018186803b1580156109df57600080fd5b505afa1580156109f3573d6000803e3d6000fd5b505050506040513d6020811015610a0957600080fd5b50516001600160a01b03868116911614610a1f57905b6001600160a01b03808516908616337fd06b1d7ed79b664d17472c6f6997b929f1abe463ccccb4e5b6a0038f2f730c158585610a5d8b8b8484610beb565b60408051938452602084019290925282820152519081900360600190a45050505050565b604080516001600160a01b038481166024830152604480830185905283518084039091018152606490920183526020820180516001600160e01b031663a9059cbb60e01b178152925182516000946060949389169392918291908083835b60208310610afe5780518252601f199092019160209182019101610adf565b6001836020036101000a0380198251168184511680821785525050505050509050019150506000604051808303816000865af19150503d8060008114610b60576040519150601f19603f3d011682016040523d82523d6000602084013e610b65565b606091505b5091509150818015610b93575080511580610b935750808060200190516020811015610b9057600080fd5b50515b610be4576040805162461bcd60e51b815260206004820152601a60248201527f5361666545524332303a205472616e73666572206661696c6564000000000000604482015290519081900360640190fd5b5050505050565b6000836001600160a01b0316856001600160a01b03161415610d7a576000610c1384846110f2565b90507f00000000000000000000000000000000000000000000000000000000000000006001600160a01b0316866001600160a01b03161415610cdd5760408051632770a7eb60e21b81523060048201526024810183905290516001600160a01b037f00000000000000000000000000000000000000000000000000000000000000001691639dc29fac91604480830192600092919082900301818387803b158015610cbd57600080fd5b505af1158015610cd1573d6000803e3d6000fd5b50505050809150610d74565b7f00000000000000000000000000000000000000000000000000000000000000006001600160a01b0316866001600160a01b03161415610d4857610d417f000000000000000000000000000000000000000000000000000000000000000082611149565b9150610d74565b6000610d53876106a6565b9050610d618782843061120e565b9150610d708182846000610beb565b9250505b506110ea565b7f00000000000000000000000000000000000000000000000000000000000000006001600160a01b0316856001600160a01b03161415610e555760408051632770a7eb60e21b81523060048201526024810185905290516001600160a01b037f00000000000000000000000000000000000000000000000000000000000000001691639dc29fac91604480830192600092919082900301818387803b158015610e2257600080fd5b505af1158015610e36573d6000803e3d6000fd5b50505050610e4e83610e488685611149565b906110f2565b90506110ea565b7f00000000000000000000000000000000000000000000000000000000000000006001600160a01b0316846001600160a01b03161415610f235760408051632770a7eb60e21b81523060048201526024810184905290516001600160a01b037f00000000000000000000000000000000000000000000000000000000000000001691639dc29fac91604480830192600092919082900301818387803b158015610efd57600080fd5b505af1158015610f11573d6000803e3d6000fd5b50505050610e4e82610e488786611149565b7f00000000000000000000000000000000000000000000000000000000000000006001600160a01b0316856001600160a01b03161415610fb657610e4e7f0000000000000000000000000000000000000000000000000000000000000000610fb185610e48887f0000000000000000000000000000000000000000000000000000000000000000883061120e565b611149565b7f00000000000000000000000000000000000000000000000000000000000000006001600160a01b0316846001600160a01b0316141561104457610e4e7f0000000000000000000000000000000000000000000000000000000000000000610fb184610e48897f0000000000000000000000000000000000000000000000000000000000000000893061120e565b600061104f866106a6565b9050600061105c866106a6565b9050856001600160a01b0316826001600160a01b031614156110965761108f82876110898a868a3061120e565b87610beb565b92506110e7565b866001600160a01b0316816001600160a01b031614156110c75761108f8782876110c28a868a3061120e565b610beb565b6110e482826110d88a868a3061120e565b6110c28a868a3061120e565b92505b50505b949350505050565b81810181811015611143576040805162461bcd60e51b8152602060048201526016602482015275536166654d6174683a20416464204f766572666c6f7760501b604482015290519081900360640190fd5b92915050565b6000611177837f0000000000000000000000000000000000000000000000000000000000000000843061120e565b90507f00000000000000000000000000000000000000000000000000000000000000006001600160a01b0316639dc29fac30836040518363ffffffff1660e01b815260040180836001600160a01b0316815260200182815260200192505050600060405180830381600087803b1580156111f057600080fd5b505af1158015611204573d6000803e3d6000fd5b5050505092915050565b6000807f00000000000000000000000000000000000000000000000000000000000000006001600160a01b031663e6a4390587876040518363ffffffff1660e01b815260040180836001600160a01b03168152602001826001600160a01b031681526020019250505060206040518083038186803b15801561128f57600080fd5b505afa1580156112a3573d6000803e3d6000fd5b505050506040513d60208110156112b957600080fd5b505190506001600160a01b038116611318576040805162461bcd60e51b815260206004820152601e60248201527f4f70656e53776170204d616b65723a2043616e6e6f7420636f6e766572740000604482015290519081900360640190fd5b600080826001600160a01b0316630902f1ac6040518163ffffffff1660e01b815260040160606040518083038186803b15801561135457600080fd5b505afa158015611368573d6000803e3d6000fd5b505050506040513d606081101561137e57600080fd5b5080516020909101516dffffffffffffffffffffffffffff918216935016905060006113ac876103e561168d565b9050836001600160a01b0316630dfe16816040518163ffffffff1660e01b815260040160206040518083038186803b1580156113e757600080fd5b505afa1580156113fb573d6000803e3d6000fd5b505050506040513d602081101561141157600080fd5b50516001600160a01b038a8116911614156115585761143681610e48856103e861168d565b61144c836114468a6103e561168d565b9061168d565b8161145357fe5b04945061146a6001600160a01b038a168589610a81565b604080516000808252602082019283905263022c0d9f60e01b835260248201818152604483018990526001600160a01b038a81166064850152608060848501908152845160a48601819052918a169563022c0d9f958c948e9491939092909160c4850191908083838b5b838110156114ec5781810151838201526020016114d4565b50505050905090810190601f1680156115195780820380516001836020036101000a031916815260200191505b5095505050505050600060405180830381600087803b15801561153b57600080fd5b505af115801561154f573d6000803e3d6000fd5b50505050611681565b61156881610e48846103e861168d565b611578846114468a6103e561168d565b8161157f57fe5b0494506115966001600160a01b038a168589610a81565b604080516000808252602082019283905263022c0d9f60e01b835260248201888152604483018290526001600160a01b038a81166064850152608060848501908152845160a48601819052918a169563022c0d9f958c95948e9491939092909160c4850191908083838a5b83811015611619578181015183820152602001611601565b50505050905090810190601f1680156116465780820380516001836020036101000a031916815260200191505b5095505050505050600060405180830381600087803b15801561166857600080fd5b505af115801561167c573d6000803e3d6000fd5b505050505b50505050949350505050565b60008115806116a8575050808202828282816116a557fe5b04145b611143576040805162461bcd60e51b8152602060048201526016602482015275536166654d6174683a204d756c204f766572666c6f7760501b604482015290519081900360640190fdfea2646970667358221220410c274947fe26f7ee53f149540a9f626c7604e5bbd96d3e65f05eeb9a5d81e564736f6c634300060c0033",
  "immutableReferences": {
    "137": [
      {
        "length": 32,
        "start": 1874
      },
      {
        "length": 32,
        "start": 1927
      },
      {
        "length": 32,
        "start": 4627
      }
    ],
    "139": [
      {
        "length": 32,
        "start": 1390
      },
      {
        "length": 32,
        "start": 3095
      },
      {
        "length": 32,
        "start": 3190
      },
      {
        "length": 32,
        "start": 3452
      },
      {
        "length": 32,
        "start": 3547
      },
      {
        "length": 32,
        "start": 3671
      },
      {
        "length": 32,
        "start": 3766
      },
      {
        "length": 32,
        "start": 4433
      },
      {
        "length": 32,
        "start": 4475
      }
    ],
    "141": [
      {
        "length": 32,
        "start": 1451
      },
      {
        "length": 32,
        "start": 1737
      },
      {
        "length": 32,
        "start": 3295
      },
      {
        "length": 32,
        "start": 3356
      },
      {
        "length": 32,
        "start": 3877
      },
      {
        "length": 32,
        "start": 3938
      },
      {
        "length": 32,
        "start": 3979
      },
      {
        "length": 32,
        "start": 4024
      },
      {
        "length": 32,
        "start": 4085
      },
      {
        "length": 32,
        "start": 4126
      }
    ]
  },
  "source": "// SPDX-License-Identifier: MIT\r\n// P1 - P3: OK\r\npragma solidity 0.6.12;\r\nimport \"./libraries/SafeMath.sol\";\r\nimport \"./libraries/SafeERC20.sol\";\r\nimport \"./interfaces/IERC20Burnable.sol\";\r\nimport \"./uniswapv2/interfaces/IUniswapV2ERC20.sol\";\r\nimport \"./uniswapv2/interfaces/IUniswapV2Pair.sol\";\r\nimport \"./uniswapv2/interfaces/IUniswapV2Factory.sol\";\r\n\r\nimport \"./Ownable.sol\";\r\n\r\n// SushiMaker is MasterChef's left hand and kinda a wizard. He can cook up Sushi from pretty much anything!\r\n// This contract handles \"serving up\" rewards for xSushi holders by trading tokens collected from fees for Sushi.\r\n\r\n// T1 - T4: OK\r\ncontract SushiMaker is Ownable {\r\n    using SafeMath for uint256;\r\n    using SafeERC20 for IERC20;\r\n\r\n    // V1 - V5: OK\r\n    IUniswapV2Factory public immutable factory;\r\n    // V1 - V5: OK\r\n    // V1 - V5: OK\r\n    address private immutable sushi;\r\n    // V1 - V5: OK\r\n    address private immutable weth;\r\n\r\n    // V1 - V5: OK\r\n    mapping(address => address) internal _bridges;\r\n\r\n    // E1: OK\r\n    event LogBridgeSet(address indexed token, address indexed bridge);\r\n    // E1: OK\r\n    event LogConvert(address indexed server, address indexed token0, address indexed token1, uint256 amount0, uint256 amount1, uint256 amountSUSHI);\r\n\r\n\r\n    constructor (address _factory, address _sushi, address _weth) public {\r\n       factory = IUniswapV2Factory(_factory);\r\n       sushi = _sushi;\r\n       weth = _weth;\r\n    }\r\n\r\n    // F1 - F10: OK\r\n    // C1 - C24: OK\r\n    function bridgeFor(address token) public view returns (address bridge) {\r\n        bridge = _bridges[token];\r\n        if (bridge == address(0)) {\r\n            bridge = weth;\r\n        }\r\n    }\r\n\r\n    // F1 - F10: OK\r\n    // C1 - C24: OK\r\n    function setBridge(address token, address bridge) external onlyOwner {\r\n        // Checks\r\n        require(token != sushi && token != weth && token != bridge, \"OpenSwap Maker: Invalid bridge\");\r\n\r\n        // Effects\r\n        _bridges[token] = bridge;\r\n        emit LogBridgeSet(token, bridge);\r\n    }\r\n\r\n    // M1 - M5: OK\r\n    // C1 - C24: OK\r\n    // C6: It's not a fool proof solution, but it prevents flash loans, so here it's ok to use tx.origin\r\n    modifier onlyEOA() {\r\n        // Try to make flash-loan exploit harder to do by only allowing externally owned addresses.\r\n        require(msg.sender == tx.origin, \"OpenSwap Maker: must use EOA\");\r\n        _;\r\n    }\r\n\r\n    // F1 - F10: OK\r\n    // F3: _convert is separate to save gas by only checking the 'onlyEOA' modifier once in case of convertMultiple\r\n    // F6: There is an exploit to add lots of SUSHI to the bar, run convert, then remove the SUSHI again.\r\n    //     As the size of the SushiBar has grown, this requires large amounts of funds and isn't super profitable anymore\r\n    //     The onlyEOA modifier prevents this being done with a flash loan.\r\n    // C1 - C24: OK\r\n    function convert(address token0, address token1) external onlyEOA() {\r\n        _convert(token0, token1);\r\n    }\r\n\r\n    // F1 - F10: OK, see convert\r\n    // C1 - C24: OK\r\n    // C3: Loop is under control of the caller\r\n    function convertMultiple(address[] calldata token0, address[] calldata token1) external onlyEOA() {\r\n        // TODO: This can be optimized a fair bit, but this is safer and simpler for now\r\n        uint256 len = token0.length;\r\n        for(uint256 i=0; i < len; i++) {\r\n            _convert(token0[i], token1[i]);\r\n        }\r\n    }\r\n\r\n    // F1 - F10: OK\r\n    // C1- C24: OK\r\n    function _convert(address token0, address token1) internal {\r\n        // Interactions\r\n        // S1 - S4: OK\r\n        IUniswapV2Pair pair = IUniswapV2Pair(factory.getPair(token0, token1));\r\n        require(address(pair) != address(0), \"OpenSwap Maker: Invalid pair\");\r\n        // balanceOf: S1 - S4: OK\r\n        // transfer: X1 - X5: OK\r\n        IERC20(address(pair)).safeTransfer(address(pair), pair.balanceOf(address(this)));\r\n        // X1 - X5: OK\r\n        (uint256 amount0, uint256 amount1) = pair.burn(address(this));\r\n        if (token0 != pair.token0()) {\r\n            (amount0, amount1) = (amount1, amount0);\r\n        }\r\n        emit LogConvert(msg.sender, token0, token1, amount0, amount1, _convertStep(token0, token1, amount0, amount1));\r\n    }\r\n\r\n    // F1 - F10: OK\r\n    // C1 - C24: OK\r\n    // All safeTransfer, _swap, _toSUSHI, _convertStep: X1 - X5: OK\r\n    function _convertStep(address token0, address token1, uint256 amount0, uint256 amount1) internal returns(uint256 sushiOut) {\r\n        // Interactions\r\n        if (token0 == token1) {\r\n            uint256 amount = amount0.add(amount1);\r\n            if (token0 == sushi) {\r\n                IERC20BURNABLE(sushi).burn(address(this), amount); //burn\r\n                sushiOut = amount;\r\n            } else if (token0 == weth) {\r\n                sushiOut = _toSUSHI(weth, amount);\r\n            } else {\r\n                address bridge = bridgeFor(token0);\r\n                amount = _swap(token0, bridge, amount, address(this));\r\n                sushiOut = _convertStep(bridge, bridge, amount, 0);\r\n            }\r\n        } else if (token0 == sushi) { // eg. SUSHI - ETH\r\n            IERC20BURNABLE(sushi).burn(address(this), amount0); //BURN\r\n            sushiOut = _toSUSHI(token1, amount1).add(amount0);\r\n        } else if (token1 == sushi) { // eg. USDT - SUSHI\r\n            IERC20BURNABLE(sushi).burn(address(this), amount1); //BURN\r\n            sushiOut = _toSUSHI(token0, amount0).add(amount1); \r\n        } else if (token0 == weth) { // eg. ETH - USDC\r\n            sushiOut = _toSUSHI(weth, _swap(token1, weth, amount1, address(this)).add(amount0));\r\n        } else if (token1 == weth) { // eg. USDT - ETH\r\n            sushiOut = _toSUSHI(weth, _swap(token0, weth, amount0, address(this)).add(amount1));\r\n        } else { // eg. MIC - USDT\r\n            address bridge0 = bridgeFor(token0);\r\n            address bridge1 = bridgeFor(token1);\r\n            if (bridge0 == token1) { // eg. MIC - USDT - and bridgeFor(MIC) = USDT\r\n                sushiOut = _convertStep(bridge0, token1,\r\n                    _swap(token0, bridge0, amount0, address(this)),\r\n                    amount1\r\n                );\r\n            } else if (bridge1 == token0) { // eg. WBTC - DSD - and bridgeFor(DSD) = WBTC\r\n                sushiOut = _convertStep(token0, bridge1,\r\n                    amount0,\r\n                    _swap(token1, bridge1, amount1, address(this))\r\n                );\r\n            } else {\r\n                sushiOut = _convertStep(bridge0, bridge1, // eg. USDT - DSD - and bridgeFor(DSD) = WBTC\r\n                    _swap(token0, bridge0, amount0, address(this)),\r\n                    _swap(token1, bridge1, amount1, address(this))\r\n                );\r\n            }\r\n        }\r\n    }\r\n\r\n    // F1 - F10: OK\r\n    // C1 - C24: OK\r\n    // All safeTransfer, swap: X1 - X5: OK\r\n    function _swap(address fromToken, address toToken, uint256 amountIn, address to) internal returns (uint256 amountOut) {\r\n        // Checks\r\n        // X1 - X5: OK\r\n        IUniswapV2Pair pair = IUniswapV2Pair(factory.getPair(fromToken, toToken));\r\n        require(address(pair) != address(0), \"OpenSwap Maker: Cannot convert\");\r\n\r\n        // Interactions\r\n        // X1 - X5: OK\r\n        (uint256 reserve0, uint256 reserve1,) = pair.getReserves();\r\n        uint256 amountInWithFee = amountIn.mul(997);\r\n        if (fromToken == pair.token0()) {\r\n            amountOut = amountIn.mul(997).mul(reserve1) / reserve0.mul(1000).add(amountInWithFee);\r\n            IERC20(fromToken).safeTransfer(address(pair), amountIn);\r\n            pair.swap(0, amountOut, to, new bytes(0));\r\n            // TODO: Add maximum slippage?\r\n        } else {\r\n            amountOut = amountIn.mul(997).mul(reserve0) / reserve1.mul(1000).add(amountInWithFee);\r\n            IERC20(fromToken).safeTransfer(address(pair), amountIn);\r\n            pair.swap(amountOut, 0, to, new bytes(0));\r\n            // TODO: Add maximum slippage?\r\n        }\r\n    }\r\n\r\n    // F1 - F10: OK\r\n    // C1 - C24: OK\r\n    function _toSUSHI(address token, uint256 amountIn) internal returns(uint256 amountOut) {\r\n        // X1 - X5: OK\r\n        amountOut = _swap(token, sushi, amountIn, address(this));\r\n        IERC20BURNABLE(sushi).burn(address(this), amountOut);\r\n    }\r\n}\r\n",
  "sourcePath": "/home/alex/dev/openswapv2/contracts/SushiMaker.sol",
  "compiler": {
    "name": "solc",
    "version": "0.6.12+commit.27d51765.Emscripten.clang"
  },
  "schemaVersion": "3.4.3",
  "updatedAt": "2021-10-13T18:29:26.290Z",
  "networkType": "ethereum",
  "devdoc": {
    "kind": "dev",
    "methods": {},
    "version": 1
  },
  "userdoc": {
    "kind": "user",
    "methods": {},
    "version": 1
  }
}