{
  "contractName": "test4netERC20",
  "abi": [
    {
      "inputs": [
        {
          "internalType": "string",
          "name": "name",
          "type": "string"
        },
        {
          "internalType": "string",
          "name": "symbol",
          "type": "string"
        },
        {
          "internalType": "uint8",
          "name": "decimals",
          "type": "uint8"
        }
      ],
      "stateMutability": "nonpayable",
      "type": "constructor"
    },
    {
      "anonymous": false,
      "inputs": [
        {
          "indexed": true,
          "internalType": "address",
          "name": "owner",
          "type": "address"
        },
        {
          "indexed": true,
          "internalType": "address",
          "name": "spender",
          "type": "address"
        },
        {
          "indexed": false,
          "internalType": "uint256",
          "name": "value",
          "type": "uint256"
        }
      ],
      "name": "Approval",
      "type": "event"
    },
    {
      "anonymous": false,
      "inputs": [
        {
          "indexed": true,
          "internalType": "address",
          "name": "previousOwner",
          "type": "address"
        },
        {
          "indexed": true,
          "internalType": "address",
          "name": "newOwner",
          "type": "address"
        }
      ],
      "name": "OwnershipTransferred",
      "type": "event"
    },
    {
      "anonymous": false,
      "inputs": [
        {
          "indexed": true,
          "internalType": "address",
          "name": "from",
          "type": "address"
        },
        {
          "indexed": true,
          "internalType": "address",
          "name": "to",
          "type": "address"
        },
        {
          "indexed": false,
          "internalType": "uint256",
          "name": "value",
          "type": "uint256"
        }
      ],
      "name": "Transfer",
      "type": "event"
    },
    {
      "inputs": [
        {
          "internalType": "address",
          "name": "owner",
          "type": "address"
        },
        {
          "internalType": "address",
          "name": "spender",
          "type": "address"
        }
      ],
      "name": "allowance",
      "outputs": [
        {
          "internalType": "uint256",
          "name": "",
          "type": "uint256"
        }
      ],
      "stateMutability": "view",
      "type": "function",
      "constant": true
    },
    {
      "inputs": [
        {
          "internalType": "address",
          "name": "spender",
          "type": "address"
        },
        {
          "internalType": "uint256",
          "name": "amount",
          "type": "uint256"
        }
      ],
      "name": "approve",
      "outputs": [
        {
          "internalType": "bool",
          "name": "",
          "type": "bool"
        }
      ],
      "stateMutability": "nonpayable",
      "type": "function"
    },
    {
      "inputs": [
        {
          "internalType": "address",
          "name": "account",
          "type": "address"
        }
      ],
      "name": "balanceOf",
      "outputs": [
        {
          "internalType": "uint256",
          "name": "",
          "type": "uint256"
        }
      ],
      "stateMutability": "view",
      "type": "function",
      "constant": true
    },
    {
      "inputs": [],
      "name": "claimOwnership",
      "outputs": [],
      "stateMutability": "nonpayable",
      "type": "function"
    },
    {
      "inputs": [],
      "name": "decimals",
      "outputs": [
        {
          "internalType": "uint8",
          "name": "",
          "type": "uint8"
        }
      ],
      "stateMutability": "view",
      "type": "function",
      "constant": true
    },
    {
      "inputs": [
        {
          "internalType": "address",
          "name": "spender",
          "type": "address"
        },
        {
          "internalType": "uint256",
          "name": "subtractedValue",
          "type": "uint256"
        }
      ],
      "name": "decreaseAllowance",
      "outputs": [
        {
          "internalType": "bool",
          "name": "",
          "type": "bool"
        }
      ],
      "stateMutability": "nonpayable",
      "type": "function"
    },
    {
      "inputs": [
        {
          "internalType": "address",
          "name": "spender",
          "type": "address"
        },
        {
          "internalType": "uint256",
          "name": "addedValue",
          "type": "uint256"
        }
      ],
      "name": "increaseAllowance",
      "outputs": [
        {
          "internalType": "bool",
          "name": "",
          "type": "bool"
        }
      ],
      "stateMutability": "nonpayable",
      "type": "function"
    },
    {
      "inputs": [],
      "name": "name",
      "outputs": [
        {
          "internalType": "string",
          "name": "",
          "type": "string"
        }
      ],
      "stateMutability": "view",
      "type": "function",
      "constant": true
    },
    {
      "inputs": [],
      "name": "owner",
      "outputs": [
        {
          "internalType": "address",
          "name": "",
          "type": "address"
        }
      ],
      "stateMutability": "view",
      "type": "function",
      "constant": true
    },
    {
      "inputs": [],
      "name": "pendingOwner",
      "outputs": [
        {
          "internalType": "address",
          "name": "",
          "type": "address"
        }
      ],
      "stateMutability": "view",
      "type": "function",
      "constant": true
    },
    {
      "inputs": [],
      "name": "symbol",
      "outputs": [
        {
          "internalType": "string",
          "name": "",
          "type": "string"
        }
      ],
      "stateMutability": "view",
      "type": "function",
      "constant": true
    },
    {
      "inputs": [],
      "name": "totalSupply",
      "outputs": [
        {
          "internalType": "uint256",
          "name": "",
          "type": "uint256"
        }
      ],
      "stateMutability": "view",
      "type": "function",
      "constant": true
    },
    {
      "inputs": [
        {
          "internalType": "address",
          "name": "recipient",
          "type": "address"
        },
        {
          "internalType": "uint256",
          "name": "amount",
          "type": "uint256"
        }
      ],
      "name": "transfer",
      "outputs": [
        {
          "internalType": "bool",
          "name": "",
          "type": "bool"
        }
      ],
      "stateMutability": "nonpayable",
      "type": "function"
    },
    {
      "inputs": [
        {
          "internalType": "address",
          "name": "sender",
          "type": "address"
        },
        {
          "internalType": "address",
          "name": "recipient",
          "type": "address"
        },
        {
          "internalType": "uint256",
          "name": "amount",
          "type": "uint256"
        }
      ],
      "name": "transferFrom",
      "outputs": [
        {
          "internalType": "bool",
          "name": "",
          "type": "bool"
        }
      ],
      "stateMutability": "nonpayable",
      "type": "function"
    },
    {
      "inputs": [
        {
          "internalType": "address",
          "name": "newOwner",
          "type": "address"
        },
        {
          "internalType": "bool",
          "name": "direct",
          "type": "bool"
        },
        {
          "internalType": "bool",
          "name": "renounce",
          "type": "bool"
        }
      ],
      "name": "transferOwnership",
      "outputs": [],
      "stateMutability": "nonpayable",
      "type": "function"
    },
    {
      "inputs": [
        {
          "internalType": "uint256",
          "name": "_amount",
          "type": "uint256"
        },
        {
          "internalType": "address",
          "name": "_to",
          "type": "address"
        }
      ],
      "name": "mint",
      "outputs": [],
      "stateMutability": "nonpayable",
      "type": "function"
    }
  ],
  "bytecode": "0x60806040523480156200001157600080fd5b506040516200118338038062001183833981810160405260608110156200003757600080fd5b81019080805160405193929190846401000000008211156200005857600080fd5b9083019060208201858111156200006e57600080fd5b82516401000000008111828201881017156200008957600080fd5b82525081516020918201929091019080838360005b83811015620000b85781810151838201526020016200009e565b50505050905090810190601f168015620000e65780820380516001836020036101000a031916815260200191505b50604052602001805160405193929190846401000000008211156200010a57600080fd5b9083019060208201858111156200012057600080fd5b82516401000000008111828201881017156200013b57600080fd5b82525081516020918201929091019080838360005b838110156200016a57818101518382015260200162000150565b50505050905090810190601f168015620001985780820380516001836020036101000a031916815260200191505b5060405260209081015185519093508592508491620001bd9160039185019062000253565b508051620001d390600490602084019062000253565b505060058054601260ff1990911617610100600160a81b03191661010033908102919091179091556040519091506000907f8be0079c531659141344cd1fd0a4f28419497f9722a3daafe3b4186f6b6457e0908290a362000234816200023d565b505050620002ef565b6005805460ff191660ff92909216919091179055565b828054600181600116156101000203166002900490600052602060002090601f016020900481019282601f106200029657805160ff1916838001178555620002c6565b82800160010185558215620002c6579182015b82811115620002c6578251825591602001919060010190620002a9565b50620002d4929150620002d8565b5090565b5b80821115620002d45760008155600101620002d9565b610e8480620002ff6000396000f3fe608060405234801561001057600080fd5b50600436106101005760003560e01c806370a0823111610097578063a457c2d711610066578063a457c2d71461031a578063a9059cbb14610346578063dd62ed3e14610372578063e30c3978146103a057610100565b806370a082311461029c5780638da5cb5b146102c257806394bf804d146102e657806395d89b411461031257610100565b806323b872dd116100d357806323b872dd14610214578063313ce5671461024a57806339509351146102685780634e71e0c81461029457610100565b806306fdde0314610105578063078dfbe714610182578063095ea7b3146101ba57806318160ddd146101fa575b600080fd5b61010d6103a8565b6040805160208082528351818301528351919283929083019185019080838360005b8381101561014757818101518382015260200161012f565b50505050905090810190601f1680156101745780820380516001836020036101000a031916815260200191505b509250505060405180910390f35b6101b86004803603606081101561019857600080fd5b506001600160a01b0381351690602081013515159060400135151561043e565b005b6101e6600480360360408110156101d057600080fd5b506001600160a01b03813516906020013561058a565b604080519115158252519081900360200190f35b6102026105a7565b60408051918252519081900360200190f35b6101e66004803603606081101561022a57600080fd5b506001600160a01b038135811691602081013590911690604001356105ad565b610252610634565b6040805160ff9092168252519081900360200190f35b6101e66004803603604081101561027e57600080fd5b506001600160a01b03813516906020013561063d565b6101b861068b565b610202600480360360208110156102b257600080fd5b50356001600160a01b0316610762565b6102ca61077d565b604080516001600160a01b039092168252519081900360200190f35b6101b8600480360360408110156102fc57600080fd5b50803590602001356001600160a01b0316610791565b61010d610803565b6101e66004803603604081101561033057600080fd5b506001600160a01b038135169060200135610864565b6101e66004803603604081101561035c57600080fd5b506001600160a01b0381351690602001356108cc565b6102026004803603604081101561038857600080fd5b506001600160a01b03813581169160200135166108e0565b6102ca61090b565b60038054604080516020601f60026000196101006001881615020190951694909404938401819004810282018101909252828152606093909290918301828280156104345780601f1061040957610100808354040283529160200191610434565b820191906000526020600020905b81548152906001019060200180831161041757829003601f168201915b5050505050905090565b60055461010090046001600160a01b031633146104a2576040805162461bcd60e51b815260206004820181905260248201527f4f776e61626c653a2063616c6c6572206973206e6f7420746865206f776e6572604482015290519081900360640190fd5b8115610569576001600160a01b0383161515806104bc5750805b610505576040805162461bcd60e51b81526020600482015260156024820152744f776e61626c653a207a65726f206164647265737360581b604482015290519081900360640190fd5b6005546040516001600160a01b0380861692610100900416907f8be0079c531659141344cd1fd0a4f28419497f9722a3daafe3b4186f6b6457e090600090a360058054610100600160a81b0319166101006001600160a01b03861602179055610585565b600680546001600160a01b0319166001600160a01b0385161790555b505050565b600061059e61059761091a565b848461091e565b50600192915050565b60025490565b60006105ba848484610a0a565b61062a846105c661091a565b61062585604051806060016040528060288152602001610db9602891396001600160a01b038a1660009081526001602052604081209061060461091a565b6001600160a01b031681526020810191909152604001600020549190610b65565b61091e565b5060019392505050565b60055460ff1690565b600061059e61064a61091a565b84610625856001600061065b61091a565b6001600160a01b03908116825260208083019390935260409182016000908120918c168152925290205490610bfc565b6006546001600160a01b03163381146106eb576040805162461bcd60e51b815260206004820181905260248201527f4f776e61626c653a2063616c6c657220213d2070656e64696e67206f776e6572604482015290519081900360640190fd5b6005546040516001600160a01b0380841692610100900416907f8be0079c531659141344cd1fd0a4f28419497f9722a3daafe3b4186f6b6457e090600090a3600580546001600160a01b0390921661010002610100600160a81b0319909216919091179055600680546001600160a01b0319169055565b6001600160a01b031660009081526020819052604090205490565b60055461010090046001600160a01b031681565b60055461010090046001600160a01b031633146107f5576040805162461bcd60e51b815260206004820181905260248201527f4f776e61626c653a2063616c6c6572206973206e6f7420746865206f776e6572604482015290519081900360640190fd5b6107ff8183610c5d565b5050565b60048054604080516020601f60026000196101006001881615020190951694909404938401819004810282018101909252828152606093909290918301828280156104345780601f1061040957610100808354040283529160200191610434565b600061059e61087161091a565b8461062585604051806060016040528060258152602001610e2a602591396001600061089b61091a565b6001600160a01b03908116825260208083019390935260409182016000908120918d16815292529020549190610b65565b600061059e6108d961091a565b8484610a0a565b6001600160a01b03918216600090815260016020908152604080832093909416825291909152205490565b6006546001600160a01b031681565b3390565b6001600160a01b0383166109635760405162461bcd60e51b8152600401808060200182810382526024815260200180610e066024913960400191505060405180910390fd5b6001600160a01b0382166109a85760405162461bcd60e51b8152600401808060200182810382526022815260200180610d716022913960400191505060405180910390fd5b6001600160a01b03808416600081815260016020908152604080832094871680845294825291829020859055815185815291517f8c5be1e5ebec7d5bd14f71427d1e84f3dd0314c0f7b2291e5b200ac8c7c3b9259281900390910190a3505050565b6001600160a01b038316610a4f5760405162461bcd60e51b8152600401808060200182810382526025815260200180610de16025913960400191505060405180910390fd5b6001600160a01b038216610a945760405162461bcd60e51b8152600401808060200182810382526023815260200180610d4e6023913960400191505060405180910390fd5b610a9f838383610585565b610adc81604051806060016040528060268152602001610d93602691396001600160a01b0386166000908152602081905260409020549190610b65565b6001600160a01b038085166000908152602081905260408082209390935590841681522054610b0b9082610bfc565b6001600160a01b038084166000818152602081815260409182902094909455805185815290519193928716927fddf252ad1be2c89b69c2b068fc378daa952ba7f163c4a11628f55a4df523b3ef92918290030190a3505050565b60008184841115610bf45760405162461bcd60e51b81526004018080602001828103825283818151815260200191508051906020019080838360005b83811015610bb9578181015183820152602001610ba1565b50505050905090810190601f168015610be65780820380516001836020036101000a031916815260200191505b509250505060405180910390fd5b505050900390565b600082820183811015610c56576040805162461bcd60e51b815260206004820152601b60248201527f536166654d6174683a206164646974696f6e206f766572666c6f770000000000604482015290519081900360640190fd5b9392505050565b6001600160a01b038216610cb8576040805162461bcd60e51b815260206004820152601f60248201527f45524332303a206d696e7420746f20746865207a65726f206164647265737300604482015290519081900360640190fd5b610cc460008383610585565b600254610cd19082610bfc565b6002556001600160a01b038216600090815260208190526040902054610cf79082610bfc565b6001600160a01b0383166000818152602081815260408083209490945583518581529351929391927fddf252ad1be2c89b69c2b068fc378daa952ba7f163c4a11628f55a4df523b3ef9281900390910190a3505056fe45524332303a207472616e7366657220746f20746865207a65726f206164647265737345524332303a20617070726f766520746f20746865207a65726f206164647265737345524332303a207472616e7366657220616d6f756e7420657863656564732062616c616e636545524332303a207472616e7366657220616d6f756e74206578636565647320616c6c6f77616e636545524332303a207472616e736665722066726f6d20746865207a65726f206164647265737345524332303a20617070726f76652066726f6d20746865207a65726f206164647265737345524332303a2064656372656173656420616c6c6f77616e63652062656c6f77207a65726fa264697066735822122011cbbfdbdcd54d46aa3da290b29f524c53034891ad43c42184037631e915e36a64736f6c634300060c0033",
  "immutableReferences": {},
  "source": "pragma solidity 0.6.12;\n\n\nimport \"@openzeppelin/contracts/token/ERC20/ERC20.sol\";\nimport \"./Ownable.sol\";\n\n\ncontract test0netERC20 is ERC20,Ownable {\n    constructor(\n        string memory name,\n        string memory symbol,\n        uint8 decimals\n    ) public ERC20(name, symbol) {\n        _setupDecimals(decimals);\n    }\n\n    function mint(uint256 _amount, address _to) public onlyOwner{\n        _mint(_to, _amount);\n    }\n}\ncontract test1netERC20 is ERC20,Ownable {\n    constructor(\n        string memory name,\n        string memory symbol,\n        uint8 decimals\n    ) public ERC20(name, symbol) {\n        _setupDecimals(decimals);\n    }\n\n    function mint(uint256 _amount, address _to) public onlyOwner{\n        _mint(_to, _amount);\n    }\n}\ncontract test2netERC20 is ERC20,Ownable {\n    constructor(\n        string memory name,\n        string memory symbol,\n        uint8 decimals\n    ) public ERC20(name, symbol) {\n        _setupDecimals(decimals);\n    }\n\n    function mint(uint256 _amount, address _to) public onlyOwner{\n        _mint(_to, _amount);\n    }\n}\ncontract test3netERC20 is ERC20,Ownable {\n    constructor(\n        string memory name,\n        string memory symbol,\n        uint8 decimals\n    ) public ERC20(name, symbol) {\n        _setupDecimals(decimals);\n    }\n\n    function mint(uint256 _amount, address _to) public onlyOwner{\n        _mint(_to, _amount);\n    }\n}\ncontract test4netERC20 is ERC20,Ownable {\n    constructor(\n        string memory name,\n        string memory symbol,\n        uint8 decimals\n    ) public ERC20(name, symbol) {\n        _setupDecimals(decimals);\n    }\n\n    function mint(uint256 _amount, address _to) public onlyOwner{\n        _mint(_to, _amount);\n    }\n}\ncontract test5netERC20 is ERC20,Ownable {\n    constructor(\n        string memory name,\n        string memory symbol,\n        uint8 decimals\n    ) public ERC20(name, symbol) {\n        _setupDecimals(decimals);\n    }\n\n    function mint(uint256 _amount, address _to) public onlyOwner{\n        _mint(_to, _amount);\n    }\n}\ncontract test6netERC20 is ERC20,Ownable {\n    constructor(\n        string memory name,\n        string memory symbol,\n        uint8 decimals\n    ) public ERC20(name, symbol) {\n        _setupDecimals(decimals);\n    }\n\n    function mint(uint256 _amount, address _to) public onlyOwner{\n        _mint(_to, _amount);\n    }\n}\ncontract test7netERC20 is ERC20,Ownable {\n    constructor(\n        string memory name,\n        string memory symbol,\n        uint8 decimals\n    ) public ERC20(name, symbol) {\n        _setupDecimals(decimals);\n    }\n\n    function mint(uint256 _amount, address _to) public onlyOwner{\n        _mint(_to, _amount);\n    }\n}\ncontract test8netERC20 is ERC20,Ownable {\n    constructor(\n        string memory name,\n        string memory symbol,\n        uint8 decimals\n    ) public ERC20(name, symbol) {\n        _setupDecimals(decimals);\n    }\n\n    function mint(uint256 _amount, address _to) public onlyOwner{\n        _mint(_to, _amount);\n    }\n}",
  "sourcePath": "/home/alex/dev/openswapv2/contracts/testnetERC20.sol",
  "compiler": {
    "name": "solc",
    "version": "0.6.12+commit.27d51765.Emscripten.clang"
  },
  "schemaVersion": "3.4.3",
  "updatedAt": "2021-10-13T18:29:26.183Z",
  "networkType": "ethereum",
  "devdoc": {
    "kind": "dev",
    "methods": {
      "allowance(address,address)": {
        "details": "See {IERC20-allowance}."
      },
      "approve(address,uint256)": {
        "details": "See {IERC20-approve}. Requirements: - `spender` cannot be the zero address."
      },
      "balanceOf(address)": {
        "details": "See {IERC20-balanceOf}."
      },
      "decimals()": {
        "details": "Returns the number of decimals used to get its user representation. For example, if `decimals` equals `2`, a balance of `505` tokens should be displayed to a user as `5,05` (`505 / 10 ** 2`). Tokens usually opt for a value of 18, imitating the relationship between Ether and Wei. This is the value {ERC20} uses, unless {_setupDecimals} is called. NOTE: This information is only used for _display_ purposes: it in no way affects any of the arithmetic of the contract, including {IERC20-balanceOf} and {IERC20-transfer}."
      },
      "decreaseAllowance(address,uint256)": {
        "details": "Atomically decreases the allowance granted to `spender` by the caller. This is an alternative to {approve} that can be used as a mitigation for problems described in {IERC20-approve}. Emits an {Approval} event indicating the updated allowance. Requirements: - `spender` cannot be the zero address. - `spender` must have allowance for the caller of at least `subtractedValue`."
      },
      "increaseAllowance(address,uint256)": {
        "details": "Atomically increases the allowance granted to `spender` by the caller. This is an alternative to {approve} that can be used as a mitigation for problems described in {IERC20-approve}. Emits an {Approval} event indicating the updated allowance. Requirements: - `spender` cannot be the zero address."
      },
      "name()": {
        "details": "Returns the name of the token."
      },
      "symbol()": {
        "details": "Returns the symbol of the token, usually a shorter version of the name."
      },
      "totalSupply()": {
        "details": "See {IERC20-totalSupply}."
      },
      "transfer(address,uint256)": {
        "details": "See {IERC20-transfer}. Requirements: - `recipient` cannot be the zero address. - the caller must have a balance of at least `amount`."
      },
      "transferFrom(address,address,uint256)": {
        "details": "See {IERC20-transferFrom}. Emits an {Approval} event indicating the updated allowance. This is not required by the EIP. See the note at the beginning of {ERC20}. Requirements: - `sender` and `recipient` cannot be the zero address. - `sender` must have a balance of at least `amount`. - the caller must have allowance for ``sender``'s tokens of at least `amount`."
      }
    },
    "version": 1
  },
  "userdoc": {
    "kind": "user",
    "methods": {},
    "version": 1
  }
}